{
  "contractName": "QuestionPaperSystem",
  "abi": [
    {
      "inputs": [],
      "stateMutability": "nonpayable",
      "type": "constructor"
    },
    {
      "anonymous": false,
      "inputs": [
        {
          "indexed": true,
          "internalType": "uint256",
          "name": "paperId",
          "type": "uint256"
        },
        {
          "indexed": true,
          "internalType": "address",
          "name": "user",
          "type": "address"
        },
        {
          "indexed": false,
          "internalType": "uint256",
          "name": "startTime",
          "type": "uint256"
        },
        {
          "indexed": false,
          "internalType": "uint256",
          "name": "endTime",
          "type": "uint256"
        }
      ],
      "name": "AccessGranted",
      "type": "event"
    },
    {
      "anonymous": false,
      "inputs": [
        {
          "indexed": true,
          "internalType": "uint256",
          "name": "paperId",
          "type": "uint256"
        },
        {
          "indexed": true,
          "internalType": "address",
          "name": "user",
          "type": "address"
        }
      ],
      "name": "AccessRevoked",
      "type": "event"
    },
    {
      "anonymous": false,
      "inputs": [
        {
          "indexed": true,
          "internalType": "address",
          "name": "user",
          "type": "address"
        },
        {
          "indexed": false,
          "internalType": "uint256",
          "name": "paperId",
          "type": "uint256"
        },
        {
          "indexed": false,
          "internalType": "bool",
          "name": "success",
          "type": "bool"
        },
        {
          "indexed": false,
          "internalType": "string",
          "name": "reason",
          "type": "string"
        }
      ],
      "name": "PaperAccessAttempt",
      "type": "event"
    },
    {
      "anonymous": false,
      "inputs": [
        {
          "indexed": true,
          "internalType": "uint256",
          "name": "paperId",
          "type": "uint256"
        },
        {
          "indexed": true,
          "internalType": "address",
          "name": "teacher",
          "type": "address"
        }
      ],
      "name": "PaperRequested",
      "type": "event"
    },
    {
      "anonymous": false,
      "inputs": [
        {
          "indexed": true,
          "internalType": "uint256",
          "name": "paperId",
          "type": "uint256"
        },
        {
          "indexed": true,
          "internalType": "address",
          "name": "teacher",
          "type": "address"
        },
        {
          "indexed": false,
          "internalType": "string",
          "name": "fileCID",
          "type": "string"
        },
        {
          "indexed": false,
          "internalType": "string",
          "name": "keyCID",
          "type": "string"
        }
      ],
      "name": "PaperUploaded",
      "type": "event"
    },
    {
      "anonymous": false,
      "inputs": [
        {
          "indexed": true,
          "internalType": "address",
          "name": "user",
          "type": "address"
        }
      ],
      "name": "UserDeactivated",
      "type": "event"
    },
    {
      "anonymous": false,
      "inputs": [
        {
          "indexed": true,
          "internalType": "address",
          "name": "user",
          "type": "address"
        },
        {
          "indexed": false,
          "internalType": "string",
          "name": "name",
          "type": "string"
        },
        {
          "indexed": false,
          "internalType": "enum QuestionPaperSystem.Role",
          "name": "role",
          "type": "uint8"
        },
        {
          "indexed": false,
          "internalType": "bool",
          "name": "success",
          "type": "bool"
        }
      ],
      "name": "UserRegistered",
      "type": "event"
    },
    {
      "inputs": [],
      "name": "Coe",
      "outputs": [
        {
          "internalType": "address",
          "name": "",
          "type": "address"
        }
      ],
      "stateMutability": "view",
      "type": "function"
    },
    {
      "inputs": [
        {
          "internalType": "uint256",
          "name": "",
          "type": "uint256"
        },
        {
          "internalType": "address",
          "name": "",
          "type": "address"
        }
      ],
      "name": "accessControl",
      "outputs": [
        {
          "internalType": "bool",
          "name": "granted",
          "type": "bool"
        },
        {
          "internalType": "uint256",
          "name": "startTime",
          "type": "uint256"
        },
        {
          "internalType": "uint256",
          "name": "endTime",
          "type": "uint256"
        }
      ],
      "stateMutability": "view",
      "type": "function"
    },
    {
      "inputs": [
        {
          "internalType": "uint256",
          "name": "",
          "type": "uint256"
        }
      ],
      "name": "accessLogs",
      "outputs": [
        {
          "internalType": "address",
          "name": "user",
          "type": "address"
        },
        {
          "internalType": "uint256",
          "name": "paperId",
          "type": "uint256"
        },
        {
          "internalType": "bool",
          "name": "success",
          "type": "bool"
        },
        {
          "internalType": "string",
          "name": "reason",
          "type": "string"
        },
        {
          "internalType": "uint256",
          "name": "timestamp",
          "type": "uint256"
        },
        {
          "internalType": "uint256",
          "name": "blockNumber",
          "type": "uint256"
        }
      ],
      "stateMutability": "view",
      "type": "function"
    },
    {
      "inputs": [],
      "name": "paperCount",
      "outputs": [
        {
          "internalType": "uint256",
          "name": "",
          "type": "uint256"
        }
      ],
      "stateMutability": "view",
      "type": "function"
    },
    {
      "inputs": [
        {
          "internalType": "uint256",
          "name": "",
          "type": "uint256"
        }
      ],
      "name": "papers",
      "outputs": [
        {
          "internalType": "address",
          "name": "teacher",
          "type": "address"
        },
        {
          "internalType": "string",
          "name": "fileCID",
          "type": "string"
        },
        {
          "internalType": "string",
          "name": "keyCID",
          "type": "string"
        },
        {
          "internalType": "string",
          "name": "ExamId",
          "type": "string"
        },
        {
          "internalType": "string",
          "name": "ExamName",
          "type": "string"
        },
        {
          "internalType": "string",
          "name": "Subject",
          "type": "string"
        },
        {
          "internalType": "enum QuestionPaperSystem.PaperStatus",
          "name": "status",
          "type": "uint8"
        },
        {
          "internalType": "bool",
          "name": "exists",
          "type": "bool"
        }
      ],
      "stateMutability": "view",
      "type": "function"
    },
    {
      "inputs": [
        {
          "internalType": "address",
          "name": "",
          "type": "address"
        }
      ],
      "name": "users",
      "outputs": [
        {
          "internalType": "string",
          "name": "name",
          "type": "string"
        },
        {
          "internalType": "enum QuestionPaperSystem.Role",
          "name": "role",
          "type": "uint8"
        },
        {
          "internalType": "string",
          "name": "email",
          "type": "string"
        },
        {
          "internalType": "string",
          "name": "contactNumber",
          "type": "string"
        },
        {
          "internalType": "bool",
          "name": "exists",
          "type": "bool"
        },
        {
          "internalType": "bool",
          "name": "isActive",
          "type": "bool"
        }
      ],
      "stateMutability": "view",
      "type": "function"
    },
    {
      "inputs": [
        {
          "internalType": "address",
          "name": "_userAddress",
          "type": "address"
        },
        {
          "internalType": "string",
          "name": "_name",
          "type": "string"
        },
        {
          "internalType": "enum QuestionPaperSystem.Role",
          "name": "_role",
          "type": "uint8"
        },
        {
          "internalType": "string",
          "name": "_email",
          "type": "string"
        },
        {
          "internalType": "string",
          "name": "_contactNumber",
          "type": "string"
        }
      ],
      "name": "registerUser",
      "outputs": [],
      "stateMutability": "nonpayable",
      "type": "function"
    },
    {
      "inputs": [
        {
          "internalType": "address",
          "name": "_userAddress",
          "type": "address"
        }
      ],
      "name": "deactivateUser",
      "outputs": [],
      "stateMutability": "nonpayable",
      "type": "function"
    },
    {
      "inputs": [
        {
          "internalType": "address",
          "name": "_teacher",
          "type": "address"
        },
        {
          "internalType": "string",
          "name": "_keyCID",
          "type": "string"
        },
        {
          "internalType": "string",
          "name": "_ExamId",
          "type": "string"
        },
        {
          "internalType": "string",
          "name": "_ExamName",
          "type": "string"
        },
        {
          "internalType": "string",
          "name": "_Subject",
          "type": "string"
        }
      ],
      "name": "createPaperRequest",
      "outputs": [],
      "stateMutability": "nonpayable",
      "type": "function"
    },
    {
      "inputs": [
        {
          "internalType": "uint256",
          "name": "_paperId",
          "type": "uint256"
        },
        {
          "internalType": "string",
          "name": "_fileCID",
          "type": "string"
        }
      ],
      "name": "uploadPaper",
      "outputs": [],
      "stateMutability": "nonpayable",
      "type": "function"
    },
    {
      "inputs": [
        {
          "internalType": "uint256",
          "name": "_paperId",
          "type": "uint256"
        },
        {
          "internalType": "address",
          "name": "_user",
          "type": "address"
        },
        {
          "internalType": "uint256",
          "name": "_startTime",
          "type": "uint256"
        },
        {
          "internalType": "uint256",
          "name": "_endTime",
          "type": "uint256"
        }
      ],
      "name": "grantAccess",
      "outputs": [],
      "stateMutability": "nonpayable",
      "type": "function"
    },
    {
      "inputs": [
        {
          "internalType": "uint256",
          "name": "_paperId",
          "type": "uint256"
        },
        {
          "internalType": "address",
          "name": "_user",
          "type": "address"
        }
      ],
      "name": "revokeAccess",
      "outputs": [],
      "stateMutability": "nonpayable",
      "type": "function"
    },
    {
      "inputs": [
        {
          "internalType": "uint256",
          "name": "_paperId",
          "type": "uint256"
        },
        {
          "internalType": "address",
          "name": "_user",
          "type": "address"
        }
      ],
      "name": "hasAccess",
      "outputs": [
        {
          "internalType": "bool",
          "name": "",
          "type": "bool"
        },
        {
          "internalType": "uint256",
          "name": "",
          "type": "uint256"
        },
        {
          "internalType": "uint256",
          "name": "",
          "type": "uint256"
        }
      ],
      "stateMutability": "view",
      "type": "function"
    },
    {
      "inputs": [
        {
          "internalType": "uint256",
          "name": "_paperId",
          "type": "uint256"
        }
      ],
      "name": "getPaper",
      "outputs": [
        {
          "internalType": "string",
          "name": "fileCID",
          "type": "string"
        },
        {
          "internalType": "string",
          "name": "keyCID",
          "type": "string"
        },
        {
          "internalType": "string",
          "name": "ExamId",
          "type": "string"
        },
        {
          "internalType": "string",
          "name": "ExamName",
          "type": "string"
        },
        {
          "internalType": "string",
          "name": "Subject",
          "type": "string"
        },
        {
          "internalType": "uint8",
          "name": "status",
          "type": "uint8"
        }
      ],
      "stateMutability": "nonpayable",
      "type": "function"
    },
    {
      "inputs": [],
      "name": "getAccessLogs",
      "outputs": [
        {
          "components": [
            {
              "internalType": "address",
              "name": "user",
              "type": "address"
            },
            {
              "internalType": "uint256",
              "name": "paperId",
              "type": "uint256"
            },
            {
              "internalType": "bool",
              "name": "success",
              "type": "bool"
            },
            {
              "internalType": "string",
              "name": "reason",
              "type": "string"
            },
            {
              "internalType": "uint256",
              "name": "timestamp",
              "type": "uint256"
            },
            {
              "internalType": "uint256",
              "name": "blockNumber",
              "type": "uint256"
            }
          ],
          "internalType": "struct QuestionPaperSystem.AccessLog[]",
          "name": "",
          "type": "tuple[]"
        }
      ],
      "stateMutability": "view",
      "type": "function"
    },
    {
      "inputs": [],
      "name": "getAllPapers",
      "outputs": [
        {
          "components": [
            {
              "internalType": "address",
              "name": "teacher",
              "type": "address"
            },
            {
              "internalType": "string",
              "name": "fileCID",
              "type": "string"
            },
            {
              "internalType": "string",
              "name": "keyCID",
              "type": "string"
            },
            {
              "internalType": "string",
              "name": "ExamId",
              "type": "string"
            },
            {
              "internalType": "string",
              "name": "ExamName",
              "type": "string"
            },
            {
              "internalType": "string",
              "name": "Subject",
              "type": "string"
            },
            {
              "internalType": "enum QuestionPaperSystem.PaperStatus",
              "name": "status",
              "type": "uint8"
            },
            {
              "internalType": "bool",
              "name": "exists",
              "type": "bool"
            }
          ],
          "internalType": "struct QuestionPaperSystem.Paper[]",
          "name": "",
          "type": "tuple[]"
        }
      ],
      "stateMutability": "view",
      "type": "function"
    },
    {
      "inputs": [],
      "name": "getAllUsers",
      "outputs": [
        {
          "internalType": "address[]",
          "name": "",
          "type": "address[]"
        },
        {
          "components": [
            {
              "internalType": "string",
              "name": "name",
              "type": "string"
            },
            {
              "internalType": "enum QuestionPaperSystem.Role",
              "name": "role",
              "type": "uint8"
            },
            {
              "internalType": "string",
              "name": "email",
              "type": "string"
            },
            {
              "internalType": "string",
              "name": "contactNumber",
              "type": "string"
            },
            {
              "internalType": "bool",
              "name": "exists",
              "type": "bool"
            },
            {
              "internalType": "bool",
              "name": "isActive",
              "type": "bool"
            }
          ],
          "internalType": "struct QuestionPaperSystem.User[]",
          "name": "",
          "type": "tuple[]"
        }
      ],
      "stateMutability": "view",
      "type": "function"
    }
  ],
  "bytecode": "0x608060405234801561001057600080fd5b50336000806101000a81548173ffffffffffffffffffffffffffffffffffffffff021916908373ffffffffffffffffffffffffffffffffffffffff160217905550614f10806100606000396000f3fe608060405234801561001057600080fd5b506004361061010b5760003560e01c8063a56c2cb9116100a2578063d9a5ec1b11610071578063d9a5ec1b146102e2578063db979bf8146102fe578063dd6821b01461031c578063e2842d7914610338578063f13f309d146103575761010b565b8063a56c2cb914610241578063a87430ba1461025f578063ca16221414610294578063ced14198146102b05761010b565b80633f1a39a0116100de5780633f1a39a01461019b5780634f13a86b146101b957806359741ba0146101d55780635e775a271461020a5761010b565b80630533f0211461011057806307993f041461012c5780631a47767b14610161578063381c5c8a1461017d575b600080fd5b61012a600480360381019061012591906136d8565b610389565b005b6101466004803603810190610141919061373f565b6106e7565b60405161015896959493929190613821565b60405180910390f35b61017b600480360381019061017691906138a5565b6111d3565b005b610185611420565b60405161019291906138e1565b60405180910390f35b6101a3611444565b6040516101b09190613b75565b60405180910390f35b6101d360048036038101906101ce9190613ccc565b6118c4565b005b6101ef60048036038101906101ea919061373f565b611c6a565b60405161020196959493929190613d46565b60405180910390f35b610224600480360381019061021f919061373f565b611d6b565b604051610238989796959493929190613dbd565b60405180910390f35b610249612095565b6040516102569190613e5e565b60405180910390f35b610279600480360381019061027491906138a5565b61209b565b60405161028b96959493929190613ec1565b60405180910390f35b6102ae60048036038101906102a99190613f5c565b612296565b005b6102ca60048036038101906102c5919061402b565b6126c7565b6040516102d99392919061406b565b60405180910390f35b6102fc60048036038101906102f7919061402b565b6128e7565b005b610306612ac9565b60405161031391906141fc565b60405180910390f35b6103366004803603810190610331919061421e565b612c49565b005b610340613057565b60405161034e929190614520565b60405180910390f35b610371600480360381019061036c919061402b565b61348e565b6040516103809392919061406b565b60405180910390f35b60008054906101000a900473ffffffffffffffffffffffffffffffffffffffff1673ffffffffffffffffffffffffffffffffffffffff163373ffffffffffffffffffffffffffffffffffffffff1614610417576040517f08c379a000000000000000000000000000000000000000000000000000000000815260040161040e906145c9565b60405180910390fd5b6002600085815260200190815260200160002060060160019054906101000a900460ff1661047a576040517f08c379a000000000000000000000000000000000000000000000000000000000815260040161047190614635565b60405180910390fd5b600160008473ffffffffffffffffffffffffffffffffffffffff1673ffffffffffffffffffffffffffffffffffffffff16815260200190815260200160002060040160009054906101000a900460ff1680156105225750600160008473ffffffffffffffffffffffffffffffffffffffff1673ffffffffffffffffffffffffffffffffffffffff16815260200190815260200160002060040160019054906101000a900460ff165b610561576040517f08c379a0000000000000000000000000000000000000000000000000000000008152600401610558906146a1565b60405180910390fd5b6001600281111561057557610574613981565b5b6002600086815260200190815260200160002060060160009054906101000a900460ff1660028111156105ab576105aa613981565b5b146105eb576040517f08c379a00000000000000000000000000000000000000000000000000000000081526004016105e29061470d565b60405180910390fd5b6040518060600160405280600115158152602001838152602001828152506003600086815260200190815260200160002060008573ffffffffffffffffffffffffffffffffffffffff1673ffffffffffffffffffffffffffffffffffffffff16815260200190815260200160002060008201518160000160006101000a81548160ff02191690831515021790555060208201518160010155604082015181600201559050508273ffffffffffffffffffffffffffffffffffffffff16847f239a3566552fea15efcb7f329e00f63b2bef916135e5ca3e6fcb3279d688e37e84846040516106d992919061472d565b60405180910390a350505050565b60608060608060606000804290506000439050600260008a815260200190815260200160002060060160019054906101000a900460ff166108f8573373ffffffffffffffffffffffffffffffffffffffff167f3cc27fde9eb0585fd46ef6239b40c18635c9ff3e2d2fefe4d82a5a1f8d66025c8a600060405161076b9291906147a2565b60405180910390a260066040518060c001604052803373ffffffffffffffffffffffffffffffffffffffff1681526020018b81526020016000151581526020016040518060400160405280600d81526020017f496e76616c696420706170657200000000000000000000000000000000000000815250815260200184815260200183815250908060018154018082558091505060019003906000526020600020906006020160009091909190915060008201518160000160006101000a81548173ffffffffffffffffffffffffffffffffffffffff021916908373ffffffffffffffffffffffffffffffffffffffff1602179055506020820151816001015560408201518160020160006101000a81548160ff02191690831515021790555060608201518160030190805190602001906108a69291906134d2565b506080820151816004015560a0820151816005015550506040517f08c379a00000000000000000000000000000000000000000000000000000000081526004016108ef90614635565b60405180910390fd5b60008054906101000a900473ffffffffffffffffffffffffffffffffffffffff1673ffffffffffffffffffffffffffffffffffffffff163373ffffffffffffffffffffffffffffffffffffffff161480610a6d5750600360008a815260200190815260200160002060003373ffffffffffffffffffffffffffffffffffffffff1673ffffffffffffffffffffffffffffffffffffffff16815260200190815260200160002060000160009054906101000a900460ff168015610a0d5750600360008a815260200190815260200160002060003373ffffffffffffffffffffffffffffffffffffffff1673ffffffffffffffffffffffffffffffffffffffff168152602001908152602001600020600101544210155b8015610a6c5750600360008a815260200190815260200160002060003373ffffffffffffffffffffffffffffffffffffffff1673ffffffffffffffffffffffffffffffffffffffff168152602001908152602001600020600201544211155b5b610c475760066040518060c001604052803373ffffffffffffffffffffffffffffffffffffffff1681526020018b81526020016000151581526020016040518060400160405280600d81526020017f4163636573732064656e69656400000000000000000000000000000000000000815250815260200184815260200183815250908060018154018082558091505060019003906000526020600020906006020160009091909190915060008201518160000160006101000a81548173ffffffffffffffffffffffffffffffffffffffff021916908373ffffffffffffffffffffffffffffffffffffffff1602179055506020820151816001015560408201518160020160006101000a81548160ff0219169083151502179055506060820151816003019080519060200190610ba49291906134d2565b506080820151816004015560a0820151816005015550503373ffffffffffffffffffffffffffffffffffffffff167f3cc27fde9eb0585fd46ef6239b40c18635c9ff3e2d2fefe4d82a5a1f8d66025c8a6000604051610c0492919061482a565b60405180910390a26040517f08c379a0000000000000000000000000000000000000000000000000000000008152600401610c3e90614866565b60405180910390fd5b6000600260008b8152602001908152602001600020604051806101000160405290816000820160009054906101000a900473ffffffffffffffffffffffffffffffffffffffff1673ffffffffffffffffffffffffffffffffffffffff1673ffffffffffffffffffffffffffffffffffffffff168152602001600182018054610cce906148b5565b80601f0160208091040260200160405190810160405280929190818152602001828054610cfa906148b5565b8015610d475780601f10610d1c57610100808354040283529160200191610d47565b820191906000526020600020905b815481529060010190602001808311610d2a57829003601f168201915b50505050508152602001600282018054610d60906148b5565b80601f0160208091040260200160405190810160405280929190818152602001828054610d8c906148b5565b8015610dd95780601f10610dae57610100808354040283529160200191610dd9565b820191906000526020600020905b815481529060010190602001808311610dbc57829003601f168201915b50505050508152602001600382018054610df2906148b5565b80601f0160208091040260200160405190810160405280929190818152602001828054610e1e906148b5565b8015610e6b5780601f10610e4057610100808354040283529160200191610e6b565b820191906000526020600020905b815481529060010190602001808311610e4e57829003601f168201915b50505050508152602001600482018054610e84906148b5565b80601f0160208091040260200160405190810160405280929190818152602001828054610eb0906148b5565b8015610efd5780601f10610ed257610100808354040283529160200191610efd565b820191906000526020600020905b815481529060010190602001808311610ee057829003601f168201915b50505050508152602001600582018054610f16906148b5565b80601f0160208091040260200160405190810160405280929190818152602001828054610f42906148b5565b8015610f8f5780601f10610f6457610100808354040283529160200191610f8f565b820191906000526020600020905b815481529060010190602001808311610f7257829003601f168201915b505050505081526020016006820160009054906101000a900460ff166002811115610fbd57610fbc613981565b5b6002811115610fcf57610fce613981565b5b81526020016006820160019054906101000a900460ff16151515158152505090503373ffffffffffffffffffffffffffffffffffffffff167f3cc27fde9eb0585fd46ef6239b40c18635c9ff3e2d2fefe4d82a5a1f8d66025c8b6001604051611039929190614933565b60405180910390a260066040518060c001604052803373ffffffffffffffffffffffffffffffffffffffff1681526020018c81526020016001151581526020016040518060400160405280600e81526020017f416363657373206772616e746564000000000000000000000000000000000000815250815260200185815260200184815250908060018154018082558091505060019003906000526020600020906006020160009091909190915060008201518160000160006101000a81548173ffffffffffffffffffffffffffffffffffffffff021916908373ffffffffffffffffffffffffffffffffffffffff1602179055506020820151816001015560408201518160020160006101000a81548160ff02191690831515021790555060608201518160030190805190602001906111749291906134d2565b506080820151816004015560a08201518160050155505080602001518160400151826060015183608001518460a001518560c0015160028111156111bb576111ba613981565b5b98509850985098509850985050505091939550919395565b60008054906101000a900473ffffffffffffffffffffffffffffffffffffffff1673ffffffffffffffffffffffffffffffffffffffff163373ffffffffffffffffffffffffffffffffffffffff1614611261576040517f08c379a0000000000000000000000000000000000000000000000000000000008152600401611258906145c9565b60405180910390fd5b600160008273ffffffffffffffffffffffffffffffffffffffff1673ffffffffffffffffffffffffffffffffffffffff16815260200190815260200160002060040160009054906101000a900460ff166112f0576040517f08c379a00000000000000000000000000000000000000000000000000000000081526004016112e7906149bb565b60405180910390fd5b600160008273ffffffffffffffffffffffffffffffffffffffff1673ffffffffffffffffffffffffffffffffffffffff16815260200190815260200160002060040160019054906101000a900460ff1661137f576040517f08c379a000000000000000000000000000000000000000000000000000000000815260040161137690614a27565b60405180910390fd5b6000600160008373ffffffffffffffffffffffffffffffffffffffff1673ffffffffffffffffffffffffffffffffffffffff16815260200190815260200160002060040160016101000a81548160ff0219169083151502179055508073ffffffffffffffffffffffffffffffffffffffff167f5554feec4e87bc4eba14bd62f71df68156f97d26128616fbc27d28e33b35a6b460405160405180910390a250565b60008054906101000a900473ffffffffffffffffffffffffffffffffffffffff1681565b6060600060045467ffffffffffffffff81111561146457611463613ba1565b5b60405190808252806020026020018201604052801561149d57816020015b61148a613558565b8152602001906001900390816114825790505b5090506000600190505b60045481116118bc576002600082815260200190815260200160002060060160019054906101000a900460ff16156118a95760026000828152602001908152602001600020604051806101000160405290816000820160009054906101000a900473ffffffffffffffffffffffffffffffffffffffff1673ffffffffffffffffffffffffffffffffffffffff1673ffffffffffffffffffffffffffffffffffffffff16815260200160018201805461155e906148b5565b80601f016020809104026020016040519081016040528092919081815260200182805461158a906148b5565b80156115d75780601f106115ac576101008083540402835291602001916115d7565b820191906000526020600020905b8154815290600101906020018083116115ba57829003601f168201915b505050505081526020016002820180546115f0906148b5565b80601f016020809104026020016040519081016040528092919081815260200182805461161c906148b5565b80156116695780601f1061163e57610100808354040283529160200191611669565b820191906000526020600020905b81548152906001019060200180831161164c57829003601f168201915b50505050508152602001600382018054611682906148b5565b80601f01602080910402602001604051908101604052809291908181526020018280546116ae906148b5565b80156116fb5780601f106116d0576101008083540402835291602001916116fb565b820191906000526020600020905b8154815290600101906020018083116116de57829003601f168201915b50505050508152602001600482018054611714906148b5565b80601f0160208091040260200160405190810160405280929190818152602001828054611740906148b5565b801561178d5780601f106117625761010080835404028352916020019161178d565b820191906000526020600020905b81548152906001019060200180831161177057829003601f168201915b505050505081526020016005820180546117a6906148b5565b80601f01602080910402602001604051908101604052809291908181526020018280546117d2906148b5565b801561181f5780601f106117f45761010080835404028352916020019161181f565b820191906000526020600020905b81548152906001019060200180831161180257829003601f168201915b505050505081526020016006820160009054906101000a900460ff16600281111561184d5761184c613981565b5b600281111561185f5761185e613981565b5b81526020016006820160019054906101000a900460ff1615151515815250508260018361188c9190614a76565b8151811061189d5761189c614aaa565b5b60200260200101819052505b80806118b490614ad9565b9150506114a7565b508091505090565b600160003373ffffffffffffffffffffffffffffffffffffffff1673ffffffffffffffffffffffffffffffffffffffff16815260200190815260200160002060040160009054906101000a900460ff16801561199357506000600281111561192f5761192e613981565b5b600160003373ffffffffffffffffffffffffffffffffffffffff1673ffffffffffffffffffffffffffffffffffffffff16815260200190815260200160002060010160009054906101000a900460ff16600281111561199157611990613981565b5b145b80156119eb5750600160003373ffffffffffffffffffffffffffffffffffffffff1673ffffffffffffffffffffffffffffffffffffffff16815260200190815260200160002060040160019054906101000a900460ff165b611a2a576040517f08c379a0000000000000000000000000000000000000000000000000000000008152600401611a2190614b94565b60405180910390fd5b6002600083815260200190815260200160002060060160019054906101000a900460ff16611a8d576040517f08c379a0000000000000000000000000000000000000000000000000000000008152600401611a8490614635565b60405180910390fd5b3373ffffffffffffffffffffffffffffffffffffffff166002600084815260200190815260200160002060000160009054906101000a900473ffffffffffffffffffffffffffffffffffffffff1673ffffffffffffffffffffffffffffffffffffffff1614611b31576040517f08c379a0000000000000000000000000000000000000000000000000000000008152600401611b2890614c00565b60405180910390fd5b6000600260008481526020019081526020016000206001018054611b54906148b5565b905014611b96576040517f08c379a0000000000000000000000000000000000000000000000000000000008152600401611b8d90614c6c565b60405180910390fd5b80600260008481526020019081526020016000206001019080519060200190611bc09291906134d2565b5060016002600084815260200190815260200160002060060160006101000a81548160ff02191690836002811115611bfb57611bfa613981565b5b02179055503373ffffffffffffffffffffffffffffffffffffffff16827f356d2993db12c6b0585c873fff9e18a6b9821484e9289f092a4609e12f30b3e08360026000878152602001908152602001600020600201604051611c5e929190614d21565b60405180910390a35050565b60068181548110611c7a57600080fd5b90600052602060002090600602016000915090508060000160009054906101000a900473ffffffffffffffffffffffffffffffffffffffff16908060010154908060020160009054906101000a900460ff1690806003018054611cdc906148b5565b80601f0160208091040260200160405190810160405280929190818152602001828054611d08906148b5565b8015611d555780601f10611d2a57610100808354040283529160200191611d55565b820191906000526020600020905b815481529060010190602001808311611d3857829003601f168201915b5050505050908060040154908060050154905086565b60026020528060005260406000206000915090508060000160009054906101000a900473ffffffffffffffffffffffffffffffffffffffff1690806001018054611db4906148b5565b80601f0160208091040260200160405190810160405280929190818152602001828054611de0906148b5565b8015611e2d5780601f10611e0257610100808354040283529160200191611e2d565b820191906000526020600020905b815481529060010190602001808311611e1057829003601f168201915b505050505090806002018054611e42906148b5565b80601f0160208091040260200160405190810160405280929190818152602001828054611e6e906148b5565b8015611ebb5780601f10611e9057610100808354040283529160200191611ebb565b820191906000526020600020905b815481529060010190602001808311611e9e57829003601f168201915b505050505090806003018054611ed0906148b5565b80601f0160208091040260200160405190810160405280929190818152602001828054611efc906148b5565b8015611f495780601f10611f1e57610100808354040283529160200191611f49565b820191906000526020600020905b815481529060010190602001808311611f2c57829003601f168201915b505050505090806004018054611f5e906148b5565b80601f0160208091040260200160405190810160405280929190818152602001828054611f8a906148b5565b8015611fd75780601f10611fac57610100808354040283529160200191611fd7565b820191906000526020600020905b815481529060010190602001808311611fba57829003601f168201915b505050505090806005018054611fec906148b5565b80601f0160208091040260200160405190810160405280929190818152602001828054612018906148b5565b80156120655780601f1061203a57610100808354040283529160200191612065565b820191906000526020600020905b81548152906001019060200180831161204857829003601f168201915b5050505050908060060160009054906101000a900460ff16908060060160019054906101000a900460ff16905088565b60045481565b60016020528060005260406000206000915090508060000180546120be906148b5565b80601f01602080910402602001604051908101604052809291908181526020018280546120ea906148b5565b80156121375780601f1061210c57610100808354040283529160200191612137565b820191906000526020600020905b81548152906001019060200180831161211a57829003601f168201915b5050505050908060010160009054906101000a900460ff169080600201805461215f906148b5565b80601f016020809104026020016040519081016040528092919081815260200182805461218b906148b5565b80156121d85780601f106121ad576101008083540402835291602001916121d8565b820191906000526020600020905b8154815290600101906020018083116121bb57829003601f168201915b5050505050908060030180546121ed906148b5565b80601f0160208091040260200160405190810160405280929190818152602001828054612219906148b5565b80156122665780601f1061223b57610100808354040283529160200191612266565b820191906000526020600020905b81548152906001019060200180831161224957829003601f168201915b5050505050908060040160009054906101000a900460ff16908060040160019054906101000a900460ff16905086565b60008054906101000a900473ffffffffffffffffffffffffffffffffffffffff1673ffffffffffffffffffffffffffffffffffffffff163373ffffffffffffffffffffffffffffffffffffffff1614612324576040517f08c379a000000000000000000000000000000000000000000000000000000000815260040161231b906145c9565b60405180910390fd5b600160008673ffffffffffffffffffffffffffffffffffffffff1673ffffffffffffffffffffffffffffffffffffffff16815260200190815260200160002060040160009054906101000a900460ff16156124bb57600160008673ffffffffffffffffffffffffffffffffffffffff1673ffffffffffffffffffffffffffffffffffffffff16815260200190815260200160002060040160019054906101000a900460ff1615612409576040517f08c379a000000000000000000000000000000000000000000000000000000000815260040161240090614da4565b60405180910390fd5b60018060008773ffffffffffffffffffffffffffffffffffffffff1673ffffffffffffffffffffffffffffffffffffffff16815260200190815260200160002060040160016101000a81548160ff0219169083151502179055508473ffffffffffffffffffffffffffffffffffffffff167f72d8d77f9816e8c83bcabddaf5663aec70ae11649d0f4e7f57cf25dc5e2f9a08858560016040516124ae93929190614dc4565b60405180910390a26126c0565b6040518060c001604052808581526020018460028111156124df576124de613981565b5b815260200183815260200182815260200160011515815260200160011515815250600160008773ffffffffffffffffffffffffffffffffffffffff1673ffffffffffffffffffffffffffffffffffffffff168152602001908152602001600020600082015181600001908051906020019061255b9291906134d2565b5060208201518160010160006101000a81548160ff0219169083600281111561258757612586613981565b5b021790555060408201518160020190805190602001906125a89291906134d2565b5060608201518160030190805190602001906125c59291906134d2565b5060808201518160040160006101000a81548160ff02191690831515021790555060a08201518160040160016101000a81548160ff0219169083151502179055509050506005859080600181540180825580915050600190039060005260206000200160009091909190916101000a81548173ffffffffffffffffffffffffffffffffffffffff021916908373ffffffffffffffffffffffffffffffffffffffff1602179055508473ffffffffffffffffffffffffffffffffffffffff167f72d8d77f9816e8c83bcabddaf5663aec70ae11649d0f4e7f57cf25dc5e2f9a08858560016040516126b793929190614dc4565b60405180910390a25b5050505050565b60008060006002600086815260200190815260200160002060060160019054906101000a900460ff1661272f576040517f08c379a000000000000000000000000000000000000000000000000000000000815260040161272690614635565b60405180910390fd5b600160008573ffffffffffffffffffffffffffffffffffffffff1673ffffffffffffffffffffffffffffffffffffffff16815260200190815260200160002060040160009054906101000a900460ff1680156127d75750600160008573ffffffffffffffffffffffffffffffffffffffff1673ffffffffffffffffffffffffffffffffffffffff16815260200190815260200160002060040160019054906101000a900460ff165b612816576040517f08c379a000000000000000000000000000000000000000000000000000000000815260040161280d906146a1565b60405180910390fd5b60006003600087815260200190815260200160002060008673ffffffffffffffffffffffffffffffffffffffff1673ffffffffffffffffffffffffffffffffffffffff1681526020019081526020016000206040518060600160405290816000820160009054906101000a900460ff161515151581526020016001820154815260200160028201548152505090506000816000015180156128bb575081602001514210155b80156128cb575081604001514211155b9050808260200151836040015194509450945050509250925092565b60008054906101000a900473ffffffffffffffffffffffffffffffffffffffff1673ffffffffffffffffffffffffffffffffffffffff163373ffffffffffffffffffffffffffffffffffffffff1614612975576040517f08c379a000000000000000000000000000000000000000000000000000000000815260040161296c906145c9565b60405180910390fd5b6003600083815260200190815260200160002060008273ffffffffffffffffffffffffffffffffffffffff1673ffffffffffffffffffffffffffffffffffffffff16815260200190815260200160002060000160009054906101000a900460ff16612a15576040517f08c379a0000000000000000000000000000000000000000000000000000000008152600401612a0c90614e4e565b60405180910390fd5b60006003600084815260200190815260200160002060008373ffffffffffffffffffffffffffffffffffffffff1673ffffffffffffffffffffffffffffffffffffffff16815260200190815260200160002060000160006101000a81548160ff0219169083151502179055508073ffffffffffffffffffffffffffffffffffffffff16827f125883b94692baebecad9f111ed97ffa626523bbbadc6b0ef85ee1b56b9e52d560405160405180910390a35050565b60606006805480602002602001604051908101604052809291908181526020016000905b82821015612c4057838290600052602060002090600602016040518060c00160405290816000820160009054906101000a900473ffffffffffffffffffffffffffffffffffffffff1673ffffffffffffffffffffffffffffffffffffffff1673ffffffffffffffffffffffffffffffffffffffff168152602001600182015481526020016002820160009054906101000a900460ff16151515158152602001600382018054612b9b906148b5565b80601f0160208091040260200160405190810160405280929190818152602001828054612bc7906148b5565b8015612c145780601f10612be957610100808354040283529160200191612c14565b820191906000526020600020905b815481529060010190602001808311612bf757829003601f168201915b505050505081526020016004820154815260200160058201548152505081526020019060010190612aed565b50505050905090565b60008054906101000a900473ffffffffffffffffffffffffffffffffffffffff1673ffffffffffffffffffffffffffffffffffffffff163373ffffffffffffffffffffffffffffffffffffffff1614612cd7576040517f08c379a0000000000000000000000000000000000000000000000000000000008152600401612cce906145c9565b60405180910390fd5b600160008673ffffffffffffffffffffffffffffffffffffffff1673ffffffffffffffffffffffffffffffffffffffff16815260200190815260200160002060040160009054906101000a900460ff168015612da6575060006002811115612d4257612d41613981565b5b600160008773ffffffffffffffffffffffffffffffffffffffff1673ffffffffffffffffffffffffffffffffffffffff16815260200190815260200160002060010160009054906101000a900460ff166002811115612da457612da3613981565b5b145b8015612dfe5750600160008673ffffffffffffffffffffffffffffffffffffffff1673ffffffffffffffffffffffffffffffffffffffff16815260200190815260200160002060040160019054906101000a900460ff165b612e3d576040517f08c379a0000000000000000000000000000000000000000000000000000000008152600401612e3490614eba565b60405180910390fd5b60046000815480929190612e5090614ad9565b91905055506040518061010001604052808673ffffffffffffffffffffffffffffffffffffffff16815260200160405180602001604052806000815250815260200185815260200184815260200183815260200182815260200160006002811115612ebe57612ebd613981565b5b81526020016001151581525060026000600454815260200190815260200160002060008201518160000160006101000a81548173ffffffffffffffffffffffffffffffffffffffff021916908373ffffffffffffffffffffffffffffffffffffffff1602179055506020820151816001019080519060200190612f429291906134d2565b506040820151816002019080519060200190612f5f9291906134d2565b506060820151816003019080519060200190612f7c9291906134d2565b506080820151816004019080519060200190612f999291906134d2565b5060a0820151816005019080519060200190612fb69291906134d2565b5060c08201518160060160006101000a81548160ff02191690836002811115612fe257612fe1613981565b5b021790555060e08201518160060160016101000a81548160ff0219169083151502179055509050508473ffffffffffffffffffffffffffffffffffffffff166004547f6454790994d9c0b5b58a3d9e16e4a9a6016714c7a639fa461afa0ce43be9591c60405160405180910390a35050505050565b6060806000600580549050905060008167ffffffffffffffff8111156130805761307f613ba1565b5b6040519080825280602002602001820160405280156130b957816020015b6130a66135c7565b81526020019060019003908161309e5790505b50905060008267ffffffffffffffff8111156130d8576130d7613ba1565b5b6040519080825280602002602001820160405280156131065781602001602082028036833780820191505090505b50905060005b83811015613480576005818154811061312857613127614aaa565b5b9060005260206000200160009054906101000a900473ffffffffffffffffffffffffffffffffffffffff1682828151811061316657613165614aaa565b5b602002602001019073ffffffffffffffffffffffffffffffffffffffff16908173ffffffffffffffffffffffffffffffffffffffff168152505060016000600583815481106131b8576131b7614aaa565b5b9060005260206000200160009054906101000a900473ffffffffffffffffffffffffffffffffffffffff1673ffffffffffffffffffffffffffffffffffffffff1673ffffffffffffffffffffffffffffffffffffffff1681526020019081526020016000206040518060c0016040529081600082018054613238906148b5565b80601f0160208091040260200160405190810160405280929190818152602001828054613264906148b5565b80156132b15780601f10613286576101008083540402835291602001916132b1565b820191906000526020600020905b81548152906001019060200180831161329457829003601f168201915b505050505081526020016001820160009054906101000a900460ff1660028111156132df576132de613981565b5b60028111156132f1576132f0613981565b5b8152602001600282018054613305906148b5565b80601f0160208091040260200160405190810160405280929190818152602001828054613331906148b5565b801561337e5780601f106133535761010080835404028352916020019161337e565b820191906000526020600020905b81548152906001019060200180831161336157829003601f168201915b50505050508152602001600382018054613397906148b5565b80601f01602080910402602001604051908101604052809291908181526020018280546133c3906148b5565b80156134105780601f106133e557610100808354040283529160200191613410565b820191906000526020600020905b8154815290600101906020018083116133f357829003601f168201915b505050505081526020016004820160009054906101000a900460ff161515151581526020016004820160019054906101000a900460ff16151515158152505083828151811061346257613461614aaa565b5b6020026020010181905250808061347890614ad9565b91505061310c565b508082945094505050509091565b6003602052816000526040600020602052806000526040600020600091509150508060000160009054906101000a900460ff16908060010154908060020154905083565b8280546134de906148b5565b90600052602060002090601f0160209004810192826135005760008555613547565b82601f1061351957805160ff1916838001178555613547565b82800160010185558215613547579182015b8281111561354657825182559160200191906001019061352b565b5b5090506135549190613613565b5090565b604051806101000160405280600073ffffffffffffffffffffffffffffffffffffffff1681526020016060815260200160608152602001606081526020016060815260200160608152602001600060028111156135b8576135b7613981565b5b81526020016000151581525090565b6040518060c0016040528060608152602001600060028111156135ed576135ec613981565b5b815260200160608152602001606081526020016000151581526020016000151581525090565b5b8082111561362c576000816000905550600101613614565b5090565b6000604051905090565b600080fd5b600080fd5b6000819050919050565b61365781613644565b811461366257600080fd5b50565b6000813590506136748161364e565b92915050565b600073ffffffffffffffffffffffffffffffffffffffff82169050919050565b60006136a58261367a565b9050919050565b6136b58161369a565b81146136c057600080fd5b50565b6000813590506136d2816136ac565b92915050565b600080600080608085870312156136f2576136f161363a565b5b600061370087828801613665565b9450506020613711878288016136c3565b935050604061372287828801613665565b925050606061373387828801613665565b91505092959194509250565b6000602082840312156137555761375461363a565b5b600061376384828501613665565b91505092915050565b600081519050919050565b600082825260208201905092915050565b60005b838110156137a657808201518184015260208101905061378b565b838111156137b5576000848401525b50505050565b6000601f19601f8301169050919050565b60006137d78261376c565b6137e18185613777565b93506137f1818560208601613788565b6137fa816137bb565b840191505092915050565b600060ff82169050919050565b61381b81613805565b82525050565b600060c082019050818103600083015261383b81896137cc565b9050818103602083015261384f81886137cc565b9050818103604083015261386381876137cc565b9050818103606083015261387781866137cc565b9050818103608083015261388b81856137cc565b905061389a60a0830184613812565b979650505050505050565b6000602082840312156138bb576138ba61363a565b5b60006138c9848285016136c3565b91505092915050565b6138db8161369a565b82525050565b60006020820190506138f660008301846138d2565b92915050565b600081519050919050565b600082825260208201905092915050565b6000819050602082019050919050565b6139318161369a565b82525050565b600082825260208201905092915050565b60006139538261376c565b61395d8185613937565b935061396d818560208601613788565b613976816137bb565b840191505092915050565b7f4e487b7100000000000000000000000000000000000000000000000000000000600052602160045260246000fd5b600381106139c1576139c0613981565b5b50565b60008190506139d2826139b0565b919050565b60006139e2826139c4565b9050919050565b6139f2816139d7565b82525050565b60008115159050919050565b613a0d816139f8565b82525050565b600061010083016000830151613a2c6000860182613928565b5060208301518482036020860152613a448282613948565b91505060408301518482036040860152613a5e8282613948565b91505060608301518482036060860152613a788282613948565b91505060808301518482036080860152613a928282613948565b91505060a083015184820360a0860152613aac8282613948565b91505060c0830151613ac160c08601826139e9565b5060e0830151613ad460e0860182613a04565b508091505092915050565b6000613aeb8383613a13565b905092915050565b6000602082019050919050565b6000613b0b826138fc565b613b158185613907565b935083602082028501613b2785613918565b8060005b85811015613b635784840389528151613b448582613adf565b9450613b4f83613af3565b925060208a01995050600181019050613b2b565b50829750879550505050505092915050565b60006020820190508181036000830152613b8f8184613b00565b905092915050565b600080fd5b600080fd5b7f4e487b7100000000000000000000000000000000000000000000000000000000600052604160045260246000fd5b613bd9826137bb565b810181811067ffffffffffffffff82111715613bf857613bf7613ba1565b5b80604052505050565b6000613c0b613630565b9050613c178282613bd0565b919050565b600067ffffffffffffffff821115613c3757613c36613ba1565b5b613c40826137bb565b9050602081019050919050565b82818337600083830152505050565b6000613c6f613c6a84613c1c565b613c01565b905082815260208101848484011115613c8b57613c8a613b9c565b5b613c96848285613c4d565b509392505050565b600082601f830112613cb357613cb2613b97565b5b8135613cc3848260208601613c5c565b91505092915050565b60008060408385031215613ce357613ce261363a565b5b6000613cf185828601613665565b925050602083013567ffffffffffffffff811115613d1257613d1161363f565b5b613d1e85828601613c9e565b9150509250929050565b613d3181613644565b82525050565b613d40816139f8565b82525050565b600060c082019050613d5b60008301896138d2565b613d686020830188613d28565b613d756040830187613d37565b8181036060830152613d8781866137cc565b9050613d966080830185613d28565b613da360a0830184613d28565b979650505050505050565b613db7816139d7565b82525050565b600061010082019050613dd3600083018b6138d2565b8181036020830152613de5818a6137cc565b90508181036040830152613df981896137cc565b90508181036060830152613e0d81886137cc565b90508181036080830152613e2181876137cc565b905081810360a0830152613e3581866137cc565b9050613e4460c0830185613dae565b613e5160e0830184613d37565b9998505050505050505050565b6000602082019050613e736000830184613d28565b92915050565b60038110613e8a57613e89613981565b5b50565b6000819050613e9b82613e79565b919050565b6000613eab82613e8d565b9050919050565b613ebb81613ea0565b82525050565b600060c0820190508181036000830152613edb81896137cc565b9050613eea6020830188613eb2565b8181036040830152613efc81876137cc565b90508181036060830152613f1081866137cc565b9050613f1f6080830185613d37565b613f2c60a0830184613d37565b979650505050505050565b60038110613f4457600080fd5b50565b600081359050613f5681613f37565b92915050565b600080600080600060a08688031215613f7857613f7761363a565b5b6000613f86888289016136c3565b955050602086013567ffffffffffffffff811115613fa757613fa661363f565b5b613fb388828901613c9e565b9450506040613fc488828901613f47565b935050606086013567ffffffffffffffff811115613fe557613fe461363f565b5b613ff188828901613c9e565b925050608086013567ffffffffffffffff8111156140125761401161363f565b5b61401e88828901613c9e565b9150509295509295909350565b600080604083850312156140425761404161363a565b5b600061405085828601613665565b9250506020614061858286016136c3565b9150509250929050565b60006060820190506140806000830186613d37565b61408d6020830185613d28565b61409a6040830184613d28565b949350505050565b600081519050919050565b600082825260208201905092915050565b6000819050602082019050919050565b6140d781613644565b82525050565b600060c0830160008301516140f56000860182613928565b50602083015161410860208601826140ce565b50604083015161411b6040860182613a04565b50606083015184820360608601526141338282613948565b915050608083015161414860808601826140ce565b5060a083015161415b60a08601826140ce565b508091505092915050565b600061417283836140dd565b905092915050565b6000602082019050919050565b6000614192826140a2565b61419c81856140ad565b9350836020820285016141ae856140be565b8060005b858110156141ea57848403895281516141cb8582614166565b94506141d68361417a565b925060208a019950506001810190506141b2565b50829750879550505050505092915050565b600060208201905081810360008301526142168184614187565b905092915050565b600080600080600060a0868803121561423a5761423961363a565b5b6000614248888289016136c3565b955050602086013567ffffffffffffffff8111156142695761426861363f565b5b61427588828901613c9e565b945050604086013567ffffffffffffffff8111156142965761429561363f565b5b6142a288828901613c9e565b935050606086013567ffffffffffffffff8111156142c3576142c261363f565b5b6142cf88828901613c9e565b925050608086013567ffffffffffffffff8111156142f0576142ef61363f565b5b6142fc88828901613c9e565b9150509295509295909350565b600081519050919050565b600082825260208201905092915050565b6000819050602082019050919050565b60006143418383613928565b60208301905092915050565b6000602082019050919050565b600061436582614309565b61436f8185614314565b935061437a83614325565b8060005b838110156143ab5781516143928882614335565b975061439d8361434d565b92505060018101905061437e565b5085935050505092915050565b600081519050919050565b600082825260208201905092915050565b6000819050602082019050919050565b6143ed81613ea0565b82525050565b600060c08301600083015184820360008601526144108282613948565b915050602083015161442560208601826143e4565b506040830151848203604086015261443d8282613948565b915050606083015184820360608601526144578282613948565b915050608083015161446c6080860182613a04565b5060a083015161447f60a0860182613a04565b508091505092915050565b600061449683836143f3565b905092915050565b6000602082019050919050565b60006144b6826143b8565b6144c081856143c3565b9350836020820285016144d2856143d4565b8060005b8581101561450e57848403895281516144ef858261448a565b94506144fa8361449e565b925060208a019950506001810190506144d6565b50829750879550505050505092915050565b6000604082019050818103600083015261453a818561435a565b9050818103602083015261454e81846144ab565b90509392505050565b7f4f6e6c7920636f6e7472616374206f776e65722063616e20706572666f726d2060008201527f74686973207468697320616374696f6e00000000000000000000000000000000602082015250565b60006145b3603083613777565b91506145be82614557565b604082019050919050565b600060208201905081810360008301526145e2816145a6565b9050919050565b7f496e76616c696420706170657200000000000000000000000000000000000000600082015250565b600061461f600d83613777565b915061462a826145e9565b602082019050919050565b6000602082019050818103600083015261464e81614612565b9050919050565b7f496e76616c6964206f7220696e61637469766520757365720000000000000000600082015250565b600061468b601883613777565b915061469682614655565b602082019050919050565b600060208201905081810360008301526146ba8161467e565b9050919050565b7f5061706572206e6f742075706c6f616465640000000000000000000000000000600082015250565b60006146f7601283613777565b9150614702826146c1565b602082019050919050565b60006020820190508181036000830152614726816146ea565b9050919050565b60006040820190506147426000830185613d28565b61474f6020830184613d28565b9392505050565b7f496e76616c696420706170657220494400000000000000000000000000000000600082015250565b600061478c601083613777565b915061479782614756565b602082019050919050565b60006060820190506147b76000830185613d28565b6147c46020830184613d37565b81810360408301526147d58161477f565b90509392505050565b7f4163636573732064656e69656400000000000000000000000000000000000000600082015250565b6000614814600d83613777565b915061481f826147de565b602082019050919050565b600060608201905061483f6000830185613d28565b61484c6020830184613d37565b818103604083015261485d81614807565b90509392505050565b6000602082019050818103600083015261487f81614807565b9050919050565b7f4e487b7100000000000000000000000000000000000000000000000000000000600052602260045260246000fd5b600060028204905060018216806148cd57607f821691505b602082108114156148e1576148e0614886565b5b50919050565b7f416363657373206772616e746564000000000000000000000000000000000000600082015250565b600061491d600e83613777565b9150614928826148e7565b602082019050919050565b60006060820190506149486000830185613d28565b6149556020830184613d37565b818103604083015261496681614910565b90509392505050565b7f55736572206e6f7420666f756e64000000000000000000000000000000000000600082015250565b60006149a5600e83613777565b91506149b08261496f565b602082019050919050565b600060208201905081810360008301526149d481614998565b9050919050565b7f5573657220616c72656164792064656163746976617465640000000000000000600082015250565b6000614a11601883613777565b9150614a1c826149db565b602082019050919050565b60006020820190508181036000830152614a4081614a04565b9050919050565b7f4e487b7100000000000000000000000000000000000000000000000000000000600052601160045260246000fd5b6000614a8182613644565b9150614a8c83613644565b925082821015614a9f57614a9e614a47565b5b828203905092915050565b7f4e487b7100000000000000000000000000000000000000000000000000000000600052603260045260246000fd5b6000614ae482613644565b91507fffffffffffffffffffffffffffffffffffffffffffffffffffffffffffffffff821415614b1757614b16614a47565b5b600182019050919050565b7f4f6e6c79206163746976652074656163686572732063616e20706572666f726d60008201527f207468697320616374696f6e0000000000000000000000000000000000000000602082015250565b6000614b7e602c83613777565b9150614b8982614b22565b604082019050919050565b60006020820190508181036000830152614bad81614b71565b9050919050565b7f4e6f742061737369676e65642074656163686572000000000000000000000000600082015250565b6000614bea601483613777565b9150614bf582614bb4565b602082019050919050565b60006020820190508181036000830152614c1981614bdd565b9050919050565b7f506170657220616c72656164792075706c6f6164656400000000000000000000600082015250565b6000614c56601683613777565b9150614c6182614c20565b602082019050919050565b60006020820190508181036000830152614c8581614c49565b9050919050565b60008190508160005260206000209050919050565b60008154614cae816148b5565b614cb88186613777565b94506001821660008114614cd35760018114614ce557614d18565b60ff1983168652602086019350614d18565b614cee85614c8c565b60005b83811015614d1057815481890152600182019150602081019050614cf1565b808801955050505b50505092915050565b60006040820190508181036000830152614d3b81856137cc565b90508181036020830152614d4f8184614ca1565b90509392505050565b7f5573657220616c72656164792065786973747300000000000000000000000000600082015250565b6000614d8e601383613777565b9150614d9982614d58565b602082019050919050565b60006020820190508181036000830152614dbd81614d81565b9050919050565b60006060820190508181036000830152614dde81866137cc565b9050614ded6020830185613eb2565b614dfa6040830184613d37565b949350505050565b7f4e6f206163746976652061636365737300000000000000000000000000000000600082015250565b6000614e38601083613777565b9150614e4382614e02565b602082019050919050565b60006020820190508181036000830152614e6781614e2b565b9050919050565b7f496e76616c6964206f7220696e61637469766520746561636865720000000000600082015250565b6000614ea4601b83613777565b9150614eaf82614e6e565b602082019050919050565b60006020820190508181036000830152614ed381614e97565b905091905056fea264697066735822122029f4a783aaa4b2fefb8ca489ccae0b950fd497e03ae6749d00d1fe78e1f083f864736f6c634300080b0033",
  "immutableReferences": {},
  "source": "// SPDX-License-Identifier: MIT\r\npragma solidity ^0.8.0;\r\n\r\ncontract QuestionPaperSystem {\r\n    enum PaperStatus {\r\n        REQUESTED,\r\n        UPLOADED,\r\n        VERIFIED\r\n    }\r\n    enum Role {\r\n        Teacher,\r\n        Superintendent,\r\n        Center\r\n    }\r\n\r\n    struct User {\r\n        string name;\r\n        Role role;\r\n        string email;\r\n        string contactNumber;\r\n        bool exists;\r\n        bool isActive;\r\n    }\r\n\r\n    struct Paper {\r\n        address teacher;\r\n        string fileCID;\r\n        string keyCID;\r\n        string ExamId;\r\n        string ExamName;\r\n        string Subject;\r\n        PaperStatus status;\r\n        bool exists;\r\n    }\r\n\r\n    struct Access {\r\n        bool granted;\r\n        uint256 startTime;\r\n        uint256 endTime;\r\n    }\r\n    struct AccessLog {\r\n            address user;\r\n            uint256 paperId;\r\n            bool success;\r\n            string reason;\r\n                uint256 timestamp;\r\n    uint256 blockNumber;\r\n        }\r\n\r\n    // State Variables\r\n    address public Coe;\r\n    mapping(address => User) public users;\r\n    mapping(uint256 => Paper) public papers;\r\n    mapping(uint256 => mapping(address => Access)) public accessControl;\r\n\r\n    uint256 public paperCount;\r\n    address[] private userAddresses;\r\n    AccessLog[] public accessLogs;\r\n\r\n    // Events\r\n    event UserRegistered(\r\n        address indexed user,\r\n        string name,\r\n        Role role,\r\n        bool success\r\n    );\r\n    event UserDeactivated(address indexed user);\r\n    event PaperRequested(uint256 indexed paperId, address indexed teacher);\r\n    event PaperUploaded(\r\n        uint256 indexed paperId,\r\n        address indexed teacher,\r\n        string fileCID,\r\n        string keyCID\r\n    );\r\n    event AccessGranted(\r\n        uint256 indexed paperId,\r\n        address indexed user,\r\n        uint256 startTime,\r\n        uint256 endTime\r\n    );\r\n    event AccessRevoked(uint256 indexed paperId, address indexed user);\r\n    event PaperAccessAttempt(\r\n        address indexed user,\r\n        uint256 paperId,\r\n        bool success,\r\n        string reason\r\n    );\r\n\r\n    // Modifiers\r\n    modifier onlyOwner() {\r\n        require(\r\n            msg.sender == Coe,\r\n            \"Only contract owner can perform this this action\"\r\n        );\r\n        _;\r\n    }\r\n\r\n    modifier onlyTeacher() {\r\n        require(\r\n            users[msg.sender].exists &&\r\n                users[msg.sender].role == Role.Teacher &&\r\n                users[msg.sender].isActive,\r\n            \"Only active teachers can perform this action\"\r\n        );\r\n        _;\r\n    }\r\n\r\n    modifier onlyAuthorized(uint256 _paperId) {\r\n        require(\r\n            msg.sender == Coe ||\r\n                (accessControl[_paperId][msg.sender].granted &&\r\n                    block.timestamp >=\r\n                    accessControl[_paperId][msg.sender].startTime &&\r\n                    block.timestamp <=\r\n                    accessControl[_paperId][msg.sender].endTime),\r\n            \"Access denied\"\r\n        );\r\n        _;\r\n    }\r\n\r\n    // Constructor\r\n    constructor() {\r\n        Coe = msg.sender;\r\n    }\r\n\r\n    // Functions\r\n    function registerUser(\r\n        address _userAddress,\r\n        string memory _name,\r\n        Role _role,\r\n        string memory _email,\r\n        string memory _contactNumber\r\n    ) external onlyOwner {\r\n    if (users[_userAddress].exists) {\r\n        require(!users[_userAddress].isActive, \"User already exists\");\r\n\r\n        // Reactivate the user\r\n        users[_userAddress].isActive = true;\r\n        emit UserRegistered(_userAddress, _name, _role, true);\r\n        return;\r\n    }\r\n        users[_userAddress] = User(\r\n            _name,\r\n            _role,\r\n            _email,\r\n            _contactNumber,\r\n            true,\r\n            true\r\n        );\r\n        userAddresses.push(_userAddress);\r\n        emit UserRegistered(_userAddress, _name, _role, true);\r\n    }\r\n\r\n    function deactivateUser(address _userAddress) external onlyOwner {\r\n        require(users[_userAddress].exists, \"User not found\");\r\n        require(users[_userAddress].isActive, \"User already deactivated\");\r\n        users[_userAddress].isActive = false;\r\n        emit UserDeactivated(_userAddress);\r\n    }\r\n\r\n    function createPaperRequest(\r\n        address _teacher,\r\n        string memory _keyCID,\r\n        string memory _ExamId,\r\n        string memory _ExamName,\r\n        string memory _Subject\r\n    ) external onlyOwner {\r\n        require(\r\n            users[_teacher].exists &&\r\n                users[_teacher].role == Role.Teacher &&\r\n                users[_teacher].isActive,\r\n            \"Invalid or inactive teacher\"\r\n        );\r\n        paperCount++;\r\n        papers[paperCount] = Paper(\r\n            _teacher,\r\n            \"\",\r\n            _keyCID,\r\n            _ExamId,\r\n            _ExamName,\r\n            _Subject,\r\n            PaperStatus.REQUESTED,\r\n            true\r\n        );\r\n        emit PaperRequested(paperCount, _teacher);\r\n    }\r\n\r\n    function uploadPaper(\r\n        uint256 _paperId,\r\n        string memory _fileCID\r\n    ) external onlyTeacher {\r\n        require(papers[_paperId].exists, \"Invalid paper\");\r\n        require(papers[_paperId].teacher == msg.sender, \"Not assigned teacher\");\r\n        require(\r\n            bytes(papers[_paperId].fileCID).length == 0,\r\n            \"Paper already uploaded\"\r\n        );\r\n\r\n        papers[_paperId].fileCID = _fileCID;\r\n        papers[_paperId].status = PaperStatus.UPLOADED;\r\n\r\n        emit PaperUploaded(\r\n            _paperId,\r\n            msg.sender,\r\n            _fileCID,\r\n            papers[_paperId].keyCID\r\n        );\r\n    }\r\n\r\n    function grantAccess(\r\n        uint256 _paperId,\r\n        address _user,\r\n        uint256 _startTime,\r\n        uint256 _endTime\r\n    ) external onlyOwner {\r\n        require(papers[_paperId].exists, \"Invalid paper\");\r\n        require(\r\n            users[_user].exists && users[_user].isActive,\r\n            \"Invalid or inactive user\"\r\n        );\r\n        require(\r\n            papers[_paperId].status == PaperStatus.UPLOADED,\r\n            \"Paper not uploaded\"\r\n        );\r\n\r\n        accessControl[_paperId][_user] = Access(true, _startTime, _endTime);\r\n        emit AccessGranted(_paperId, _user, _startTime, _endTime);\r\n    }\r\n\r\n    function revokeAccess(uint256 _paperId, address _user) external onlyOwner {\r\n        require(accessControl[_paperId][_user].granted, \"No active access\");\r\n        accessControl[_paperId][_user].granted = false;\r\n        emit AccessRevoked(_paperId, _user);\r\n    }\r\n\r\n    function hasAccess(\r\n        uint256 _paperId,\r\n        address _user\r\n    ) external view returns (bool, uint256, uint256) {\r\n         require(papers[_paperId].exists, \"Invalid paper\");\r\n        require(\r\n            users[_user].exists && users[_user].isActive,\r\n            \"Invalid or inactive user\"\r\n        );\r\n         Access memory access = accessControl[_paperId][_user];\r\n    bool valid = access.granted &&\r\n                 block.timestamp >= access.startTime &&\r\n                 block.timestamp <= access.endTime;\r\n    return (valid, access.startTime, access.endTime);\r\n    }\r\n\r\n    // function getPaper(\r\n    //     uint256 _paperId\r\n    // )\r\n    //     external\r\n    //     view\r\n    //     onlyAuthorized(_paperId)\r\n    //     returns (string memory fileCID, string memory keyCID)\r\n    // {\r\n    //     require(papers[_paperId].exists, \"Invalid paper\");\r\n    //     Paper memory paper = papers[_paperId];\r\n    //     return (paper.fileCID, paper.keyCID);\r\n    // }\r\n\r\n    function getPaper(\r\n        uint256 _paperId\r\n    ) external returns (string memory fileCID, string memory keyCID, string memory ExamId, string memory ExamName,string memory Subject, uint8 status) {\r\n      uint256 currentTimestamp = block.timestamp;\r\n      uint256 currentBlock = block.number;\r\n        if (!papers[_paperId].exists) {\r\n            emit PaperAccessAttempt(\r\n                msg.sender,\r\n                _paperId,\r\n                false,\r\n                \"Invalid paper ID\"\r\n            );\r\n            accessLogs.push(AccessLog(msg.sender, _paperId, false, \"Invalid paper\", currentTimestamp, currentBlock));\r\n            revert(\"Invalid paper\");\r\n        }\r\n\r\n        if (\r\n            !(msg.sender == Coe ||\r\n                (accessControl[_paperId][msg.sender].granted &&\r\n                    block.timestamp >=\r\n                    accessControl[_paperId][msg.sender].startTime &&\r\n                    block.timestamp <=\r\n                    accessControl[_paperId][msg.sender].endTime))\r\n        ) {\r\n             accessLogs.push(AccessLog(msg.sender, _paperId, false, \"Access denied\", currentTimestamp, currentBlock));\r\n            emit PaperAccessAttempt(\r\n                msg.sender,\r\n                _paperId,\r\n                false,\r\n                \"Access denied\"\r\n            );\r\n               // Store the log for access denial\r\n            revert(\"Access denied\");\r\n        }\r\n\r\n        Paper memory paper = papers[_paperId];\r\n        emit PaperAccessAttempt(msg.sender, _paperId, true, \"Access granted\");\r\n        accessLogs.push(AccessLog(msg.sender, _paperId, true, \"Access granted\", currentTimestamp, currentBlock));\r\n        return (paper.fileCID, paper.keyCID, paper.ExamId,paper.ExamName, paper.Subject, uint8(paper.status));\r\n    }\r\n\r\n    function getAccessLogs() external view returns (AccessLog[] memory) {\r\n        return accessLogs;\r\n    }\r\n\r\n    function getAllPapers() external view returns (Paper[] memory) {\r\n        Paper[] memory result = new Paper[](paperCount);\r\n        for (uint256 i = 1; i <= paperCount; i++) {\r\n            if (papers[i].exists) {\r\n                result[i - 1] = papers[i];\r\n            }\r\n        }\r\n        return result;\r\n    }\r\n\r\n    function getAllUsers()\r\n        external\r\n        view\r\n        returns (address[] memory, User[] memory)\r\n    {\r\n        uint256 count = userAddresses.length;\r\n        User[] memory result = new User[](count);\r\n        address[] memory addresses = new address[](count);\r\n        for (uint256 i = 0; i < count; i++) {\r\n            addresses[i] = userAddresses[i];\r\n            result[i] = users[userAddresses[i]];\r\n        }\r\n        return (addresses, result);\r\n    }\r\n}\r\n",
  "sourcePath": "D:\\truffle\\contracts\\QuestionPaperSystem.sol",
  "compiler": {
    "name": "solc",
    "version": "0.8.11+commit.d7f03943.Emscripten.clang"
  },
  "schemaVersion": "3.4.16",
  "updatedAt": "2025-04-15T03:10:55.543Z",
  "devdoc": {
    "kind": "dev",
    "methods": {},
    "version": 1
  },
  "userdoc": {
    "kind": "user",
    "methods": {},
    "version": 1
  }
}