{
  "contractName": "QuestionPaperSystem",
  "abi": [
    {
      "inputs": [],
      "stateMutability": "nonpayable",
      "type": "constructor"
    },
    {
      "anonymous": false,
      "inputs": [
        {
          "indexed": true,
          "internalType": "uint256",
          "name": "paperId",
          "type": "uint256"
        },
        {
          "indexed": true,
          "internalType": "address",
          "name": "user",
          "type": "address"
        },
        {
          "indexed": false,
          "internalType": "uint256",
          "name": "startTime",
          "type": "uint256"
        },
        {
          "indexed": false,
          "internalType": "uint256",
          "name": "endTime",
          "type": "uint256"
        }
      ],
      "name": "AccessGranted",
      "type": "event"
    },
    {
      "anonymous": false,
      "inputs": [
        {
          "indexed": true,
          "internalType": "uint256",
          "name": "paperId",
          "type": "uint256"
        },
        {
          "indexed": true,
          "internalType": "address",
          "name": "user",
          "type": "address"
        }
      ],
      "name": "AccessRevoked",
      "type": "event"
    },
    {
      "anonymous": false,
      "inputs": [
        {
          "indexed": true,
          "internalType": "address",
          "name": "user",
          "type": "address"
        },
        {
          "indexed": false,
          "internalType": "uint256",
          "name": "paperId",
          "type": "uint256"
        },
        {
          "indexed": false,
          "internalType": "bool",
          "name": "success",
          "type": "bool"
        },
        {
          "indexed": false,
          "internalType": "string",
          "name": "reason",
          "type": "string"
        }
      ],
      "name": "PaperAccessAttempt",
      "type": "event"
    },
    {
      "anonymous": false,
      "inputs": [
        {
          "indexed": true,
          "internalType": "uint256",
          "name": "paperId",
          "type": "uint256"
        },
        {
          "indexed": true,
          "internalType": "address",
          "name": "teacher",
          "type": "address"
        }
      ],
      "name": "PaperRequested",
      "type": "event"
    },
    {
      "anonymous": false,
      "inputs": [
        {
          "indexed": true,
          "internalType": "uint256",
          "name": "paperId",
          "type": "uint256"
        },
        {
          "indexed": true,
          "internalType": "address",
          "name": "teacher",
          "type": "address"
        },
        {
          "indexed": false,
          "internalType": "string",
          "name": "fileCID",
          "type": "string"
        },
        {
          "indexed": false,
          "internalType": "string",
          "name": "keyCID",
          "type": "string"
        }
      ],
      "name": "PaperUploaded",
      "type": "event"
    },
    {
      "anonymous": false,
      "inputs": [
        {
          "indexed": true,
          "internalType": "address",
          "name": "user",
          "type": "address"
        }
      ],
      "name": "UserDeactivated",
      "type": "event"
    },
    {
      "anonymous": false,
      "inputs": [
        {
          "indexed": true,
          "internalType": "address",
          "name": "user",
          "type": "address"
        },
        {
          "indexed": false,
          "internalType": "string",
          "name": "name",
          "type": "string"
        },
        {
          "indexed": false,
          "internalType": "enum QuestionPaperSystem.Role",
          "name": "role",
          "type": "uint8"
        },
        {
          "indexed": false,
          "internalType": "bool",
          "name": "success",
          "type": "bool"
        }
      ],
      "name": "UserRegistered",
      "type": "event"
    },
    {
      "inputs": [],
      "name": "Coe",
      "outputs": [
        {
          "internalType": "address",
          "name": "",
          "type": "address"
        }
      ],
      "stateMutability": "view",
      "type": "function",
      "constant": true
    },
    {
      "inputs": [
        {
          "internalType": "uint256",
          "name": "",
          "type": "uint256"
        },
        {
          "internalType": "address",
          "name": "",
          "type": "address"
        }
      ],
      "name": "accessControl",
      "outputs": [
        {
          "internalType": "bool",
          "name": "granted",
          "type": "bool"
        },
        {
          "internalType": "uint256",
          "name": "startTime",
          "type": "uint256"
        },
        {
          "internalType": "uint256",
          "name": "endTime",
          "type": "uint256"
        }
      ],
      "stateMutability": "view",
      "type": "function",
      "constant": true
    },
    {
      "inputs": [
        {
          "internalType": "uint256",
          "name": "",
          "type": "uint256"
        }
      ],
      "name": "accessLogs",
      "outputs": [
        {
          "internalType": "address",
          "name": "user",
          "type": "address"
        },
        {
          "internalType": "uint256",
          "name": "paperId",
          "type": "uint256"
        },
        {
          "internalType": "bool",
          "name": "success",
          "type": "bool"
        },
        {
          "internalType": "string",
          "name": "reason",
          "type": "string"
        },
        {
          "internalType": "uint256",
          "name": "timestamp",
          "type": "uint256"
        }
      ],
      "stateMutability": "view",
      "type": "function",
      "constant": true
    },
    {
      "inputs": [],
      "name": "paperCount",
      "outputs": [
        {
          "internalType": "uint256",
          "name": "",
          "type": "uint256"
        }
      ],
      "stateMutability": "view",
      "type": "function",
      "constant": true
    },
    {
      "inputs": [
        {
          "internalType": "uint256",
          "name": "",
          "type": "uint256"
        }
      ],
      "name": "papers",
      "outputs": [
        {
          "internalType": "address",
          "name": "teacher",
          "type": "address"
        },
        {
          "internalType": "string",
          "name": "fileCID",
          "type": "string"
        },
        {
          "internalType": "string",
          "name": "keyCID",
          "type": "string"
        },
        {
          "internalType": "string",
          "name": "ExamId",
          "type": "string"
        },
        {
          "internalType": "string",
          "name": "ExamName",
          "type": "string"
        },
        {
          "internalType": "string",
          "name": "Subject",
          "type": "string"
        },
        {
          "internalType": "enum QuestionPaperSystem.PaperStatus",
          "name": "status",
          "type": "uint8"
        },
        {
          "internalType": "bool",
          "name": "exists",
          "type": "bool"
        }
      ],
      "stateMutability": "view",
      "type": "function",
      "constant": true
    },
    {
      "inputs": [
        {
          "internalType": "address",
          "name": "",
          "type": "address"
        }
      ],
      "name": "users",
      "outputs": [
        {
          "internalType": "string",
          "name": "name",
          "type": "string"
        },
        {
          "internalType": "enum QuestionPaperSystem.Role",
          "name": "role",
          "type": "uint8"
        },
        {
          "internalType": "string",
          "name": "email",
          "type": "string"
        },
        {
          "internalType": "string",
          "name": "contactNumber",
          "type": "string"
        },
        {
          "internalType": "bool",
          "name": "exists",
          "type": "bool"
        },
        {
          "internalType": "bool",
          "name": "isActive",
          "type": "bool"
        }
      ],
      "stateMutability": "view",
      "type": "function",
      "constant": true
    },
    {
      "inputs": [
        {
          "internalType": "address",
          "name": "_userAddress",
          "type": "address"
        },
        {
          "internalType": "string",
          "name": "_name",
          "type": "string"
        },
        {
          "internalType": "enum QuestionPaperSystem.Role",
          "name": "_role",
          "type": "uint8"
        },
        {
          "internalType": "string",
          "name": "_email",
          "type": "string"
        },
        {
          "internalType": "string",
          "name": "_contactNumber",
          "type": "string"
        }
      ],
      "name": "registerUser",
      "outputs": [],
      "stateMutability": "nonpayable",
      "type": "function"
    },
    {
      "inputs": [
        {
          "internalType": "address",
          "name": "_userAddress",
          "type": "address"
        }
      ],
      "name": "deactivateUser",
      "outputs": [],
      "stateMutability": "nonpayable",
      "type": "function"
    },
    {
      "inputs": [
        {
          "internalType": "address",
          "name": "_teacher",
          "type": "address"
        },
        {
          "internalType": "string",
          "name": "_keyCID",
          "type": "string"
        },
        {
          "internalType": "string",
          "name": "_ExamId",
          "type": "string"
        },
        {
          "internalType": "string",
          "name": "_ExamName",
          "type": "string"
        },
        {
          "internalType": "string",
          "name": "_Subject",
          "type": "string"
        }
      ],
      "name": "createPaperRequest",
      "outputs": [],
      "stateMutability": "nonpayable",
      "type": "function"
    },
    {
      "inputs": [
        {
          "internalType": "uint256",
          "name": "_paperId",
          "type": "uint256"
        },
        {
          "internalType": "string",
          "name": "_fileCID",
          "type": "string"
        }
      ],
      "name": "uploadPaper",
      "outputs": [],
      "stateMutability": "nonpayable",
      "type": "function"
    },
    {
      "inputs": [
        {
          "internalType": "uint256",
          "name": "_paperId",
          "type": "uint256"
        },
        {
          "internalType": "address",
          "name": "_user",
          "type": "address"
        },
        {
          "internalType": "uint256",
          "name": "_startTime",
          "type": "uint256"
        },
        {
          "internalType": "uint256",
          "name": "_endTime",
          "type": "uint256"
        }
      ],
      "name": "grantAccess",
      "outputs": [],
      "stateMutability": "nonpayable",
      "type": "function"
    },
    {
      "inputs": [
        {
          "internalType": "uint256",
          "name": "_paperId",
          "type": "uint256"
        },
        {
          "internalType": "address",
          "name": "_user",
          "type": "address"
        }
      ],
      "name": "revokeAccess",
      "outputs": [],
      "stateMutability": "nonpayable",
      "type": "function"
    },
    {
      "inputs": [
        {
          "internalType": "uint256",
          "name": "_paperId",
          "type": "uint256"
        },
        {
          "internalType": "address",
          "name": "_user",
          "type": "address"
        }
      ],
      "name": "hasAccess",
      "outputs": [
        {
          "internalType": "bool",
          "name": "",
          "type": "bool"
        },
        {
          "internalType": "uint256",
          "name": "",
          "type": "uint256"
        },
        {
          "internalType": "uint256",
          "name": "",
          "type": "uint256"
        }
      ],
      "stateMutability": "view",
      "type": "function",
      "constant": true
    },
    {
      "inputs": [
        {
          "internalType": "uint256",
          "name": "_paperId",
          "type": "uint256"
        }
      ],
      "name": "getPaper",
      "outputs": [
        {
          "internalType": "string",
          "name": "fileCID",
          "type": "string"
        },
        {
          "internalType": "string",
          "name": "keyCID",
          "type": "string"
        },
        {
          "internalType": "string",
          "name": "ExamId",
          "type": "string"
        },
        {
          "internalType": "string",
          "name": "ExamName",
          "type": "string"
        },
        {
          "internalType": "string",
          "name": "Subject",
          "type": "string"
        },
        {
          "internalType": "uint8",
          "name": "status",
          "type": "uint8"
        }
      ],
      "stateMutability": "nonpayable",
      "type": "function"
    },
    {
      "inputs": [],
      "name": "getAccessLogs",
      "outputs": [
        {
          "components": [
            {
              "internalType": "address",
              "name": "user",
              "type": "address"
            },
            {
              "internalType": "uint256",
              "name": "paperId",
              "type": "uint256"
            },
            {
              "internalType": "bool",
              "name": "success",
              "type": "bool"
            },
            {
              "internalType": "string",
              "name": "reason",
              "type": "string"
            },
            {
              "internalType": "uint256",
              "name": "timestamp",
              "type": "uint256"
            }
          ],
          "internalType": "struct QuestionPaperSystem.AccessLog[]",
          "name": "",
          "type": "tuple[]"
        }
      ],
      "stateMutability": "view",
      "type": "function",
      "constant": true
    },
    {
      "inputs": [
        {
          "internalType": "uint256",
          "name": "paperId",
          "type": "uint256"
        },
        {
          "internalType": "bool",
          "name": "success",
          "type": "bool"
        },
        {
          "internalType": "string",
          "name": "reason",
          "type": "string"
        },
        {
          "internalType": "uint256",
          "name": "timestamp",
          "type": "uint256"
        }
      ],
      "name": "setAccessLogs",
      "outputs": [],
      "stateMutability": "nonpayable",
      "type": "function"
    },
    {
      "inputs": [],
      "name": "getAllPapers",
      "outputs": [
        {
          "components": [
            {
              "internalType": "address",
              "name": "teacher",
              "type": "address"
            },
            {
              "internalType": "string",
              "name": "fileCID",
              "type": "string"
            },
            {
              "internalType": "string",
              "name": "keyCID",
              "type": "string"
            },
            {
              "internalType": "string",
              "name": "ExamId",
              "type": "string"
            },
            {
              "internalType": "string",
              "name": "ExamName",
              "type": "string"
            },
            {
              "internalType": "string",
              "name": "Subject",
              "type": "string"
            },
            {
              "internalType": "enum QuestionPaperSystem.PaperStatus",
              "name": "status",
              "type": "uint8"
            },
            {
              "internalType": "bool",
              "name": "exists",
              "type": "bool"
            }
          ],
          "internalType": "struct QuestionPaperSystem.Paper[]",
          "name": "",
          "type": "tuple[]"
        }
      ],
      "stateMutability": "view",
      "type": "function",
      "constant": true
    },
    {
      "inputs": [],
      "name": "getAllUsers",
      "outputs": [
        {
          "internalType": "address[]",
          "name": "",
          "type": "address[]"
        },
        {
          "components": [
            {
              "internalType": "string",
              "name": "name",
              "type": "string"
            },
            {
              "internalType": "enum QuestionPaperSystem.Role",
              "name": "role",
              "type": "uint8"
            },
            {
              "internalType": "string",
              "name": "email",
              "type": "string"
            },
            {
              "internalType": "string",
              "name": "contactNumber",
              "type": "string"
            },
            {
              "internalType": "bool",
              "name": "exists",
              "type": "bool"
            },
            {
              "internalType": "bool",
              "name": "isActive",
              "type": "bool"
            }
          ],
          "internalType": "struct QuestionPaperSystem.User[]",
          "name": "",
          "type": "tuple[]"
        }
      ],
      "stateMutability": "view",
      "type": "function",
      "constant": true
    }
  ],
  "bytecode": "0x608060405234801561001057600080fd5b50336000806101000a81548173ffffffffffffffffffffffffffffffffffffffff021916908373ffffffffffffffffffffffffffffffffffffffff160217905550614cdb806100606000396000f3fe608060405234801561001057600080fd5b50600436106101165760003560e01c8063a87430ba116100a2578063d9a5ec1b11610071578063d9a5ec1b14610308578063db979bf814610324578063dd6821b014610342578063e2842d791461035e578063f13f309d1461037d57610116565b8063a87430ba14610269578063bca2aaa41461029e578063ca162214146102ba578063ced14198146102d657610116565b80633f1a39a0116100e95780633f1a39a0146101a65780634f13a86b146101c457806359741ba0146101e05780635e775a2714610214578063a56c2cb91461024b57610116565b80630533f0211461011b57806307993f04146101375780631a47767b1461016c578063381c5c8a14610188575b600080fd5b61013560048036038101906101309190613415565b6103af565b005b610151600480360381019061014c919061347c565b61070d565b6040516101639695949392919061355e565b60405180910390f35b610186600480360381019061018191906135e2565b610e10565b005b61019061105d565b60405161019d919061361e565b60405180910390f35b6101ae611081565b6040516101bb91906138b2565b60405180910390f35b6101de60048036038101906101d99190613a09565b611501565b005b6101fa60048036038101906101f5919061347c565b6118a7565b60405161020b959493929190613a83565b60405180910390f35b61022e6004803603810190610229919061347c565b6119a2565b604051610242989796959493929190613aec565b60405180910390f35b610253611ccc565b6040516102609190613b8d565b60405180910390f35b610283600480360381019061027e91906135e2565b611cd2565b60405161029596959493929190613bf0565b60405180910390f35b6102b860048036038101906102b39190613c92565b611ecd565b005b6102d460048036038101906102cf9190613d3a565b611fdd565b005b6102f060048036038101906102eb9190613e09565b61240e565b6040516102ff93929190613e49565b60405180910390f35b610322600480360381019061031d9190613e09565b61262e565b005b61032c612810565b6040516103399190613fc7565b60405180910390f35b61035c60048036038101906103579190613fe9565b612986565b005b610366612d94565b6040516103749291906142eb565b60405180910390f35b61039760048036038101906103929190613e09565b6131cb565b6040516103a693929190613e49565b60405180910390f35b60008054906101000a900473ffffffffffffffffffffffffffffffffffffffff1673ffffffffffffffffffffffffffffffffffffffff163373ffffffffffffffffffffffffffffffffffffffff161461043d576040517f08c379a000000000000000000000000000000000000000000000000000000000815260040161043490614394565b60405180910390fd5b6002600085815260200190815260200160002060060160019054906101000a900460ff166104a0576040517f08c379a000000000000000000000000000000000000000000000000000000000815260040161049790614400565b60405180910390fd5b600160008473ffffffffffffffffffffffffffffffffffffffff1673ffffffffffffffffffffffffffffffffffffffff16815260200190815260200160002060040160009054906101000a900460ff1680156105485750600160008473ffffffffffffffffffffffffffffffffffffffff1673ffffffffffffffffffffffffffffffffffffffff16815260200190815260200160002060040160019054906101000a900460ff165b610587576040517f08c379a000000000000000000000000000000000000000000000000000000000815260040161057e9061446c565b60405180910390fd5b6001600281111561059b5761059a6136be565b5b6002600086815260200190815260200160002060060160009054906101000a900460ff1660028111156105d1576105d06136be565b5b14610611576040517f08c379a0000000000000000000000000000000000000000000000000000000008152600401610608906144d8565b60405180910390fd5b6040518060600160405280600115158152602001838152602001828152506003600086815260200190815260200160002060008573ffffffffffffffffffffffffffffffffffffffff1673ffffffffffffffffffffffffffffffffffffffff16815260200190815260200160002060008201518160000160006101000a81548160ff02191690831515021790555060208201518160010155604082015181600201559050508273ffffffffffffffffffffffffffffffffffffffff16847f239a3566552fea15efcb7f329e00f63b2bef916135e5ca3e6fcb3279d688e37e84846040516106ff9291906144f8565b60405180910390a350505050565b606080606080606060006002600088815260200190815260200160002060060160019054906101000a900460ff166107cb573373ffffffffffffffffffffffffffffffffffffffff167f3cc27fde9eb0585fd46ef6239b40c18635c9ff3e2d2fefe4d82a5a1f8d66025c88600060405161078892919061456d565b60405180910390a26040517f08c379a00000000000000000000000000000000000000000000000000000000081526004016107c290614400565b60405180910390fd5b60008054906101000a900473ffffffffffffffffffffffffffffffffffffffff1673ffffffffffffffffffffffffffffffffffffffff163373ffffffffffffffffffffffffffffffffffffffff16148061094057506003600088815260200190815260200160002060003373ffffffffffffffffffffffffffffffffffffffff1673ffffffffffffffffffffffffffffffffffffffff16815260200190815260200160002060000160009054906101000a900460ff1680156108e057506003600088815260200190815260200160002060003373ffffffffffffffffffffffffffffffffffffffff1673ffffffffffffffffffffffffffffffffffffffff168152602001908152602001600020600101544210155b801561093f57506003600088815260200190815260200160002060003373ffffffffffffffffffffffffffffffffffffffff1673ffffffffffffffffffffffffffffffffffffffff168152602001908152602001600020600201544211155b5b6109d0573373ffffffffffffffffffffffffffffffffffffffff167f3cc27fde9eb0585fd46ef6239b40c18635c9ff3e2d2fefe4d82a5a1f8d66025c88600060405161098d9291906145f5565b60405180910390a26040517f08c379a00000000000000000000000000000000000000000000000000000000081526004016109c790614631565b60405180910390fd5b600060026000898152602001908152602001600020604051806101000160405290816000820160009054906101000a900473ffffffffffffffffffffffffffffffffffffffff1673ffffffffffffffffffffffffffffffffffffffff1673ffffffffffffffffffffffffffffffffffffffff168152602001600182018054610a5790614680565b80601f0160208091040260200160405190810160405280929190818152602001828054610a8390614680565b8015610ad05780601f10610aa557610100808354040283529160200191610ad0565b820191906000526020600020905b815481529060010190602001808311610ab357829003601f168201915b50505050508152602001600282018054610ae990614680565b80601f0160208091040260200160405190810160405280929190818152602001828054610b1590614680565b8015610b625780601f10610b3757610100808354040283529160200191610b62565b820191906000526020600020905b815481529060010190602001808311610b4557829003601f168201915b50505050508152602001600382018054610b7b90614680565b80601f0160208091040260200160405190810160405280929190818152602001828054610ba790614680565b8015610bf45780601f10610bc957610100808354040283529160200191610bf4565b820191906000526020600020905b815481529060010190602001808311610bd757829003601f168201915b50505050508152602001600482018054610c0d90614680565b80601f0160208091040260200160405190810160405280929190818152602001828054610c3990614680565b8015610c865780601f10610c5b57610100808354040283529160200191610c86565b820191906000526020600020905b815481529060010190602001808311610c6957829003601f168201915b50505050508152602001600582018054610c9f90614680565b80601f0160208091040260200160405190810160405280929190818152602001828054610ccb90614680565b8015610d185780601f10610ced57610100808354040283529160200191610d18565b820191906000526020600020905b815481529060010190602001808311610cfb57829003601f168201915b505050505081526020016006820160009054906101000a900460ff166002811115610d4657610d456136be565b5b6002811115610d5857610d576136be565b5b81526020016006820160019054906101000a900460ff16151515158152505090503373ffffffffffffffffffffffffffffffffffffffff167f3cc27fde9eb0585fd46ef6239b40c18635c9ff3e2d2fefe4d82a5a1f8d66025c896001604051610dc29291906146fe565b60405180910390a280602001518160400151826060015183608001518460a001518560c001516002811115610dfa57610df96136be565b5b9650965096509650965096505091939550919395565b60008054906101000a900473ffffffffffffffffffffffffffffffffffffffff1673ffffffffffffffffffffffffffffffffffffffff163373ffffffffffffffffffffffffffffffffffffffff1614610e9e576040517f08c379a0000000000000000000000000000000000000000000000000000000008152600401610e9590614394565b60405180910390fd5b600160008273ffffffffffffffffffffffffffffffffffffffff1673ffffffffffffffffffffffffffffffffffffffff16815260200190815260200160002060040160009054906101000a900460ff16610f2d576040517f08c379a0000000000000000000000000000000000000000000000000000000008152600401610f2490614786565b60405180910390fd5b600160008273ffffffffffffffffffffffffffffffffffffffff1673ffffffffffffffffffffffffffffffffffffffff16815260200190815260200160002060040160019054906101000a900460ff16610fbc576040517f08c379a0000000000000000000000000000000000000000000000000000000008152600401610fb3906147f2565b60405180910390fd5b6000600160008373ffffffffffffffffffffffffffffffffffffffff1673ffffffffffffffffffffffffffffffffffffffff16815260200190815260200160002060040160016101000a81548160ff0219169083151502179055508073ffffffffffffffffffffffffffffffffffffffff167f5554feec4e87bc4eba14bd62f71df68156f97d26128616fbc27d28e33b35a6b460405160405180910390a250565b60008054906101000a900473ffffffffffffffffffffffffffffffffffffffff1681565b6060600060045467ffffffffffffffff8111156110a1576110a06138de565b5b6040519080825280602002602001820160405280156110da57816020015b6110c761320f565b8152602001906001900390816110bf5790505b5090506000600190505b60045481116114f9576002600082815260200190815260200160002060060160019054906101000a900460ff16156114e65760026000828152602001908152602001600020604051806101000160405290816000820160009054906101000a900473ffffffffffffffffffffffffffffffffffffffff1673ffffffffffffffffffffffffffffffffffffffff1673ffffffffffffffffffffffffffffffffffffffff16815260200160018201805461119b90614680565b80601f01602080910402602001604051908101604052809291908181526020018280546111c790614680565b80156112145780601f106111e957610100808354040283529160200191611214565b820191906000526020600020905b8154815290600101906020018083116111f757829003601f168201915b5050505050815260200160028201805461122d90614680565b80601f016020809104026020016040519081016040528092919081815260200182805461125990614680565b80156112a65780601f1061127b576101008083540402835291602001916112a6565b820191906000526020600020905b81548152906001019060200180831161128957829003601f168201915b505050505081526020016003820180546112bf90614680565b80601f01602080910402602001604051908101604052809291908181526020018280546112eb90614680565b80156113385780601f1061130d57610100808354040283529160200191611338565b820191906000526020600020905b81548152906001019060200180831161131b57829003601f168201915b5050505050815260200160048201805461135190614680565b80601f016020809104026020016040519081016040528092919081815260200182805461137d90614680565b80156113ca5780601f1061139f576101008083540402835291602001916113ca565b820191906000526020600020905b8154815290600101906020018083116113ad57829003601f168201915b505050505081526020016005820180546113e390614680565b80601f016020809104026020016040519081016040528092919081815260200182805461140f90614680565b801561145c5780601f106114315761010080835404028352916020019161145c565b820191906000526020600020905b81548152906001019060200180831161143f57829003601f168201915b505050505081526020016006820160009054906101000a900460ff16600281111561148a576114896136be565b5b600281111561149c5761149b6136be565b5b81526020016006820160019054906101000a900460ff161515151581525050826001836114c99190614841565b815181106114da576114d9614875565b5b60200260200101819052505b80806114f1906148a4565b9150506110e4565b508091505090565b600160003373ffffffffffffffffffffffffffffffffffffffff1673ffffffffffffffffffffffffffffffffffffffff16815260200190815260200160002060040160009054906101000a900460ff1680156115d057506000600281111561156c5761156b6136be565b5b600160003373ffffffffffffffffffffffffffffffffffffffff1673ffffffffffffffffffffffffffffffffffffffff16815260200190815260200160002060010160009054906101000a900460ff1660028111156115ce576115cd6136be565b5b145b80156116285750600160003373ffffffffffffffffffffffffffffffffffffffff1673ffffffffffffffffffffffffffffffffffffffff16815260200190815260200160002060040160019054906101000a900460ff165b611667576040517f08c379a000000000000000000000000000000000000000000000000000000000815260040161165e9061495f565b60405180910390fd5b6002600083815260200190815260200160002060060160019054906101000a900460ff166116ca576040517f08c379a00000000000000000000000000000000000000000000000000000000081526004016116c190614400565b60405180910390fd5b3373ffffffffffffffffffffffffffffffffffffffff166002600084815260200190815260200160002060000160009054906101000a900473ffffffffffffffffffffffffffffffffffffffff1673ffffffffffffffffffffffffffffffffffffffff161461176e576040517f08c379a0000000000000000000000000000000000000000000000000000000008152600401611765906149cb565b60405180910390fd5b600060026000848152602001908152602001600020600101805461179190614680565b9050146117d3576040517f08c379a00000000000000000000000000000000000000000000000000000000081526004016117ca90614a37565b60405180910390fd5b806002600084815260200190815260200160002060010190805190602001906117fd92919061327e565b5060016002600084815260200190815260200160002060060160006101000a81548160ff02191690836002811115611838576118376136be565b5b02179055503373ffffffffffffffffffffffffffffffffffffffff16827f356d2993db12c6b0585c873fff9e18a6b9821484e9289f092a4609e12f30b3e0836002600087815260200190815260200160002060020160405161189b929190614aec565b60405180910390a35050565b600681815481106118b757600080fd5b90600052602060002090600502016000915090508060000160009054906101000a900473ffffffffffffffffffffffffffffffffffffffff16908060010154908060020160009054906101000a900460ff169080600301805461191990614680565b80601f016020809104026020016040519081016040528092919081815260200182805461194590614680565b80156119925780601f1061196757610100808354040283529160200191611992565b820191906000526020600020905b81548152906001019060200180831161197557829003601f168201915b5050505050908060040154905085565b60026020528060005260406000206000915090508060000160009054906101000a900473ffffffffffffffffffffffffffffffffffffffff16908060010180546119eb90614680565b80601f0160208091040260200160405190810160405280929190818152602001828054611a1790614680565b8015611a645780601f10611a3957610100808354040283529160200191611a64565b820191906000526020600020905b815481529060010190602001808311611a4757829003601f168201915b505050505090806002018054611a7990614680565b80601f0160208091040260200160405190810160405280929190818152602001828054611aa590614680565b8015611af25780601f10611ac757610100808354040283529160200191611af2565b820191906000526020600020905b815481529060010190602001808311611ad557829003601f168201915b505050505090806003018054611b0790614680565b80601f0160208091040260200160405190810160405280929190818152602001828054611b3390614680565b8015611b805780601f10611b5557610100808354040283529160200191611b80565b820191906000526020600020905b815481529060010190602001808311611b6357829003601f168201915b505050505090806004018054611b9590614680565b80601f0160208091040260200160405190810160405280929190818152602001828054611bc190614680565b8015611c0e5780601f10611be357610100808354040283529160200191611c0e565b820191906000526020600020905b815481529060010190602001808311611bf157829003601f168201915b505050505090806005018054611c2390614680565b80601f0160208091040260200160405190810160405280929190818152602001828054611c4f90614680565b8015611c9c5780601f10611c7157610100808354040283529160200191611c9c565b820191906000526020600020905b815481529060010190602001808311611c7f57829003601f168201915b5050505050908060060160009054906101000a900460ff16908060060160019054906101000a900460ff16905088565b60045481565b6001602052806000526040600020600091509050806000018054611cf590614680565b80601f0160208091040260200160405190810160405280929190818152602001828054611d2190614680565b8015611d6e5780601f10611d4357610100808354040283529160200191611d6e565b820191906000526020600020905b815481529060010190602001808311611d5157829003601f168201915b5050505050908060010160009054906101000a900460ff1690806002018054611d9690614680565b80601f0160208091040260200160405190810160405280929190818152602001828054611dc290614680565b8015611e0f5780601f10611de457610100808354040283529160200191611e0f565b820191906000526020600020905b815481529060010190602001808311611df257829003601f168201915b505050505090806003018054611e2490614680565b80601f0160208091040260200160405190810160405280929190818152602001828054611e5090614680565b8015611e9d5780601f10611e7257610100808354040283529160200191611e9d565b820191906000526020600020905b815481529060010190602001808311611e8057829003601f168201915b5050505050908060040160009054906101000a900460ff16908060040160019054906101000a900460ff16905086565b60006040518060a001604052803373ffffffffffffffffffffffffffffffffffffffff1681526020018681526020018515158152602001848152602001838152509050600681908060018154018082558091505060019003906000526020600020906005020160009091909190915060008201518160000160006101000a81548173ffffffffffffffffffffffffffffffffffffffff021916908373ffffffffffffffffffffffffffffffffffffffff1602179055506020820151816001015560408201518160020160006101000a81548160ff0219169083151502179055506060820151816003019080519060200190611fc992919061327e565b506080820151816004015550505050505050565b60008054906101000a900473ffffffffffffffffffffffffffffffffffffffff1673ffffffffffffffffffffffffffffffffffffffff163373ffffffffffffffffffffffffffffffffffffffff161461206b576040517f08c379a000000000000000000000000000000000000000000000000000000000815260040161206290614394565b60405180910390fd5b600160008673ffffffffffffffffffffffffffffffffffffffff1673ffffffffffffffffffffffffffffffffffffffff16815260200190815260200160002060040160009054906101000a900460ff161561220257600160008673ffffffffffffffffffffffffffffffffffffffff1673ffffffffffffffffffffffffffffffffffffffff16815260200190815260200160002060040160019054906101000a900460ff1615612150576040517f08c379a000000000000000000000000000000000000000000000000000000000815260040161214790614b6f565b60405180910390fd5b60018060008773ffffffffffffffffffffffffffffffffffffffff1673ffffffffffffffffffffffffffffffffffffffff16815260200190815260200160002060040160016101000a81548160ff0219169083151502179055508473ffffffffffffffffffffffffffffffffffffffff167f72d8d77f9816e8c83bcabddaf5663aec70ae11649d0f4e7f57cf25dc5e2f9a08858560016040516121f593929190614b8f565b60405180910390a2612407565b6040518060c00160405280858152602001846002811115612226576122256136be565b5b815260200183815260200182815260200160011515815260200160011515815250600160008773ffffffffffffffffffffffffffffffffffffffff1673ffffffffffffffffffffffffffffffffffffffff16815260200190815260200160002060008201518160000190805190602001906122a292919061327e565b5060208201518160010160006101000a81548160ff021916908360028111156122ce576122cd6136be565b5b021790555060408201518160020190805190602001906122ef92919061327e565b50606082015181600301908051906020019061230c92919061327e565b5060808201518160040160006101000a81548160ff02191690831515021790555060a08201518160040160016101000a81548160ff0219169083151502179055509050506005859080600181540180825580915050600190039060005260206000200160009091909190916101000a81548173ffffffffffffffffffffffffffffffffffffffff021916908373ffffffffffffffffffffffffffffffffffffffff1602179055508473ffffffffffffffffffffffffffffffffffffffff167f72d8d77f9816e8c83bcabddaf5663aec70ae11649d0f4e7f57cf25dc5e2f9a08858560016040516123fe93929190614b8f565b60405180910390a25b5050505050565b60008060006002600086815260200190815260200160002060060160019054906101000a900460ff16612476576040517f08c379a000000000000000000000000000000000000000000000000000000000815260040161246d90614400565b60405180910390fd5b600160008573ffffffffffffffffffffffffffffffffffffffff1673ffffffffffffffffffffffffffffffffffffffff16815260200190815260200160002060040160009054906101000a900460ff16801561251e5750600160008573ffffffffffffffffffffffffffffffffffffffff1673ffffffffffffffffffffffffffffffffffffffff16815260200190815260200160002060040160019054906101000a900460ff165b61255d576040517f08c379a00000000000000000000000000000000000000000000000000000000081526004016125549061446c565b60405180910390fd5b60006003600087815260200190815260200160002060008673ffffffffffffffffffffffffffffffffffffffff1673ffffffffffffffffffffffffffffffffffffffff1681526020019081526020016000206040518060600160405290816000820160009054906101000a900460ff16151515158152602001600182015481526020016002820154815250509050600081600001518015612602575081602001514210155b8015612612575081604001514211155b9050808260200151836040015194509450945050509250925092565b60008054906101000a900473ffffffffffffffffffffffffffffffffffffffff1673ffffffffffffffffffffffffffffffffffffffff163373ffffffffffffffffffffffffffffffffffffffff16146126bc576040517f08c379a00000000000000000000000000000000000000000000000000000000081526004016126b390614394565b60405180910390fd5b6003600083815260200190815260200160002060008273ffffffffffffffffffffffffffffffffffffffff1673ffffffffffffffffffffffffffffffffffffffff16815260200190815260200160002060000160009054906101000a900460ff1661275c576040517f08c379a000000000000000000000000000000000000000000000000000000000815260040161275390614c19565b60405180910390fd5b60006003600084815260200190815260200160002060008373ffffffffffffffffffffffffffffffffffffffff1673ffffffffffffffffffffffffffffffffffffffff16815260200190815260200160002060000160006101000a81548160ff0219169083151502179055508073ffffffffffffffffffffffffffffffffffffffff16827f125883b94692baebecad9f111ed97ffa626523bbbadc6b0ef85ee1b56b9e52d560405160405180910390a35050565b60606006805480602002602001604051908101604052809291908181526020016000905b8282101561297d57838290600052602060002090600502016040518060a00160405290816000820160009054906101000a900473ffffffffffffffffffffffffffffffffffffffff1673ffffffffffffffffffffffffffffffffffffffff1673ffffffffffffffffffffffffffffffffffffffff168152602001600182015481526020016002820160009054906101000a900460ff161515151581526020016003820180546128e290614680565b80601f016020809104026020016040519081016040528092919081815260200182805461290e90614680565b801561295b5780601f106129305761010080835404028352916020019161295b565b820191906000526020600020905b81548152906001019060200180831161293e57829003601f168201915b5050505050815260200160048201548152505081526020019060010190612834565b50505050905090565b60008054906101000a900473ffffffffffffffffffffffffffffffffffffffff1673ffffffffffffffffffffffffffffffffffffffff163373ffffffffffffffffffffffffffffffffffffffff1614612a14576040517f08c379a0000000000000000000000000000000000000000000000000000000008152600401612a0b90614394565b60405180910390fd5b600160008673ffffffffffffffffffffffffffffffffffffffff1673ffffffffffffffffffffffffffffffffffffffff16815260200190815260200160002060040160009054906101000a900460ff168015612ae3575060006002811115612a7f57612a7e6136be565b5b600160008773ffffffffffffffffffffffffffffffffffffffff1673ffffffffffffffffffffffffffffffffffffffff16815260200190815260200160002060010160009054906101000a900460ff166002811115612ae157612ae06136be565b5b145b8015612b3b5750600160008673ffffffffffffffffffffffffffffffffffffffff1673ffffffffffffffffffffffffffffffffffffffff16815260200190815260200160002060040160019054906101000a900460ff165b612b7a576040517f08c379a0000000000000000000000000000000000000000000000000000000008152600401612b7190614c85565b60405180910390fd5b60046000815480929190612b8d906148a4565b91905055506040518061010001604052808673ffffffffffffffffffffffffffffffffffffffff16815260200160405180602001604052806000815250815260200185815260200184815260200183815260200182815260200160006002811115612bfb57612bfa6136be565b5b81526020016001151581525060026000600454815260200190815260200160002060008201518160000160006101000a81548173ffffffffffffffffffffffffffffffffffffffff021916908373ffffffffffffffffffffffffffffffffffffffff1602179055506020820151816001019080519060200190612c7f92919061327e565b506040820151816002019080519060200190612c9c92919061327e565b506060820151816003019080519060200190612cb992919061327e565b506080820151816004019080519060200190612cd692919061327e565b5060a0820151816005019080519060200190612cf392919061327e565b5060c08201518160060160006101000a81548160ff02191690836002811115612d1f57612d1e6136be565b5b021790555060e08201518160060160016101000a81548160ff0219169083151502179055509050508473ffffffffffffffffffffffffffffffffffffffff166004547f6454790994d9c0b5b58a3d9e16e4a9a6016714c7a639fa461afa0ce43be9591c60405160405180910390a35050505050565b6060806000600580549050905060008167ffffffffffffffff811115612dbd57612dbc6138de565b5b604051908082528060200260200182016040528015612df657816020015b612de3613304565b815260200190600190039081612ddb5790505b50905060008267ffffffffffffffff811115612e1557612e146138de565b5b604051908082528060200260200182016040528015612e435781602001602082028036833780820191505090505b50905060005b838110156131bd5760058181548110612e6557612e64614875565b5b9060005260206000200160009054906101000a900473ffffffffffffffffffffffffffffffffffffffff16828281518110612ea357612ea2614875565b5b602002602001019073ffffffffffffffffffffffffffffffffffffffff16908173ffffffffffffffffffffffffffffffffffffffff16815250506001600060058381548110612ef557612ef4614875565b5b9060005260206000200160009054906101000a900473ffffffffffffffffffffffffffffffffffffffff1673ffffffffffffffffffffffffffffffffffffffff1673ffffffffffffffffffffffffffffffffffffffff1681526020019081526020016000206040518060c0016040529081600082018054612f7590614680565b80601f0160208091040260200160405190810160405280929190818152602001828054612fa190614680565b8015612fee5780601f10612fc357610100808354040283529160200191612fee565b820191906000526020600020905b815481529060010190602001808311612fd157829003601f168201915b505050505081526020016001820160009054906101000a900460ff16600281111561301c5761301b6136be565b5b600281111561302e5761302d6136be565b5b815260200160028201805461304290614680565b80601f016020809104026020016040519081016040528092919081815260200182805461306e90614680565b80156130bb5780601f10613090576101008083540402835291602001916130bb565b820191906000526020600020905b81548152906001019060200180831161309e57829003601f168201915b505050505081526020016003820180546130d490614680565b80601f016020809104026020016040519081016040528092919081815260200182805461310090614680565b801561314d5780601f106131225761010080835404028352916020019161314d565b820191906000526020600020905b81548152906001019060200180831161313057829003601f168201915b505050505081526020016004820160009054906101000a900460ff161515151581526020016004820160019054906101000a900460ff16151515158152505083828151811061319f5761319e614875565b5b602002602001018190525080806131b5906148a4565b915050612e49565b508082945094505050509091565b6003602052816000526040600020602052806000526040600020600091509150508060000160009054906101000a900460ff16908060010154908060020154905083565b604051806101000160405280600073ffffffffffffffffffffffffffffffffffffffff16815260200160608152602001606081526020016060815260200160608152602001606081526020016000600281111561326f5761326e6136be565b5b81526020016000151581525090565b82805461328a90614680565b90600052602060002090601f0160209004810192826132ac57600085556132f3565b82601f106132c557805160ff19168380011785556132f3565b828001600101855582156132f3579182015b828111156132f25782518255916020019190600101906132d7565b5b5090506133009190613350565b5090565b6040518060c00160405280606081526020016000600281111561332a576133296136be565b5b815260200160608152602001606081526020016000151581526020016000151581525090565b5b80821115613369576000816000905550600101613351565b5090565b6000604051905090565b600080fd5b600080fd5b6000819050919050565b61339481613381565b811461339f57600080fd5b50565b6000813590506133b18161338b565b92915050565b600073ffffffffffffffffffffffffffffffffffffffff82169050919050565b60006133e2826133b7565b9050919050565b6133f2816133d7565b81146133fd57600080fd5b50565b60008135905061340f816133e9565b92915050565b6000806000806080858703121561342f5761342e613377565b5b600061343d878288016133a2565b945050602061344e87828801613400565b935050604061345f878288016133a2565b9250506060613470878288016133a2565b91505092959194509250565b60006020828403121561349257613491613377565b5b60006134a0848285016133a2565b91505092915050565b600081519050919050565b600082825260208201905092915050565b60005b838110156134e35780820151818401526020810190506134c8565b838111156134f2576000848401525b50505050565b6000601f19601f8301169050919050565b6000613514826134a9565b61351e81856134b4565b935061352e8185602086016134c5565b613537816134f8565b840191505092915050565b600060ff82169050919050565b61355881613542565b82525050565b600060c08201905081810360008301526135788189613509565b9050818103602083015261358c8188613509565b905081810360408301526135a08187613509565b905081810360608301526135b48186613509565b905081810360808301526135c88185613509565b90506135d760a083018461354f565b979650505050505050565b6000602082840312156135f8576135f7613377565b5b600061360684828501613400565b91505092915050565b613618816133d7565b82525050565b6000602082019050613633600083018461360f565b92915050565b600081519050919050565b600082825260208201905092915050565b6000819050602082019050919050565b61366e816133d7565b82525050565b600082825260208201905092915050565b6000613690826134a9565b61369a8185613674565b93506136aa8185602086016134c5565b6136b3816134f8565b840191505092915050565b7f4e487b7100000000000000000000000000000000000000000000000000000000600052602160045260246000fd5b600381106136fe576136fd6136be565b5b50565b600081905061370f826136ed565b919050565b600061371f82613701565b9050919050565b61372f81613714565b82525050565b60008115159050919050565b61374a81613735565b82525050565b6000610100830160008301516137696000860182613665565b50602083015184820360208601526137818282613685565b9150506040830151848203604086015261379b8282613685565b915050606083015184820360608601526137b58282613685565b915050608083015184820360808601526137cf8282613685565b91505060a083015184820360a08601526137e98282613685565b91505060c08301516137fe60c0860182613726565b5060e083015161381160e0860182613741565b508091505092915050565b60006138288383613750565b905092915050565b6000602082019050919050565b600061384882613639565b6138528185613644565b93508360208202850161386485613655565b8060005b858110156138a05784840389528151613881858261381c565b945061388c83613830565b925060208a01995050600181019050613868565b50829750879550505050505092915050565b600060208201905081810360008301526138cc818461383d565b905092915050565b600080fd5b600080fd5b7f4e487b7100000000000000000000000000000000000000000000000000000000600052604160045260246000fd5b613916826134f8565b810181811067ffffffffffffffff82111715613935576139346138de565b5b80604052505050565b600061394861336d565b9050613954828261390d565b919050565b600067ffffffffffffffff821115613974576139736138de565b5b61397d826134f8565b9050602081019050919050565b82818337600083830152505050565b60006139ac6139a784613959565b61393e565b9050828152602081018484840111156139c8576139c76138d9565b5b6139d384828561398a565b509392505050565b600082601f8301126139f0576139ef6138d4565b5b8135613a00848260208601613999565b91505092915050565b60008060408385031215613a2057613a1f613377565b5b6000613a2e858286016133a2565b925050602083013567ffffffffffffffff811115613a4f57613a4e61337c565b5b613a5b858286016139db565b9150509250929050565b613a6e81613381565b82525050565b613a7d81613735565b82525050565b600060a082019050613a98600083018861360f565b613aa56020830187613a65565b613ab26040830186613a74565b8181036060830152613ac48185613509565b9050613ad36080830184613a65565b9695505050505050565b613ae681613714565b82525050565b600061010082019050613b02600083018b61360f565b8181036020830152613b14818a613509565b90508181036040830152613b288189613509565b90508181036060830152613b3c8188613509565b90508181036080830152613b508187613509565b905081810360a0830152613b648186613509565b9050613b7360c0830185613add565b613b8060e0830184613a74565b9998505050505050505050565b6000602082019050613ba26000830184613a65565b92915050565b60038110613bb957613bb86136be565b5b50565b6000819050613bca82613ba8565b919050565b6000613bda82613bbc565b9050919050565b613bea81613bcf565b82525050565b600060c0820190508181036000830152613c0a8189613509565b9050613c196020830188613be1565b8181036040830152613c2b8187613509565b90508181036060830152613c3f8186613509565b9050613c4e6080830185613a74565b613c5b60a0830184613a74565b979650505050505050565b613c6f81613735565b8114613c7a57600080fd5b50565b600081359050613c8c81613c66565b92915050565b60008060008060808587031215613cac57613cab613377565b5b6000613cba878288016133a2565b9450506020613ccb87828801613c7d565b935050604085013567ffffffffffffffff811115613cec57613ceb61337c565b5b613cf8878288016139db565b9250506060613d09878288016133a2565b91505092959194509250565b60038110613d2257600080fd5b50565b600081359050613d3481613d15565b92915050565b600080600080600060a08688031215613d5657613d55613377565b5b6000613d6488828901613400565b955050602086013567ffffffffffffffff811115613d8557613d8461337c565b5b613d91888289016139db565b9450506040613da288828901613d25565b935050606086013567ffffffffffffffff811115613dc357613dc261337c565b5b613dcf888289016139db565b925050608086013567ffffffffffffffff811115613df057613def61337c565b5b613dfc888289016139db565b9150509295509295909350565b60008060408385031215613e2057613e1f613377565b5b6000613e2e858286016133a2565b9250506020613e3f85828601613400565b9150509250929050565b6000606082019050613e5e6000830186613a74565b613e6b6020830185613a65565b613e786040830184613a65565b949350505050565b600081519050919050565b600082825260208201905092915050565b6000819050602082019050919050565b613eb581613381565b82525050565b600060a083016000830151613ed36000860182613665565b506020830151613ee66020860182613eac565b506040830151613ef96040860182613741565b5060608301518482036060860152613f118282613685565b9150506080830151613f266080860182613eac565b508091505092915050565b6000613f3d8383613ebb565b905092915050565b6000602082019050919050565b6000613f5d82613e80565b613f678185613e8b565b935083602082028501613f7985613e9c565b8060005b85811015613fb55784840389528151613f968582613f31565b9450613fa183613f45565b925060208a01995050600181019050613f7d565b50829750879550505050505092915050565b60006020820190508181036000830152613fe18184613f52565b905092915050565b600080600080600060a0868803121561400557614004613377565b5b600061401388828901613400565b955050602086013567ffffffffffffffff8111156140345761403361337c565b5b614040888289016139db565b945050604086013567ffffffffffffffff8111156140615761406061337c565b5b61406d888289016139db565b935050606086013567ffffffffffffffff81111561408e5761408d61337c565b5b61409a888289016139db565b925050608086013567ffffffffffffffff8111156140bb576140ba61337c565b5b6140c7888289016139db565b9150509295509295909350565b600081519050919050565b600082825260208201905092915050565b6000819050602082019050919050565b600061410c8383613665565b60208301905092915050565b6000602082019050919050565b6000614130826140d4565b61413a81856140df565b9350614145836140f0565b8060005b8381101561417657815161415d8882614100565b975061416883614118565b925050600181019050614149565b5085935050505092915050565b600081519050919050565b600082825260208201905092915050565b6000819050602082019050919050565b6141b881613bcf565b82525050565b600060c08301600083015184820360008601526141db8282613685565b91505060208301516141f060208601826141af565b50604083015184820360408601526142088282613685565b915050606083015184820360608601526142228282613685565b91505060808301516142376080860182613741565b5060a083015161424a60a0860182613741565b508091505092915050565b600061426183836141be565b905092915050565b6000602082019050919050565b600061428182614183565b61428b818561418e565b93508360208202850161429d8561419f565b8060005b858110156142d957848403895281516142ba8582614255565b94506142c583614269565b925060208a019950506001810190506142a1565b50829750879550505050505092915050565b600060408201905081810360008301526143058185614125565b905081810360208301526143198184614276565b90509392505050565b7f4f6e6c7920636f6e7472616374206f776e65722063616e20706572666f726d2060008201527f74686973207468697320616374696f6e00000000000000000000000000000000602082015250565b600061437e6030836134b4565b915061438982614322565b604082019050919050565b600060208201905081810360008301526143ad81614371565b9050919050565b7f496e76616c696420706170657200000000000000000000000000000000000000600082015250565b60006143ea600d836134b4565b91506143f5826143b4565b602082019050919050565b60006020820190508181036000830152614419816143dd565b9050919050565b7f496e76616c6964206f7220696e61637469766520757365720000000000000000600082015250565b60006144566018836134b4565b915061446182614420565b602082019050919050565b6000602082019050818103600083015261448581614449565b9050919050565b7f5061706572206e6f742075706c6f616465640000000000000000000000000000600082015250565b60006144c26012836134b4565b91506144cd8261448c565b602082019050919050565b600060208201905081810360008301526144f1816144b5565b9050919050565b600060408201905061450d6000830185613a65565b61451a6020830184613a65565b9392505050565b7f496e76616c696420706170657220494400000000000000000000000000000000600082015250565b60006145576010836134b4565b915061456282614521565b602082019050919050565b60006060820190506145826000830185613a65565b61458f6020830184613a74565b81810360408301526145a08161454a565b90509392505050565b7f4163636573732064656e69656400000000000000000000000000000000000000600082015250565b60006145df600d836134b4565b91506145ea826145a9565b602082019050919050565b600060608201905061460a6000830185613a65565b6146176020830184613a74565b8181036040830152614628816145d2565b90509392505050565b6000602082019050818103600083015261464a816145d2565b9050919050565b7f4e487b7100000000000000000000000000000000000000000000000000000000600052602260045260246000fd5b6000600282049050600182168061469857607f821691505b602082108114156146ac576146ab614651565b5b50919050565b7f416363657373206772616e746564000000000000000000000000000000000000600082015250565b60006146e8600e836134b4565b91506146f3826146b2565b602082019050919050565b60006060820190506147136000830185613a65565b6147206020830184613a74565b8181036040830152614731816146db565b90509392505050565b7f55736572206e6f7420666f756e64000000000000000000000000000000000000600082015250565b6000614770600e836134b4565b915061477b8261473a565b602082019050919050565b6000602082019050818103600083015261479f81614763565b9050919050565b7f5573657220616c72656164792064656163746976617465640000000000000000600082015250565b60006147dc6018836134b4565b91506147e7826147a6565b602082019050919050565b6000602082019050818103600083015261480b816147cf565b9050919050565b7f4e487b7100000000000000000000000000000000000000000000000000000000600052601160045260246000fd5b600061484c82613381565b915061485783613381565b92508282101561486a57614869614812565b5b828203905092915050565b7f4e487b7100000000000000000000000000000000000000000000000000000000600052603260045260246000fd5b60006148af82613381565b91507fffffffffffffffffffffffffffffffffffffffffffffffffffffffffffffffff8214156148e2576148e1614812565b5b600182019050919050565b7f4f6e6c79206163746976652074656163686572732063616e20706572666f726d60008201527f207468697320616374696f6e0000000000000000000000000000000000000000602082015250565b6000614949602c836134b4565b9150614954826148ed565b604082019050919050565b600060208201905081810360008301526149788161493c565b9050919050565b7f4e6f742061737369676e65642074656163686572000000000000000000000000600082015250565b60006149b56014836134b4565b91506149c08261497f565b602082019050919050565b600060208201905081810360008301526149e4816149a8565b9050919050565b7f506170657220616c72656164792075706c6f6164656400000000000000000000600082015250565b6000614a216016836134b4565b9150614a2c826149eb565b602082019050919050565b60006020820190508181036000830152614a5081614a14565b9050919050565b60008190508160005260206000209050919050565b60008154614a7981614680565b614a8381866134b4565b94506001821660008114614a9e5760018114614ab057614ae3565b60ff1983168652602086019350614ae3565b614ab985614a57565b60005b83811015614adb57815481890152600182019150602081019050614abc565b808801955050505b50505092915050565b60006040820190508181036000830152614b068185613509565b90508181036020830152614b1a8184614a6c565b90509392505050565b7f5573657220616c72656164792065786973747300000000000000000000000000600082015250565b6000614b596013836134b4565b9150614b6482614b23565b602082019050919050565b60006020820190508181036000830152614b8881614b4c565b9050919050565b60006060820190508181036000830152614ba98186613509565b9050614bb86020830185613be1565b614bc56040830184613a74565b949350505050565b7f4e6f206163746976652061636365737300000000000000000000000000000000600082015250565b6000614c036010836134b4565b9150614c0e82614bcd565b602082019050919050565b60006020820190508181036000830152614c3281614bf6565b9050919050565b7f496e76616c6964206f7220696e61637469766520746561636865720000000000600082015250565b6000614c6f601b836134b4565b9150614c7a82614c39565b602082019050919050565b60006020820190508181036000830152614c9e81614c62565b905091905056fea2646970667358221220fd9ddad92b53efdda45a9ce098dcd7b72d23ceae3dd4260837292f0b0c567c7364736f6c634300080b0033",
  "immutableReferences": {},
  "source": "// SPDX-License-Identifier: MIT\r\npragma solidity ^0.8.0;\r\n\r\ncontract QuestionPaperSystem {\r\n    enum PaperStatus {\r\n        REQUESTED,\r\n        UPLOADED,\r\n        VERIFIED\r\n    }\r\n    enum Role {\r\n        Teacher,\r\n        Superintendent,\r\n        Center\r\n    }\r\n\r\n    struct User {\r\n        string name;\r\n        Role role;\r\n        string email;\r\n        string contactNumber;\r\n        bool exists;\r\n        bool isActive;\r\n    }\r\n\r\n    struct Paper {\r\n        address teacher;\r\n        string fileCID;\r\n        string keyCID;\r\n        string ExamId;\r\n        string ExamName;\r\n        string Subject;\r\n        PaperStatus status;\r\n        bool exists;\r\n    }\r\n\r\n    struct Access {\r\n        bool granted;\r\n        uint256 startTime;\r\n        uint256 endTime;\r\n    }\r\n    struct AccessLog {\r\n            address user;\r\n            uint256 paperId;\r\n            bool success;\r\n            string reason;\r\n            uint256 timestamp;\r\n        }\r\n\r\n    // State Variables\r\n    address public Coe;\r\n    mapping(address => User) public users;\r\n    mapping(uint256 => Paper) public papers;\r\n    mapping(uint256 => mapping(address => Access)) public accessControl;\r\n\r\n    uint256 public paperCount;\r\n    address[] private userAddresses;\r\n    AccessLog[] public accessLogs;\r\n\r\n    // Events\r\n    event UserRegistered(\r\n        address indexed user,\r\n        string name,\r\n        Role role,\r\n        bool success\r\n    );\r\n    event UserDeactivated(address indexed user);\r\n    event PaperRequested(uint256 indexed paperId, address indexed teacher);\r\n    event PaperUploaded(\r\n        uint256 indexed paperId,\r\n        address indexed teacher,\r\n        string fileCID,\r\n        string keyCID\r\n    );\r\n    event AccessGranted(\r\n        uint256 indexed paperId,\r\n        address indexed user,\r\n        uint256 startTime,\r\n        uint256 endTime\r\n    );\r\n    event AccessRevoked(uint256 indexed paperId, address indexed user);\r\n    event PaperAccessAttempt(\r\n        address indexed user,\r\n        uint256 paperId,\r\n        bool success,\r\n        string reason\r\n    );\r\n\r\n    // Modifiers\r\n    modifier onlyOwner() {\r\n        require(\r\n            msg.sender == Coe,\r\n            \"Only contract owner can perform this this action\"\r\n        );\r\n        _;\r\n    }\r\n\r\n    modifier onlyTeacher() {\r\n        require(\r\n            users[msg.sender].exists &&\r\n                users[msg.sender].role == Role.Teacher &&\r\n                users[msg.sender].isActive,\r\n            \"Only active teachers can perform this action\"\r\n        );\r\n        _;\r\n    }\r\n\r\n    modifier onlyAuthorized(uint256 _paperId) {\r\n        require(\r\n            msg.sender == Coe ||\r\n                (accessControl[_paperId][msg.sender].granted &&\r\n                    block.timestamp >=\r\n                    accessControl[_paperId][msg.sender].startTime &&\r\n                    block.timestamp <=\r\n                    accessControl[_paperId][msg.sender].endTime),\r\n            \"Access denied\"\r\n        );\r\n        _;\r\n    }\r\n\r\n    // Constructor\r\n    constructor() {\r\n        Coe = msg.sender;\r\n    }\r\n\r\n    // Functions\r\n    function registerUser(\r\n        address _userAddress,\r\n        string memory _name,\r\n        Role _role,\r\n        string memory _email,\r\n        string memory _contactNumber\r\n    ) external onlyOwner {\r\n    if (users[_userAddress].exists) {\r\n        require(!users[_userAddress].isActive, \"User already exists\");\r\n\r\n        // Reactivate the user\r\n        users[_userAddress].isActive = true;\r\n        emit UserRegistered(_userAddress, _name, _role, true);\r\n        return;\r\n    }\r\n        users[_userAddress] = User(\r\n            _name,\r\n            _role,\r\n            _email,\r\n            _contactNumber,\r\n            true,\r\n            true\r\n        );\r\n        userAddresses.push(_userAddress);\r\n        emit UserRegistered(_userAddress, _name, _role, true);\r\n    }\r\n\r\n    function deactivateUser(address _userAddress) external onlyOwner {\r\n        require(users[_userAddress].exists, \"User not found\");\r\n        require(users[_userAddress].isActive, \"User already deactivated\");\r\n        users[_userAddress].isActive = false;\r\n        emit UserDeactivated(_userAddress);\r\n    }\r\n\r\n    function createPaperRequest(\r\n        address _teacher,\r\n        string memory _keyCID,\r\n        string memory _ExamId,\r\n        string memory _ExamName,\r\n        string memory _Subject\r\n    ) external onlyOwner {\r\n        require(\r\n            users[_teacher].exists &&\r\n                users[_teacher].role == Role.Teacher &&\r\n                users[_teacher].isActive,\r\n            \"Invalid or inactive teacher\"\r\n        );\r\n        paperCount++;\r\n        papers[paperCount] = Paper(\r\n            _teacher,\r\n            \"\",\r\n            _keyCID,\r\n            _ExamId,\r\n            _ExamName,\r\n            _Subject,\r\n            PaperStatus.REQUESTED,\r\n            true\r\n        );\r\n        emit PaperRequested(paperCount, _teacher);\r\n    }\r\n\r\n    function uploadPaper(\r\n        uint256 _paperId,\r\n        string memory _fileCID\r\n    ) external onlyTeacher {\r\n        require(papers[_paperId].exists, \"Invalid paper\");\r\n        require(papers[_paperId].teacher == msg.sender, \"Not assigned teacher\");\r\n        require(\r\n            bytes(papers[_paperId].fileCID).length == 0,\r\n            \"Paper already uploaded\"\r\n        );\r\n\r\n        papers[_paperId].fileCID = _fileCID;\r\n        papers[_paperId].status = PaperStatus.UPLOADED;\r\n\r\n        emit PaperUploaded(\r\n            _paperId,\r\n            msg.sender,\r\n            _fileCID,\r\n            papers[_paperId].keyCID\r\n        );\r\n    }\r\n\r\n    function grantAccess(\r\n        uint256 _paperId,\r\n        address _user,\r\n        uint256 _startTime,\r\n        uint256 _endTime\r\n    ) external onlyOwner {\r\n        require(papers[_paperId].exists, \"Invalid paper\");\r\n        require(\r\n            users[_user].exists && users[_user].isActive,\r\n            \"Invalid or inactive user\"\r\n        );\r\n        require(\r\n            papers[_paperId].status == PaperStatus.UPLOADED,\r\n            \"Paper not uploaded\"\r\n        );\r\n\r\n        accessControl[_paperId][_user] = Access(true, _startTime, _endTime);\r\n        emit AccessGranted(_paperId, _user, _startTime, _endTime);\r\n    }\r\n\r\n    function revokeAccess(uint256 _paperId, address _user) external onlyOwner {\r\n        require(accessControl[_paperId][_user].granted, \"No active access\");\r\n        accessControl[_paperId][_user].granted = false;\r\n        emit AccessRevoked(_paperId, _user);\r\n    }\r\n\r\n    function hasAccess(\r\n        uint256 _paperId,\r\n        address _user\r\n    ) external view returns (bool, uint256, uint256) {\r\n         require(papers[_paperId].exists, \"Invalid paper\");\r\n        require(\r\n            users[_user].exists && users[_user].isActive,\r\n            \"Invalid or inactive user\"\r\n        );\r\n         Access memory access = accessControl[_paperId][_user];\r\n    bool valid = access.granted &&\r\n                 block.timestamp >= access.startTime &&\r\n                 block.timestamp <= access.endTime;\r\n    return (valid, access.startTime, access.endTime);\r\n    }\r\n\r\n    // function getPaper(\r\n    //     uint256 _paperId\r\n    // )\r\n    //     external\r\n    //     view\r\n    //     onlyAuthorized(_paperId)\r\n    //     returns (string memory fileCID, string memory keyCID)\r\n    // {\r\n    //     require(papers[_paperId].exists, \"Invalid paper\");\r\n    //     Paper memory paper = papers[_paperId];\r\n    //     return (paper.fileCID, paper.keyCID);\r\n    // }\r\n\r\n\r\n    function getPaper(\r\n        uint256 _paperId\r\n    ) external returns (string memory fileCID, string memory keyCID, string memory ExamId, string memory ExamName,string memory Subject, uint8 status) {\r\n     \r\n        if (!papers[_paperId].exists) {\r\n            emit PaperAccessAttempt(\r\n                msg.sender,\r\n                _paperId,\r\n                false,\r\n                \"Invalid paper ID\"\r\n            );\r\n            // accessLogs.push(AccessLog(msg.sender, _paperId, false, \"Invalid paper\", currentTimestamp, currentBlock));\r\n            revert(\"Invalid paper\");\r\n        }\r\n\r\n        if (\r\n            !(msg.sender == Coe ||\r\n                (accessControl[_paperId][msg.sender].granted &&\r\n                    block.timestamp >=\r\n                    accessControl[_paperId][msg.sender].startTime &&\r\n                    block.timestamp <=\r\n                    accessControl[_paperId][msg.sender].endTime))\r\n        ) {\r\n            //  accessLogs.push(AccessLog(msg.sender, _paperId, false, \"Access denied\", currentTimestamp, currentBlock));\r\n            emit PaperAccessAttempt(\r\n                msg.sender,\r\n                _paperId,\r\n                false,\r\n                \"Access denied\"\r\n            );\r\n               // Store the log for access denial\r\n            revert(\"Access denied\");\r\n        }\r\n\r\n        Paper memory paper = papers[_paperId];\r\n        emit PaperAccessAttempt(msg.sender, _paperId, true, \"Access granted\");\r\n        // accessLogs.push(AccessLog(msg.sender, _paperId, true, \"Access granted\", currentTimestamp, currentBlock));\r\n        return (paper.fileCID, paper.keyCID, paper.ExamId,paper.ExamName, paper.Subject, uint8(paper.status));\r\n    }\r\n\r\n    function getAccessLogs() external view returns (AccessLog[] memory) {\r\n        return accessLogs;\r\n    }\r\n         //   address user;\r\n    //         uint256 paperId;\r\n    //         bool success;\r\n    //         string reason;\r\n    //         uint256 timestamp;\r\n    function setAccessLogs(uint256 paperId, bool success, string memory reason, uint256 timestamp) external {\r\n        AccessLog memory log = AccessLog(msg.sender, paperId, success, reason, timestamp);\r\n        accessLogs.push(log);\r\n    }\r\n    function getAllPapers() external view returns (Paper[] memory) {\r\n        Paper[] memory result = new Paper[](paperCount);\r\n        for (uint256 i = 1; i <= paperCount; i++) {\r\n            if (papers[i].exists) {\r\n                result[i - 1] = papers[i];\r\n            }\r\n        }\r\n        return result;\r\n    }\r\n\r\n    function getAllUsers()\r\n        external\r\n        view\r\n        returns (address[] memory, User[] memory)\r\n    {\r\n        uint256 count = userAddresses.length;\r\n        User[] memory result = new User[](count);\r\n        address[] memory addresses = new address[](count);\r\n        for (uint256 i = 0; i < count; i++) {\r\n            addresses[i] = userAddresses[i];\r\n            result[i] = users[userAddresses[i]];\r\n        }\r\n        return (addresses, result);\r\n    }\r\n}\r\n",
  "sourcePath": "D:\\truffle\\contracts\\QuestionPaperSystem.sol",
  "compiler": {
    "name": "solc",
    "version": "0.8.11+commit.d7f03943.Emscripten.clang"
  },
  "schemaVersion": "3.4.16",
  "updatedAt": "2025-04-15T14:22:13.948Z",
  "networkType": "ethereum",
  "devdoc": {
    "kind": "dev",
    "methods": {},
    "version": 1
  },
  "userdoc": {
    "kind": "user",
    "methods": {},
    "version": 1
  }
}