{
  "contractName": "QuestionPaperSystem",
  "abi": [
    {
      "inputs": [],
      "stateMutability": "nonpayable",
      "type": "constructor"
    },
    {
      "anonymous": false,
      "inputs": [
        {
          "indexed": true,
          "internalType": "uint256",
          "name": "paperId",
          "type": "uint256"
        },
        {
          "indexed": true,
          "internalType": "address",
          "name": "user",
          "type": "address"
        },
        {
          "indexed": false,
          "internalType": "uint256",
          "name": "startTime",
          "type": "uint256"
        },
        {
          "indexed": false,
          "internalType": "uint256",
          "name": "endTime",
          "type": "uint256"
        }
      ],
      "name": "AccessGranted",
      "type": "event"
    },
    {
      "anonymous": false,
      "inputs": [
        {
          "indexed": true,
          "internalType": "uint256",
          "name": "paperId",
          "type": "uint256"
        },
        {
          "indexed": true,
          "internalType": "address",
          "name": "user",
          "type": "address"
        }
      ],
      "name": "AccessRevoked",
      "type": "event"
    },
    {
      "anonymous": false,
      "inputs": [
        {
          "indexed": true,
          "internalType": "uint256",
          "name": "paperId",
          "type": "uint256"
        },
        {
          "indexed": true,
          "internalType": "address",
          "name": "teacher",
          "type": "address"
        }
      ],
      "name": "PaperRequested",
      "type": "event"
    },
    {
      "anonymous": false,
      "inputs": [
        {
          "indexed": true,
          "internalType": "uint256",
          "name": "paperId",
          "type": "uint256"
        },
        {
          "indexed": true,
          "internalType": "address",
          "name": "teacher",
          "type": "address"
        },
        {
          "indexed": false,
          "internalType": "string",
          "name": "fileCID",
          "type": "string"
        },
        {
          "indexed": false,
          "internalType": "string",
          "name": "keyCID",
          "type": "string"
        }
      ],
      "name": "PaperUploaded",
      "type": "event"
    },
    {
      "anonymous": false,
      "inputs": [
        {
          "indexed": true,
          "internalType": "address",
          "name": "user",
          "type": "address"
        }
      ],
      "name": "UserDeactivated",
      "type": "event"
    },
    {
      "anonymous": false,
      "inputs": [
        {
          "indexed": true,
          "internalType": "address",
          "name": "user",
          "type": "address"
        },
        {
          "indexed": false,
          "internalType": "string",
          "name": "name",
          "type": "string"
        },
        {
          "indexed": false,
          "internalType": "enum QuestionPaperSystem.Role",
          "name": "role",
          "type": "uint8"
        }
      ],
      "name": "UserRegistered",
      "type": "event"
    },
    {
      "inputs": [],
      "name": "Coe",
      "outputs": [
        {
          "internalType": "address",
          "name": "",
          "type": "address"
        }
      ],
      "stateMutability": "view",
      "type": "function",
      "constant": true
    },
    {
      "inputs": [
        {
          "internalType": "uint256",
          "name": "",
          "type": "uint256"
        },
        {
          "internalType": "address",
          "name": "",
          "type": "address"
        }
      ],
      "name": "accessControl",
      "outputs": [
        {
          "internalType": "bool",
          "name": "granted",
          "type": "bool"
        },
        {
          "internalType": "uint256",
          "name": "startTime",
          "type": "uint256"
        },
        {
          "internalType": "uint256",
          "name": "endTime",
          "type": "uint256"
        }
      ],
      "stateMutability": "view",
      "type": "function",
      "constant": true
    },
    {
      "inputs": [],
      "name": "paperCount",
      "outputs": [
        {
          "internalType": "uint256",
          "name": "",
          "type": "uint256"
        }
      ],
      "stateMutability": "view",
      "type": "function",
      "constant": true
    },
    {
      "inputs": [
        {
          "internalType": "uint256",
          "name": "",
          "type": "uint256"
        }
      ],
      "name": "papers",
      "outputs": [
        {
          "internalType": "address",
          "name": "teacher",
          "type": "address"
        },
        {
          "internalType": "string",
          "name": "fileCID",
          "type": "string"
        },
        {
          "internalType": "string",
          "name": "keyCID",
          "type": "string"
        },
        {
          "internalType": "string",
          "name": "ExamId",
          "type": "string"
        },
        {
          "internalType": "string",
          "name": "ExamName",
          "type": "string"
        },
        {
          "internalType": "string",
          "name": "Subject",
          "type": "string"
        },
        {
          "internalType": "enum QuestionPaperSystem.PaperStatus",
          "name": "status",
          "type": "uint8"
        },
        {
          "internalType": "bool",
          "name": "exists",
          "type": "bool"
        }
      ],
      "stateMutability": "view",
      "type": "function",
      "constant": true
    },
    {
      "inputs": [
        {
          "internalType": "address",
          "name": "",
          "type": "address"
        }
      ],
      "name": "users",
      "outputs": [
        {
          "internalType": "string",
          "name": "name",
          "type": "string"
        },
        {
          "internalType": "enum QuestionPaperSystem.Role",
          "name": "role",
          "type": "uint8"
        },
        {
          "internalType": "string",
          "name": "email",
          "type": "string"
        },
        {
          "internalType": "string",
          "name": "contactNumber",
          "type": "string"
        },
        {
          "internalType": "bool",
          "name": "exists",
          "type": "bool"
        },
        {
          "internalType": "bool",
          "name": "isActive",
          "type": "bool"
        }
      ],
      "stateMutability": "view",
      "type": "function",
      "constant": true
    },
    {
      "inputs": [
        {
          "internalType": "address",
          "name": "_userAddress",
          "type": "address"
        },
        {
          "internalType": "string",
          "name": "_name",
          "type": "string"
        },
        {
          "internalType": "enum QuestionPaperSystem.Role",
          "name": "_role",
          "type": "uint8"
        },
        {
          "internalType": "string",
          "name": "_email",
          "type": "string"
        },
        {
          "internalType": "string",
          "name": "_contactNumber",
          "type": "string"
        }
      ],
      "name": "registerUser",
      "outputs": [],
      "stateMutability": "nonpayable",
      "type": "function"
    },
    {
      "inputs": [
        {
          "internalType": "address",
          "name": "_userAddress",
          "type": "address"
        }
      ],
      "name": "deactivateUser",
      "outputs": [],
      "stateMutability": "nonpayable",
      "type": "function"
    },
    {
      "inputs": [
        {
          "internalType": "address",
          "name": "_teacher",
          "type": "address"
        },
        {
          "internalType": "string",
          "name": "_keyCID",
          "type": "string"
        },
        {
          "internalType": "string",
          "name": "_ExamId",
          "type": "string"
        },
        {
          "internalType": "string",
          "name": "_ExamName",
          "type": "string"
        },
        {
          "internalType": "string",
          "name": "_Subject",
          "type": "string"
        }
      ],
      "name": "createPaperRequest",
      "outputs": [],
      "stateMutability": "nonpayable",
      "type": "function"
    },
    {
      "inputs": [
        {
          "internalType": "uint256",
          "name": "_paperId",
          "type": "uint256"
        },
        {
          "internalType": "string",
          "name": "_fileCID",
          "type": "string"
        }
      ],
      "name": "uploadPaper",
      "outputs": [],
      "stateMutability": "nonpayable",
      "type": "function"
    },
    {
      "inputs": [
        {
          "internalType": "uint256",
          "name": "_paperId",
          "type": "uint256"
        },
        {
          "internalType": "address",
          "name": "_user",
          "type": "address"
        },
        {
          "internalType": "uint256",
          "name": "_startTime",
          "type": "uint256"
        },
        {
          "internalType": "uint256",
          "name": "_endTime",
          "type": "uint256"
        }
      ],
      "name": "grantAccess",
      "outputs": [],
      "stateMutability": "nonpayable",
      "type": "function"
    },
    {
      "inputs": [
        {
          "internalType": "uint256",
          "name": "_paperId",
          "type": "uint256"
        },
        {
          "internalType": "address",
          "name": "_user",
          "type": "address"
        }
      ],
      "name": "revokeAccess",
      "outputs": [],
      "stateMutability": "nonpayable",
      "type": "function"
    },
    {
      "inputs": [
        {
          "internalType": "uint256",
          "name": "_paperId",
          "type": "uint256"
        },
        {
          "internalType": "address",
          "name": "_user",
          "type": "address"
        }
      ],
      "name": "hasAccess",
      "outputs": [
        {
          "internalType": "bool",
          "name": "",
          "type": "bool"
        }
      ],
      "stateMutability": "view",
      "type": "function",
      "constant": true
    },
    {
      "inputs": [
        {
          "internalType": "uint256",
          "name": "_paperId",
          "type": "uint256"
        }
      ],
      "name": "getPaper",
      "outputs": [
        {
          "internalType": "string",
          "name": "fileCID",
          "type": "string"
        },
        {
          "internalType": "string",
          "name": "keyCID",
          "type": "string"
        }
      ],
      "stateMutability": "view",
      "type": "function",
      "constant": true
    },
    {
      "inputs": [],
      "name": "getAllPapers",
      "outputs": [
        {
          "components": [
            {
              "internalType": "address",
              "name": "teacher",
              "type": "address"
            },
            {
              "internalType": "string",
              "name": "fileCID",
              "type": "string"
            },
            {
              "internalType": "string",
              "name": "keyCID",
              "type": "string"
            },
            {
              "internalType": "string",
              "name": "ExamId",
              "type": "string"
            },
            {
              "internalType": "string",
              "name": "ExamName",
              "type": "string"
            },
            {
              "internalType": "string",
              "name": "Subject",
              "type": "string"
            },
            {
              "internalType": "enum QuestionPaperSystem.PaperStatus",
              "name": "status",
              "type": "uint8"
            },
            {
              "internalType": "bool",
              "name": "exists",
              "type": "bool"
            }
          ],
          "internalType": "struct QuestionPaperSystem.Paper[]",
          "name": "",
          "type": "tuple[]"
        }
      ],
      "stateMutability": "view",
      "type": "function",
      "constant": true
    },
    {
      "inputs": [],
      "name": "getAllUsers",
      "outputs": [
        {
          "internalType": "address[]",
          "name": "",
          "type": "address[]"
        },
        {
          "components": [
            {
              "internalType": "string",
              "name": "name",
              "type": "string"
            },
            {
              "internalType": "enum QuestionPaperSystem.Role",
              "name": "role",
              "type": "uint8"
            },
            {
              "internalType": "string",
              "name": "email",
              "type": "string"
            },
            {
              "internalType": "string",
              "name": "contactNumber",
              "type": "string"
            },
            {
              "internalType": "bool",
              "name": "exists",
              "type": "bool"
            },
            {
              "internalType": "bool",
              "name": "isActive",
              "type": "bool"
            }
          ],
          "internalType": "struct QuestionPaperSystem.User[]",
          "name": "",
          "type": "tuple[]"
        }
      ],
      "stateMutability": "view",
      "type": "function",
      "constant": true
    }
  ],
  "bytecode": "0x608060405234801561001057600080fd5b50336000806101000a81548173ffffffffffffffffffffffffffffffffffffffff021916908373ffffffffffffffffffffffffffffffffffffffff160217905550614113806100606000396000f3fe608060405234801561001057600080fd5b50600436106100f55760003560e01c8063a56c2cb911610097578063d9a5ec1b11610066578063d9a5ec1b14610291578063dd6821b0146102ad578063e2842d79146102c9578063f13f309d146102e8576100f5565b8063a56c2cb9146101f2578063a87430ba14610210578063ca16221414610245578063ced1419814610261576100f5565b8063381c5c8a116100d3578063381c5c8a146101635780633f1a39a0146101815780634f13a86b1461019f5780635e775a27146101bb576100f5565b80630533f021146100fa57806307993f04146101165780631a47767b14610147575b600080fd5b610114600480360381019061010f9190612c67565b61031a565b005b610130600480360381019061012b9190612cce565b610678565b60405161013e929190612d94565b60405180910390f35b610161600480360381019061015c9190612dcb565b610c51565b005b61016b610e9e565b6040516101789190612e07565b60405180910390f35b610189610ec2565b604051610196919061309b565b60405180910390f35b6101b960048036038101906101b491906131f2565b611342565b005b6101d560048036038101906101d09190612cce565b6116e8565b6040516101e998979695949392919061326c565b60405180910390f35b6101fa611a12565b604051610207919061331c565b60405180910390f35b61022a60048036038101906102259190612dcb565b611a18565b60405161023c9695949392919061337f565b60405180910390f35b61025f600480360381019061025a919061341a565b611c13565b005b61027b600480360381019061027691906134e9565b611f39565b6040516102889190613529565b60405180910390f35b6102ab60048036038101906102a691906134e9565b611ff6565b005b6102c760048036038101906102c29190613544565b6121d8565b005b6102d16125e6565b6040516102df929190613846565b60405180910390f35b61030260048036038101906102fd91906134e9565b612a1d565b6040516103119392919061387d565b60405180910390f35b60008054906101000a900473ffffffffffffffffffffffffffffffffffffffff1673ffffffffffffffffffffffffffffffffffffffff163373ffffffffffffffffffffffffffffffffffffffff16146103a8576040517f08c379a000000000000000000000000000000000000000000000000000000000815260040161039f90613926565b60405180910390fd5b6002600085815260200190815260200160002060060160019054906101000a900460ff1661040b576040517f08c379a000000000000000000000000000000000000000000000000000000000815260040161040290613992565b60405180910390fd5b600160008473ffffffffffffffffffffffffffffffffffffffff1673ffffffffffffffffffffffffffffffffffffffff16815260200190815260200160002060040160009054906101000a900460ff1680156104b35750600160008473ffffffffffffffffffffffffffffffffffffffff1673ffffffffffffffffffffffffffffffffffffffff16815260200190815260200160002060040160019054906101000a900460ff165b6104f2576040517f08c379a00000000000000000000000000000000000000000000000000000000081526004016104e9906139fe565b60405180910390fd5b6001600281111561050657610505612ea7565b5b6002600086815260200190815260200160002060060160009054906101000a900460ff16600281111561053c5761053b612ea7565b5b1461057c576040517f08c379a000000000000000000000000000000000000000000000000000000000815260040161057390613a6a565b60405180910390fd5b6040518060600160405280600115158152602001838152602001828152506003600086815260200190815260200160002060008573ffffffffffffffffffffffffffffffffffffffff1673ffffffffffffffffffffffffffffffffffffffff16815260200190815260200160002060008201518160000160006101000a81548160ff02191690831515021790555060208201518160010155604082015181600201559050508273ffffffffffffffffffffffffffffffffffffffff16847f239a3566552fea15efcb7f329e00f63b2bef916135e5ca3e6fcb3279d688e37e848460405161066a929190613a8a565b60405180910390a350505050565b6060808260008054906101000a900473ffffffffffffffffffffffffffffffffffffffff1673ffffffffffffffffffffffffffffffffffffffff163373ffffffffffffffffffffffffffffffffffffffff1614806107f157506003600082815260200190815260200160002060003373ffffffffffffffffffffffffffffffffffffffff1673ffffffffffffffffffffffffffffffffffffffff16815260200190815260200160002060000160009054906101000a900460ff16801561079157506003600082815260200190815260200160002060003373ffffffffffffffffffffffffffffffffffffffff1673ffffffffffffffffffffffffffffffffffffffff168152602001908152602001600020600101544210155b80156107f057506003600082815260200190815260200160002060003373ffffffffffffffffffffffffffffffffffffffff1673ffffffffffffffffffffffffffffffffffffffff168152602001908152602001600020600201544211155b5b610830576040517f08c379a000000000000000000000000000000000000000000000000000000000815260040161082790613aff565b60405180910390fd5b6002600085815260200190815260200160002060060160019054906101000a900460ff16610893576040517f08c379a000000000000000000000000000000000000000000000000000000000815260040161088a90613992565b60405180910390fd5b600060026000868152602001908152602001600020604051806101000160405290816000820160009054906101000a900473ffffffffffffffffffffffffffffffffffffffff1673ffffffffffffffffffffffffffffffffffffffff1673ffffffffffffffffffffffffffffffffffffffff16815260200160018201805461091a90613b4e565b80601f016020809104026020016040519081016040528092919081815260200182805461094690613b4e565b80156109935780601f1061096857610100808354040283529160200191610993565b820191906000526020600020905b81548152906001019060200180831161097657829003601f168201915b505050505081526020016002820180546109ac90613b4e565b80601f01602080910402602001604051908101604052809291908181526020018280546109d890613b4e565b8015610a255780601f106109fa57610100808354040283529160200191610a25565b820191906000526020600020905b815481529060010190602001808311610a0857829003601f168201915b50505050508152602001600382018054610a3e90613b4e565b80601f0160208091040260200160405190810160405280929190818152602001828054610a6a90613b4e565b8015610ab75780601f10610a8c57610100808354040283529160200191610ab7565b820191906000526020600020905b815481529060010190602001808311610a9a57829003601f168201915b50505050508152602001600482018054610ad090613b4e565b80601f0160208091040260200160405190810160405280929190818152602001828054610afc90613b4e565b8015610b495780601f10610b1e57610100808354040283529160200191610b49565b820191906000526020600020905b815481529060010190602001808311610b2c57829003601f168201915b50505050508152602001600582018054610b6290613b4e565b80601f0160208091040260200160405190810160405280929190818152602001828054610b8e90613b4e565b8015610bdb5780601f10610bb057610100808354040283529160200191610bdb565b820191906000526020600020905b815481529060010190602001808311610bbe57829003601f168201915b505050505081526020016006820160009054906101000a900460ff166002811115610c0957610c08612ea7565b5b6002811115610c1b57610c1a612ea7565b5b81526020016006820160019054906101000a900460ff161515151581525050905080602001518160400151935093505050915091565b60008054906101000a900473ffffffffffffffffffffffffffffffffffffffff1673ffffffffffffffffffffffffffffffffffffffff163373ffffffffffffffffffffffffffffffffffffffff1614610cdf576040517f08c379a0000000000000000000000000000000000000000000000000000000008152600401610cd690613926565b60405180910390fd5b600160008273ffffffffffffffffffffffffffffffffffffffff1673ffffffffffffffffffffffffffffffffffffffff16815260200190815260200160002060040160009054906101000a900460ff16610d6e576040517f08c379a0000000000000000000000000000000000000000000000000000000008152600401610d6590613bcc565b60405180910390fd5b600160008273ffffffffffffffffffffffffffffffffffffffff1673ffffffffffffffffffffffffffffffffffffffff16815260200190815260200160002060040160019054906101000a900460ff16610dfd576040517f08c379a0000000000000000000000000000000000000000000000000000000008152600401610df490613c38565b60405180910390fd5b6000600160008373ffffffffffffffffffffffffffffffffffffffff1673ffffffffffffffffffffffffffffffffffffffff16815260200190815260200160002060040160016101000a81548160ff0219169083151502179055508073ffffffffffffffffffffffffffffffffffffffff167f5554feec4e87bc4eba14bd62f71df68156f97d26128616fbc27d28e33b35a6b460405160405180910390a250565b60008054906101000a900473ffffffffffffffffffffffffffffffffffffffff1681565b6060600060045467ffffffffffffffff811115610ee257610ee16130c7565b5b604051908082528060200260200182016040528015610f1b57816020015b610f08612a61565b815260200190600190039081610f005790505b5090506000600190505b600454811161133a576002600082815260200190815260200160002060060160019054906101000a900460ff16156113275760026000828152602001908152602001600020604051806101000160405290816000820160009054906101000a900473ffffffffffffffffffffffffffffffffffffffff1673ffffffffffffffffffffffffffffffffffffffff1673ffffffffffffffffffffffffffffffffffffffff168152602001600182018054610fdc90613b4e565b80601f016020809104026020016040519081016040528092919081815260200182805461100890613b4e565b80156110555780601f1061102a57610100808354040283529160200191611055565b820191906000526020600020905b81548152906001019060200180831161103857829003601f168201915b5050505050815260200160028201805461106e90613b4e565b80601f016020809104026020016040519081016040528092919081815260200182805461109a90613b4e565b80156110e75780601f106110bc576101008083540402835291602001916110e7565b820191906000526020600020905b8154815290600101906020018083116110ca57829003601f168201915b5050505050815260200160038201805461110090613b4e565b80601f016020809104026020016040519081016040528092919081815260200182805461112c90613b4e565b80156111795780601f1061114e57610100808354040283529160200191611179565b820191906000526020600020905b81548152906001019060200180831161115c57829003601f168201915b5050505050815260200160048201805461119290613b4e565b80601f01602080910402602001604051908101604052809291908181526020018280546111be90613b4e565b801561120b5780601f106111e05761010080835404028352916020019161120b565b820191906000526020600020905b8154815290600101906020018083116111ee57829003601f168201915b5050505050815260200160058201805461122490613b4e565b80601f016020809104026020016040519081016040528092919081815260200182805461125090613b4e565b801561129d5780601f106112725761010080835404028352916020019161129d565b820191906000526020600020905b81548152906001019060200180831161128057829003601f168201915b505050505081526020016006820160009054906101000a900460ff1660028111156112cb576112ca612ea7565b5b60028111156112dd576112dc612ea7565b5b81526020016006820160019054906101000a900460ff1615151515815250508260018361130a9190613c87565b8151811061131b5761131a613cbb565b5b60200260200101819052505b808061133290613cea565b915050610f25565b508091505090565b600160003373ffffffffffffffffffffffffffffffffffffffff1673ffffffffffffffffffffffffffffffffffffffff16815260200190815260200160002060040160009054906101000a900460ff1680156114115750600060028111156113ad576113ac612ea7565b5b600160003373ffffffffffffffffffffffffffffffffffffffff1673ffffffffffffffffffffffffffffffffffffffff16815260200190815260200160002060010160009054906101000a900460ff16600281111561140f5761140e612ea7565b5b145b80156114695750600160003373ffffffffffffffffffffffffffffffffffffffff1673ffffffffffffffffffffffffffffffffffffffff16815260200190815260200160002060040160019054906101000a900460ff165b6114a8576040517f08c379a000000000000000000000000000000000000000000000000000000000815260040161149f90613da5565b60405180910390fd5b6002600083815260200190815260200160002060060160019054906101000a900460ff1661150b576040517f08c379a000000000000000000000000000000000000000000000000000000000815260040161150290613992565b60405180910390fd5b3373ffffffffffffffffffffffffffffffffffffffff166002600084815260200190815260200160002060000160009054906101000a900473ffffffffffffffffffffffffffffffffffffffff1673ffffffffffffffffffffffffffffffffffffffff16146115af576040517f08c379a00000000000000000000000000000000000000000000000000000000081526004016115a690613e11565b60405180910390fd5b60006002600084815260200190815260200160002060010180546115d290613b4e565b905014611614576040517f08c379a000000000000000000000000000000000000000000000000000000000815260040161160b90613e7d565b60405180910390fd5b8060026000848152602001908152602001600020600101908051906020019061163e929190612ad0565b5060016002600084815260200190815260200160002060060160006101000a81548160ff0219169083600281111561167957611678612ea7565b5b02179055503373ffffffffffffffffffffffffffffffffffffffff16827f356d2993db12c6b0585c873fff9e18a6b9821484e9289f092a4609e12f30b3e083600260008781526020019081526020016000206002016040516116dc929190613f32565b60405180910390a35050565b60026020528060005260406000206000915090508060000160009054906101000a900473ffffffffffffffffffffffffffffffffffffffff169080600101805461173190613b4e565b80601f016020809104026020016040519081016040528092919081815260200182805461175d90613b4e565b80156117aa5780601f1061177f576101008083540402835291602001916117aa565b820191906000526020600020905b81548152906001019060200180831161178d57829003601f168201915b5050505050908060020180546117bf90613b4e565b80601f01602080910402602001604051908101604052809291908181526020018280546117eb90613b4e565b80156118385780601f1061180d57610100808354040283529160200191611838565b820191906000526020600020905b81548152906001019060200180831161181b57829003601f168201915b50505050509080600301805461184d90613b4e565b80601f016020809104026020016040519081016040528092919081815260200182805461187990613b4e565b80156118c65780601f1061189b576101008083540402835291602001916118c6565b820191906000526020600020905b8154815290600101906020018083116118a957829003601f168201915b5050505050908060040180546118db90613b4e565b80601f016020809104026020016040519081016040528092919081815260200182805461190790613b4e565b80156119545780601f1061192957610100808354040283529160200191611954565b820191906000526020600020905b81548152906001019060200180831161193757829003601f168201915b50505050509080600501805461196990613b4e565b80601f016020809104026020016040519081016040528092919081815260200182805461199590613b4e565b80156119e25780601f106119b7576101008083540402835291602001916119e2565b820191906000526020600020905b8154815290600101906020018083116119c557829003601f168201915b5050505050908060060160009054906101000a900460ff16908060060160019054906101000a900460ff16905088565b60045481565b6001602052806000526040600020600091509050806000018054611a3b90613b4e565b80601f0160208091040260200160405190810160405280929190818152602001828054611a6790613b4e565b8015611ab45780601f10611a8957610100808354040283529160200191611ab4565b820191906000526020600020905b815481529060010190602001808311611a9757829003601f168201915b5050505050908060010160009054906101000a900460ff1690806002018054611adc90613b4e565b80601f0160208091040260200160405190810160405280929190818152602001828054611b0890613b4e565b8015611b555780601f10611b2a57610100808354040283529160200191611b55565b820191906000526020600020905b815481529060010190602001808311611b3857829003601f168201915b505050505090806003018054611b6a90613b4e565b80601f0160208091040260200160405190810160405280929190818152602001828054611b9690613b4e565b8015611be35780601f10611bb857610100808354040283529160200191611be3565b820191906000526020600020905b815481529060010190602001808311611bc657829003601f168201915b5050505050908060040160009054906101000a900460ff16908060040160019054906101000a900460ff16905086565b60008054906101000a900473ffffffffffffffffffffffffffffffffffffffff1673ffffffffffffffffffffffffffffffffffffffff163373ffffffffffffffffffffffffffffffffffffffff1614611ca1576040517f08c379a0000000000000000000000000000000000000000000000000000000008152600401611c9890613926565b60405180910390fd5b600160008673ffffffffffffffffffffffffffffffffffffffff1673ffffffffffffffffffffffffffffffffffffffff16815260200190815260200160002060040160009054906101000a900460ff1615611d31576040517f08c379a0000000000000000000000000000000000000000000000000000000008152600401611d2890613fb5565b60405180910390fd5b6040518060c00160405280858152602001846002811115611d5557611d54612ea7565b5b815260200183815260200182815260200160011515815260200160011515815250600160008773ffffffffffffffffffffffffffffffffffffffff1673ffffffffffffffffffffffffffffffffffffffff1681526020019081526020016000206000820151816000019080519060200190611dd1929190612ad0565b5060208201518160010160006101000a81548160ff02191690836002811115611dfd57611dfc612ea7565b5b02179055506040820151816002019080519060200190611e1e929190612ad0565b506060820151816003019080519060200190611e3b929190612ad0565b5060808201518160040160006101000a81548160ff02191690831515021790555060a08201518160040160016101000a81548160ff0219169083151502179055509050506005859080600181540180825580915050600190039060005260206000200160009091909190916101000a81548173ffffffffffffffffffffffffffffffffffffffff021916908373ffffffffffffffffffffffffffffffffffffffff1602179055508473ffffffffffffffffffffffffffffffffffffffff167fc2e5d5da58bd71d1a2d14cdef02a4256d971b728088f8190d067ccfbae3bd73e8585604051611f2a929190613fd5565b60405180910390a25050505050565b6000806003600085815260200190815260200160002060008473ffffffffffffffffffffffffffffffffffffffff1673ffffffffffffffffffffffffffffffffffffffff1681526020019081526020016000206040518060600160405290816000820160009054906101000a900460ff1615151515815260200160018201548152602001600282015481525050905080600001518015611fdd575080602001514210155b8015611fed575080604001514211155b91505092915050565b60008054906101000a900473ffffffffffffffffffffffffffffffffffffffff1673ffffffffffffffffffffffffffffffffffffffff163373ffffffffffffffffffffffffffffffffffffffff1614612084576040517f08c379a000000000000000000000000000000000000000000000000000000000815260040161207b90613926565b60405180910390fd5b6003600083815260200190815260200160002060008273ffffffffffffffffffffffffffffffffffffffff1673ffffffffffffffffffffffffffffffffffffffff16815260200190815260200160002060000160009054906101000a900460ff16612124576040517f08c379a000000000000000000000000000000000000000000000000000000000815260040161211b90614051565b60405180910390fd5b60006003600084815260200190815260200160002060008373ffffffffffffffffffffffffffffffffffffffff1673ffffffffffffffffffffffffffffffffffffffff16815260200190815260200160002060000160006101000a81548160ff0219169083151502179055508073ffffffffffffffffffffffffffffffffffffffff16827f125883b94692baebecad9f111ed97ffa626523bbbadc6b0ef85ee1b56b9e52d560405160405180910390a35050565b60008054906101000a900473ffffffffffffffffffffffffffffffffffffffff1673ffffffffffffffffffffffffffffffffffffffff163373ffffffffffffffffffffffffffffffffffffffff1614612266576040517f08c379a000000000000000000000000000000000000000000000000000000000815260040161225d90613926565b60405180910390fd5b600160008673ffffffffffffffffffffffffffffffffffffffff1673ffffffffffffffffffffffffffffffffffffffff16815260200190815260200160002060040160009054906101000a900460ff1680156123355750600060028111156122d1576122d0612ea7565b5b600160008773ffffffffffffffffffffffffffffffffffffffff1673ffffffffffffffffffffffffffffffffffffffff16815260200190815260200160002060010160009054906101000a900460ff16600281111561233357612332612ea7565b5b145b801561238d5750600160008673ffffffffffffffffffffffffffffffffffffffff1673ffffffffffffffffffffffffffffffffffffffff16815260200190815260200160002060040160019054906101000a900460ff165b6123cc576040517f08c379a00000000000000000000000000000000000000000000000000000000081526004016123c3906140bd565b60405180910390fd5b600460008154809291906123df90613cea565b91905055506040518061010001604052808673ffffffffffffffffffffffffffffffffffffffff1681526020016040518060200160405280600081525081526020018581526020018481526020018381526020018281526020016000600281111561244d5761244c612ea7565b5b81526020016001151581525060026000600454815260200190815260200160002060008201518160000160006101000a81548173ffffffffffffffffffffffffffffffffffffffff021916908373ffffffffffffffffffffffffffffffffffffffff16021790555060208201518160010190805190602001906124d1929190612ad0565b5060408201518160020190805190602001906124ee929190612ad0565b50606082015181600301908051906020019061250b929190612ad0565b506080820151816004019080519060200190612528929190612ad0565b5060a0820151816005019080519060200190612545929190612ad0565b5060c08201518160060160006101000a81548160ff0219169083600281111561257157612570612ea7565b5b021790555060e08201518160060160016101000a81548160ff0219169083151502179055509050508473ffffffffffffffffffffffffffffffffffffffff166004547f6454790994d9c0b5b58a3d9e16e4a9a6016714c7a639fa461afa0ce43be9591c60405160405180910390a35050505050565b6060806000600580549050905060008167ffffffffffffffff81111561260f5761260e6130c7565b5b60405190808252806020026020018201604052801561264857816020015b612635612b56565b81526020019060019003908161262d5790505b50905060008267ffffffffffffffff811115612667576126666130c7565b5b6040519080825280602002602001820160405280156126955781602001602082028036833780820191505090505b50905060005b83811015612a0f57600581815481106126b7576126b6613cbb565b5b9060005260206000200160009054906101000a900473ffffffffffffffffffffffffffffffffffffffff168282815181106126f5576126f4613cbb565b5b602002602001019073ffffffffffffffffffffffffffffffffffffffff16908173ffffffffffffffffffffffffffffffffffffffff1681525050600160006005838154811061274757612746613cbb565b5b9060005260206000200160009054906101000a900473ffffffffffffffffffffffffffffffffffffffff1673ffffffffffffffffffffffffffffffffffffffff1673ffffffffffffffffffffffffffffffffffffffff1681526020019081526020016000206040518060c00160405290816000820180546127c790613b4e565b80601f01602080910402602001604051908101604052809291908181526020018280546127f390613b4e565b80156128405780601f1061281557610100808354040283529160200191612840565b820191906000526020600020905b81548152906001019060200180831161282357829003601f168201915b505050505081526020016001820160009054906101000a900460ff16600281111561286e5761286d612ea7565b5b60028111156128805761287f612ea7565b5b815260200160028201805461289490613b4e565b80601f01602080910402602001604051908101604052809291908181526020018280546128c090613b4e565b801561290d5780601f106128e25761010080835404028352916020019161290d565b820191906000526020600020905b8154815290600101906020018083116128f057829003601f168201915b5050505050815260200160038201805461292690613b4e565b80601f016020809104026020016040519081016040528092919081815260200182805461295290613b4e565b801561299f5780601f106129745761010080835404028352916020019161299f565b820191906000526020600020905b81548152906001019060200180831161298257829003601f168201915b505050505081526020016004820160009054906101000a900460ff161515151581526020016004820160019054906101000a900460ff1615151515815250508382815181106129f1576129f0613cbb565b5b60200260200101819052508080612a0790613cea565b91505061269b565b508082945094505050509091565b6003602052816000526040600020602052806000526040600020600091509150508060000160009054906101000a900460ff16908060010154908060020154905083565b604051806101000160405280600073ffffffffffffffffffffffffffffffffffffffff168152602001606081526020016060815260200160608152602001606081526020016060815260200160006002811115612ac157612ac0612ea7565b5b81526020016000151581525090565b828054612adc90613b4e565b90600052602060002090601f016020900481019282612afe5760008555612b45565b82601f10612b1757805160ff1916838001178555612b45565b82800160010185558215612b45579182015b82811115612b44578251825591602001919060010190612b29565b5b509050612b529190612ba2565b5090565b6040518060c001604052806060815260200160006002811115612b7c57612b7b612ea7565b5b815260200160608152602001606081526020016000151581526020016000151581525090565b5b80821115612bbb576000816000905550600101612ba3565b5090565b6000604051905090565b600080fd5b600080fd5b6000819050919050565b612be681612bd3565b8114612bf157600080fd5b50565b600081359050612c0381612bdd565b92915050565b600073ffffffffffffffffffffffffffffffffffffffff82169050919050565b6000612c3482612c09565b9050919050565b612c4481612c29565b8114612c4f57600080fd5b50565b600081359050612c6181612c3b565b92915050565b60008060008060808587031215612c8157612c80612bc9565b5b6000612c8f87828801612bf4565b9450506020612ca087828801612c52565b9350506040612cb187828801612bf4565b9250506060612cc287828801612bf4565b91505092959194509250565b600060208284031215612ce457612ce3612bc9565b5b6000612cf284828501612bf4565b91505092915050565b600081519050919050565b600082825260208201905092915050565b60005b83811015612d35578082015181840152602081019050612d1a565b83811115612d44576000848401525b50505050565b6000601f19601f8301169050919050565b6000612d6682612cfb565b612d708185612d06565b9350612d80818560208601612d17565b612d8981612d4a565b840191505092915050565b60006040820190508181036000830152612dae8185612d5b565b90508181036020830152612dc28184612d5b565b90509392505050565b600060208284031215612de157612de0612bc9565b5b6000612def84828501612c52565b91505092915050565b612e0181612c29565b82525050565b6000602082019050612e1c6000830184612df8565b92915050565b600081519050919050565b600082825260208201905092915050565b6000819050602082019050919050565b612e5781612c29565b82525050565b600082825260208201905092915050565b6000612e7982612cfb565b612e838185612e5d565b9350612e93818560208601612d17565b612e9c81612d4a565b840191505092915050565b7f4e487b7100000000000000000000000000000000000000000000000000000000600052602160045260246000fd5b60038110612ee757612ee6612ea7565b5b50565b6000819050612ef882612ed6565b919050565b6000612f0882612eea565b9050919050565b612f1881612efd565b82525050565b60008115159050919050565b612f3381612f1e565b82525050565b600061010083016000830151612f526000860182612e4e565b5060208301518482036020860152612f6a8282612e6e565b91505060408301518482036040860152612f848282612e6e565b91505060608301518482036060860152612f9e8282612e6e565b91505060808301518482036080860152612fb88282612e6e565b91505060a083015184820360a0860152612fd28282612e6e565b91505060c0830151612fe760c0860182612f0f565b5060e0830151612ffa60e0860182612f2a565b508091505092915050565b60006130118383612f39565b905092915050565b6000602082019050919050565b600061303182612e22565b61303b8185612e2d565b93508360208202850161304d85612e3e565b8060005b85811015613089578484038952815161306a8582613005565b945061307583613019565b925060208a01995050600181019050613051565b50829750879550505050505092915050565b600060208201905081810360008301526130b58184613026565b905092915050565b600080fd5b600080fd5b7f4e487b7100000000000000000000000000000000000000000000000000000000600052604160045260246000fd5b6130ff82612d4a565b810181811067ffffffffffffffff8211171561311e5761311d6130c7565b5b80604052505050565b6000613131612bbf565b905061313d82826130f6565b919050565b600067ffffffffffffffff82111561315d5761315c6130c7565b5b61316682612d4a565b9050602081019050919050565b82818337600083830152505050565b600061319561319084613142565b613127565b9050828152602081018484840111156131b1576131b06130c2565b5b6131bc848285613173565b509392505050565b600082601f8301126131d9576131d86130bd565b5b81356131e9848260208601613182565b91505092915050565b6000806040838503121561320957613208612bc9565b5b600061321785828601612bf4565b925050602083013567ffffffffffffffff81111561323857613237612bce565b5b613244858286016131c4565b9150509250929050565b61325781612efd565b82525050565b61326681612f1e565b82525050565b600061010082019050613282600083018b612df8565b8181036020830152613294818a612d5b565b905081810360408301526132a88189612d5b565b905081810360608301526132bc8188612d5b565b905081810360808301526132d08187612d5b565b905081810360a08301526132e48186612d5b565b90506132f360c083018561324e565b61330060e083018461325d565b9998505050505050505050565b61331681612bd3565b82525050565b6000602082019050613331600083018461330d565b92915050565b6003811061334857613347612ea7565b5b50565b600081905061335982613337565b919050565b60006133698261334b565b9050919050565b6133798161335e565b82525050565b600060c08201905081810360008301526133998189612d5b565b90506133a86020830188613370565b81810360408301526133ba8187612d5b565b905081810360608301526133ce8186612d5b565b90506133dd608083018561325d565b6133ea60a083018461325d565b979650505050505050565b6003811061340257600080fd5b50565b600081359050613414816133f5565b92915050565b600080600080600060a0868803121561343657613435612bc9565b5b600061344488828901612c52565b955050602086013567ffffffffffffffff81111561346557613464612bce565b5b613471888289016131c4565b945050604061348288828901613405565b935050606086013567ffffffffffffffff8111156134a3576134a2612bce565b5b6134af888289016131c4565b925050608086013567ffffffffffffffff8111156134d0576134cf612bce565b5b6134dc888289016131c4565b9150509295509295909350565b60008060408385031215613500576134ff612bc9565b5b600061350e85828601612bf4565b925050602061351f85828601612c52565b9150509250929050565b600060208201905061353e600083018461325d565b92915050565b600080600080600060a086880312156135605761355f612bc9565b5b600061356e88828901612c52565b955050602086013567ffffffffffffffff81111561358f5761358e612bce565b5b61359b888289016131c4565b945050604086013567ffffffffffffffff8111156135bc576135bb612bce565b5b6135c8888289016131c4565b935050606086013567ffffffffffffffff8111156135e9576135e8612bce565b5b6135f5888289016131c4565b925050608086013567ffffffffffffffff81111561361657613615612bce565b5b613622888289016131c4565b9150509295509295909350565b600081519050919050565b600082825260208201905092915050565b6000819050602082019050919050565b60006136678383612e4e565b60208301905092915050565b6000602082019050919050565b600061368b8261362f565b613695818561363a565b93506136a08361364b565b8060005b838110156136d15781516136b8888261365b565b97506136c383613673565b9250506001810190506136a4565b5085935050505092915050565b600081519050919050565b600082825260208201905092915050565b6000819050602082019050919050565b6137138161335e565b82525050565b600060c08301600083015184820360008601526137368282612e6e565b915050602083015161374b602086018261370a565b50604083015184820360408601526137638282612e6e565b9150506060830151848203606086015261377d8282612e6e565b91505060808301516137926080860182612f2a565b5060a08301516137a560a0860182612f2a565b508091505092915050565b60006137bc8383613719565b905092915050565b6000602082019050919050565b60006137dc826136de565b6137e681856136e9565b9350836020820285016137f8856136fa565b8060005b85811015613834578484038952815161381585826137b0565b9450613820836137c4565b925060208a019950506001810190506137fc565b50829750879550505050505092915050565b600060408201905081810360008301526138608185613680565b9050818103602083015261387481846137d1565b90509392505050565b6000606082019050613892600083018661325d565b61389f602083018561330d565b6138ac604083018461330d565b949350505050565b7f4f6e6c7920636f6e7472616374206f776e65722063616e20706572666f726d2060008201527f74686973207468697320616374696f6e00000000000000000000000000000000602082015250565b6000613910603083612d06565b915061391b826138b4565b604082019050919050565b6000602082019050818103600083015261393f81613903565b9050919050565b7f496e76616c696420706170657200000000000000000000000000000000000000600082015250565b600061397c600d83612d06565b915061398782613946565b602082019050919050565b600060208201905081810360008301526139ab8161396f565b9050919050565b7f496e76616c6964206f7220696e61637469766520757365720000000000000000600082015250565b60006139e8601883612d06565b91506139f3826139b2565b602082019050919050565b60006020820190508181036000830152613a17816139db565b9050919050565b7f5061706572206e6f742075706c6f616465640000000000000000000000000000600082015250565b6000613a54601283612d06565b9150613a5f82613a1e565b602082019050919050565b60006020820190508181036000830152613a8381613a47565b9050919050565b6000604082019050613a9f600083018561330d565b613aac602083018461330d565b9392505050565b7f4163636573732064656e69656400000000000000000000000000000000000000600082015250565b6000613ae9600d83612d06565b9150613af482613ab3565b602082019050919050565b60006020820190508181036000830152613b1881613adc565b9050919050565b7f4e487b7100000000000000000000000000000000000000000000000000000000600052602260045260246000fd5b60006002820490506001821680613b6657607f821691505b60208210811415613b7a57613b79613b1f565b5b50919050565b7f55736572206e6f7420666f756e64000000000000000000000000000000000000600082015250565b6000613bb6600e83612d06565b9150613bc182613b80565b602082019050919050565b60006020820190508181036000830152613be581613ba9565b9050919050565b7f5573657220616c72656164792064656163746976617465640000000000000000600082015250565b6000613c22601883612d06565b9150613c2d82613bec565b602082019050919050565b60006020820190508181036000830152613c5181613c15565b9050919050565b7f4e487b7100000000000000000000000000000000000000000000000000000000600052601160045260246000fd5b6000613c9282612bd3565b9150613c9d83612bd3565b925082821015613cb057613caf613c58565b5b828203905092915050565b7f4e487b7100000000000000000000000000000000000000000000000000000000600052603260045260246000fd5b6000613cf582612bd3565b91507fffffffffffffffffffffffffffffffffffffffffffffffffffffffffffffffff821415613d2857613d27613c58565b5b600182019050919050565b7f4f6e6c79206163746976652074656163686572732063616e20706572666f726d60008201527f207468697320616374696f6e0000000000000000000000000000000000000000602082015250565b6000613d8f602c83612d06565b9150613d9a82613d33565b604082019050919050565b60006020820190508181036000830152613dbe81613d82565b9050919050565b7f4e6f742061737369676e65642074656163686572000000000000000000000000600082015250565b6000613dfb601483612d06565b9150613e0682613dc5565b602082019050919050565b60006020820190508181036000830152613e2a81613dee565b9050919050565b7f506170657220616c72656164792075706c6f6164656400000000000000000000600082015250565b6000613e67601683612d06565b9150613e7282613e31565b602082019050919050565b60006020820190508181036000830152613e9681613e5a565b9050919050565b60008190508160005260206000209050919050565b60008154613ebf81613b4e565b613ec98186612d06565b94506001821660008114613ee45760018114613ef657613f29565b60ff1983168652602086019350613f29565b613eff85613e9d565b60005b83811015613f2157815481890152600182019150602081019050613f02565b808801955050505b50505092915050565b60006040820190508181036000830152613f4c8185612d5b565b90508181036020830152613f608184613eb2565b90509392505050565b7f5573657220616c72656164792072656769737465726564000000000000000000600082015250565b6000613f9f601783612d06565b9150613faa82613f69565b602082019050919050565b60006020820190508181036000830152613fce81613f92565b9050919050565b60006040820190508181036000830152613fef8185612d5b565b9050613ffe6020830184613370565b9392505050565b7f4e6f206163746976652061636365737300000000000000000000000000000000600082015250565b600061403b601083612d06565b915061404682614005565b602082019050919050565b6000602082019050818103600083015261406a8161402e565b9050919050565b7f496e76616c6964206f7220696e61637469766520746561636865720000000000600082015250565b60006140a7601b83612d06565b91506140b282614071565b602082019050919050565b600060208201905081810360008301526140d68161409a565b905091905056fea264697066735822122056833fea44a78b20f220c99cd593dc1884201d9f9e2636bd8f854c35e122cc3164736f6c634300080b0033",
  "immutableReferences": {},
  "source": "// SPDX-License-Identifier: MIT\r\npragma solidity ^0.8.0;\r\n\r\ncontract QuestionPaperSystem {\r\n\r\n    enum PaperStatus { REQUESTED, UPLOADED, VERIFIED }\r\n    enum Role { Teacher, Superintendent, Center }\r\n\r\n    struct User {\r\n        string name;\r\n        Role role;\r\n        string email;\r\n        string contactNumber;\r\n        bool exists;\r\n        bool isActive;\r\n    }\r\n\r\n    struct Paper {\r\n        address teacher;\r\n        string fileCID; \r\n        string keyCID;\r\n        string ExamId;\r\n        string ExamName;\r\n        string Subject;\r\n        PaperStatus status;\r\n        bool exists;\r\n    }\r\n\r\n    struct Access {\r\n        bool granted;\r\n        uint256 startTime;\r\n        uint256 endTime;\r\n    }\r\n\r\n    // State Variables\r\n    address public Coe;\r\n    mapping(address => User) public users; \r\n    mapping(uint256 => Paper) public papers; \r\n    mapping(uint256 => mapping(address => Access)) public accessControl; \r\n    \r\n    uint256 public paperCount;\r\n    address[] private userAddresses; \r\n\r\n    // Events\r\n    event UserRegistered(address indexed user, string name, Role role);\r\n    event UserDeactivated(address indexed user);\r\n    event PaperRequested(uint256 indexed paperId, address indexed teacher);\r\n    event PaperUploaded(uint256 indexed paperId, address indexed teacher, string fileCID, string keyCID);\r\n    event AccessGranted(uint256 indexed paperId, address indexed user, uint256 startTime, uint256 endTime);\r\n    event AccessRevoked(uint256 indexed paperId, address indexed user);\r\n\r\n    // Modifiers\r\n    modifier onlyOwner() {\r\n        require(msg.sender == Coe, \"Only contract owner can perform this this action\");\r\n        _;\r\n    }\r\n\r\n    modifier onlyTeacher() {\r\n        require(users[msg.sender].exists && users[msg.sender].role == Role.Teacher && users[msg.sender].isActive, \"Only active teachers can perform this action\");\r\n        _;\r\n    }\r\n\r\n    modifier onlyAuthorized(uint256 _paperId) {\r\n        require(\r\n            msg.sender == Coe || \r\n            (accessControl[_paperId][msg.sender].granted &&\r\n             block.timestamp >= accessControl[_paperId][msg.sender].startTime &&\r\n             block.timestamp <= accessControl[_paperId][msg.sender].endTime),\r\n            \"Access denied\"\r\n        );\r\n        _;\r\n    }\r\n\r\n    // Constructor\r\n    constructor() {\r\n        Coe = msg.sender;\r\n    }\r\n\r\n    // Functions\r\n    function registerUser(address _userAddress, string memory _name, Role _role, string memory _email, string memory _contactNumber) \r\n        external onlyOwner \r\n    {\r\n        require(!users[_userAddress].exists, \"User already registered\");\r\n        users[_userAddress] = User(_name, _role, _email, _contactNumber, true, true);\r\n        userAddresses.push(_userAddress); \r\n        emit UserRegistered(_userAddress, _name, _role);\r\n    }\r\n\r\n    function deactivateUser(address _userAddress) external onlyOwner {\r\n        require(users[_userAddress].exists, \"User not found\");\r\n        require(users[_userAddress].isActive, \"User already deactivated\");\r\n        users[_userAddress].isActive = false; \r\n        emit UserDeactivated(_userAddress);\r\n    }\r\n\r\n    function createPaperRequest(address _teacher, string memory _keyCID, string memory _ExamId,string memory _ExamName,string memory _Subject) external onlyOwner {\r\n        require(users[_teacher].exists && users[_teacher].role == Role.Teacher && users[_teacher].isActive, \"Invalid or inactive teacher\");\r\n        paperCount++;\r\n        papers[paperCount] = Paper(_teacher, \"\", _keyCID, _ExamId, _ExamName, _Subject ,PaperStatus.REQUESTED, true);\r\n        emit PaperRequested(paperCount, _teacher);\r\n    }\r\n\r\n    function uploadPaper(uint256 _paperId, string memory _fileCID) external onlyTeacher {\r\n        require(papers[_paperId].exists, \"Invalid paper\");\r\n        require(papers[_paperId].teacher == msg.sender, \"Not assigned teacher\");\r\n        require(bytes(papers[_paperId].fileCID).length == 0, \"Paper already uploaded\"); \r\n        \r\n        papers[_paperId].fileCID = _fileCID;\r\n        papers[_paperId].status = PaperStatus.UPLOADED;\r\n        \r\n        emit PaperUploaded(_paperId, msg.sender, _fileCID, papers[_paperId].keyCID);\r\n    }\r\n\r\n    function grantAccess(uint256 _paperId, address _user, uint256 _startTime, uint256 _endTime) external onlyOwner {\r\n        require(papers[_paperId].exists, \"Invalid paper\");\r\n        require(users[_user].exists && users[_user].isActive, \"Invalid or inactive user\");\r\n        require(papers[_paperId].status == PaperStatus.UPLOADED, \"Paper not uploaded\");\r\n        \r\n        accessControl[_paperId][_user] = Access(true, _startTime, _endTime);\r\n        emit AccessGranted(_paperId, _user, _startTime, _endTime);\r\n    }\r\n\r\n    function revokeAccess(uint256 _paperId, address _user) external onlyOwner {\r\n        require(accessControl[_paperId][_user].granted, \"No active access\");\r\n        accessControl[_paperId][_user].granted = false;\r\n        emit AccessRevoked(_paperId, _user);\r\n    }\r\n\r\n    function hasAccess(uint256 _paperId, address _user) external view returns (bool) {\r\n        Access memory access = accessControl[_paperId][_user];\r\n        return access.granted && block.timestamp >= access.startTime && block.timestamp <= access.endTime;\r\n    }\r\n\r\n    function getPaper(uint256 _paperId) external view onlyAuthorized(_paperId) returns (string memory fileCID, string memory keyCID) {\r\n        require(papers[_paperId].exists, \"Invalid paper\");\r\n        Paper memory paper = papers[_paperId];\r\n        return (paper.fileCID, paper.keyCID);\r\n    }\r\n\r\n    function getAllPapers() external view returns (Paper[] memory) {\r\n        Paper[] memory result = new Paper[](paperCount);\r\n        for (uint256 i = 1; i <= paperCount; i++) {\r\n            if (papers[i].exists) {\r\n                result[i - 1] = papers[i];\r\n            }\r\n        }\r\n        return result;\r\n    }\r\n\r\nfunction getAllUsers() external view returns (address[] memory, User[] memory) {\r\n    uint256 count = userAddresses.length;\r\n    User[] memory result = new User[](count);\r\n    address[] memory addresses = new address[](count);\r\n    for (uint256 i = 0; i < count; i++) {\r\n        addresses[i] = userAddresses[i];\r\n        result[i] = users[userAddresses[i]];\r\n    }\r\n    return (addresses, result);\r\n}\r\n\r\n}",
  "sourcePath": "D:\\truffle\\contracts\\QuestionPaperSystem.sol",
  "compiler": {
    "name": "solc",
    "version": "0.8.11+commit.d7f03943.Emscripten.clang"
  },
  "schemaVersion": "3.4.16",
  "updatedAt": "2025-03-11T17:53:48.610Z",
  "networkType": "ethereum",
  "devdoc": {
    "kind": "dev",
    "methods": {},
    "version": 1
  },
  "userdoc": {
    "kind": "user",
    "methods": {},
    "version": 1
  }
}