{
  "contractName": "QuestionPaperSystem",
  "abi": [
    {
      "inputs": [],
      "stateMutability": "nonpayable",
      "type": "constructor"
    },
    {
      "anonymous": false,
      "inputs": [
        {
          "indexed": true,
          "internalType": "uint256",
          "name": "paperId",
          "type": "uint256"
        },
        {
          "indexed": true,
          "internalType": "address",
          "name": "user",
          "type": "address"
        },
        {
          "indexed": false,
          "internalType": "uint256",
          "name": "startTime",
          "type": "uint256"
        },
        {
          "indexed": false,
          "internalType": "uint256",
          "name": "endTime",
          "type": "uint256"
        }
      ],
      "name": "AccessGranted",
      "type": "event"
    },
    {
      "anonymous": false,
      "inputs": [
        {
          "indexed": true,
          "internalType": "uint256",
          "name": "paperId",
          "type": "uint256"
        },
        {
          "indexed": true,
          "internalType": "address",
          "name": "user",
          "type": "address"
        }
      ],
      "name": "AccessRevoked",
      "type": "event"
    },
    {
      "anonymous": false,
      "inputs": [
        {
          "indexed": true,
          "internalType": "address",
          "name": "user",
          "type": "address"
        },
        {
          "indexed": false,
          "internalType": "uint256",
          "name": "paperId",
          "type": "uint256"
        },
        {
          "indexed": false,
          "internalType": "bool",
          "name": "success",
          "type": "bool"
        },
        {
          "indexed": false,
          "internalType": "string",
          "name": "reason",
          "type": "string"
        }
      ],
      "name": "PaperAccessAttempt",
      "type": "event"
    },
    {
      "anonymous": false,
      "inputs": [
        {
          "indexed": true,
          "internalType": "uint256",
          "name": "paperId",
          "type": "uint256"
        },
        {
          "indexed": true,
          "internalType": "address",
          "name": "teacher",
          "type": "address"
        }
      ],
      "name": "PaperRequested",
      "type": "event"
    },
    {
      "anonymous": false,
      "inputs": [
        {
          "indexed": true,
          "internalType": "uint256",
          "name": "paperId",
          "type": "uint256"
        },
        {
          "indexed": true,
          "internalType": "address",
          "name": "teacher",
          "type": "address"
        },
        {
          "indexed": false,
          "internalType": "string",
          "name": "fileCID",
          "type": "string"
        },
        {
          "indexed": false,
          "internalType": "string",
          "name": "keyCID",
          "type": "string"
        }
      ],
      "name": "PaperUploaded",
      "type": "event"
    },
    {
      "anonymous": false,
      "inputs": [
        {
          "indexed": true,
          "internalType": "address",
          "name": "user",
          "type": "address"
        }
      ],
      "name": "UserDeactivated",
      "type": "event"
    },
    {
      "anonymous": false,
      "inputs": [
        {
          "indexed": true,
          "internalType": "address",
          "name": "user",
          "type": "address"
        },
        {
          "indexed": false,
          "internalType": "string",
          "name": "name",
          "type": "string"
        },
        {
          "indexed": false,
          "internalType": "enum QuestionPaperSystem.Role",
          "name": "role",
          "type": "uint8"
        },
        {
          "indexed": false,
          "internalType": "bool",
          "name": "success",
          "type": "bool"
        }
      ],
      "name": "UserRegistered",
      "type": "event"
    },
    {
      "inputs": [],
      "name": "Coe",
      "outputs": [
        {
          "internalType": "address",
          "name": "",
          "type": "address"
        }
      ],
      "stateMutability": "view",
      "type": "function",
      "constant": true
    },
    {
      "inputs": [
        {
          "internalType": "uint256",
          "name": "",
          "type": "uint256"
        },
        {
          "internalType": "address",
          "name": "",
          "type": "address"
        }
      ],
      "name": "accessControl",
      "outputs": [
        {
          "internalType": "bool",
          "name": "granted",
          "type": "bool"
        },
        {
          "internalType": "uint256",
          "name": "startTime",
          "type": "uint256"
        },
        {
          "internalType": "uint256",
          "name": "endTime",
          "type": "uint256"
        }
      ],
      "stateMutability": "view",
      "type": "function",
      "constant": true
    },
    {
      "inputs": [],
      "name": "paperCount",
      "outputs": [
        {
          "internalType": "uint256",
          "name": "",
          "type": "uint256"
        }
      ],
      "stateMutability": "view",
      "type": "function",
      "constant": true
    },
    {
      "inputs": [
        {
          "internalType": "uint256",
          "name": "",
          "type": "uint256"
        }
      ],
      "name": "papers",
      "outputs": [
        {
          "internalType": "address",
          "name": "teacher",
          "type": "address"
        },
        {
          "internalType": "string",
          "name": "fileCID",
          "type": "string"
        },
        {
          "internalType": "string",
          "name": "keyCID",
          "type": "string"
        },
        {
          "internalType": "string",
          "name": "ExamId",
          "type": "string"
        },
        {
          "internalType": "string",
          "name": "ExamName",
          "type": "string"
        },
        {
          "internalType": "string",
          "name": "Subject",
          "type": "string"
        },
        {
          "internalType": "enum QuestionPaperSystem.PaperStatus",
          "name": "status",
          "type": "uint8"
        },
        {
          "internalType": "bool",
          "name": "exists",
          "type": "bool"
        }
      ],
      "stateMutability": "view",
      "type": "function",
      "constant": true
    },
    {
      "inputs": [
        {
          "internalType": "address",
          "name": "",
          "type": "address"
        }
      ],
      "name": "users",
      "outputs": [
        {
          "internalType": "string",
          "name": "name",
          "type": "string"
        },
        {
          "internalType": "enum QuestionPaperSystem.Role",
          "name": "role",
          "type": "uint8"
        },
        {
          "internalType": "string",
          "name": "email",
          "type": "string"
        },
        {
          "internalType": "string",
          "name": "contactNumber",
          "type": "string"
        },
        {
          "internalType": "bool",
          "name": "exists",
          "type": "bool"
        },
        {
          "internalType": "bool",
          "name": "isActive",
          "type": "bool"
        }
      ],
      "stateMutability": "view",
      "type": "function",
      "constant": true
    },
    {
      "inputs": [
        {
          "internalType": "address",
          "name": "_userAddress",
          "type": "address"
        },
        {
          "internalType": "string",
          "name": "_name",
          "type": "string"
        },
        {
          "internalType": "enum QuestionPaperSystem.Role",
          "name": "_role",
          "type": "uint8"
        },
        {
          "internalType": "string",
          "name": "_email",
          "type": "string"
        },
        {
          "internalType": "string",
          "name": "_contactNumber",
          "type": "string"
        }
      ],
      "name": "registerUser",
      "outputs": [],
      "stateMutability": "nonpayable",
      "type": "function"
    },
    {
      "inputs": [
        {
          "internalType": "address",
          "name": "_userAddress",
          "type": "address"
        }
      ],
      "name": "deactivateUser",
      "outputs": [],
      "stateMutability": "nonpayable",
      "type": "function"
    },
    {
      "inputs": [
        {
          "internalType": "address",
          "name": "_teacher",
          "type": "address"
        },
        {
          "internalType": "string",
          "name": "_keyCID",
          "type": "string"
        },
        {
          "internalType": "string",
          "name": "_ExamId",
          "type": "string"
        },
        {
          "internalType": "string",
          "name": "_ExamName",
          "type": "string"
        },
        {
          "internalType": "string",
          "name": "_Subject",
          "type": "string"
        }
      ],
      "name": "createPaperRequest",
      "outputs": [],
      "stateMutability": "nonpayable",
      "type": "function"
    },
    {
      "inputs": [
        {
          "internalType": "uint256",
          "name": "_paperId",
          "type": "uint256"
        },
        {
          "internalType": "string",
          "name": "_fileCID",
          "type": "string"
        }
      ],
      "name": "uploadPaper",
      "outputs": [],
      "stateMutability": "nonpayable",
      "type": "function"
    },
    {
      "inputs": [
        {
          "internalType": "uint256",
          "name": "_paperId",
          "type": "uint256"
        },
        {
          "internalType": "address",
          "name": "_user",
          "type": "address"
        },
        {
          "internalType": "uint256",
          "name": "_startTime",
          "type": "uint256"
        },
        {
          "internalType": "uint256",
          "name": "_endTime",
          "type": "uint256"
        }
      ],
      "name": "grantAccess",
      "outputs": [],
      "stateMutability": "nonpayable",
      "type": "function"
    },
    {
      "inputs": [
        {
          "internalType": "uint256",
          "name": "_paperId",
          "type": "uint256"
        },
        {
          "internalType": "address",
          "name": "_user",
          "type": "address"
        }
      ],
      "name": "revokeAccess",
      "outputs": [],
      "stateMutability": "nonpayable",
      "type": "function"
    },
    {
      "inputs": [
        {
          "internalType": "uint256",
          "name": "_paperId",
          "type": "uint256"
        },
        {
          "internalType": "address",
          "name": "_user",
          "type": "address"
        }
      ],
      "name": "hasAccess",
      "outputs": [
        {
          "internalType": "bool",
          "name": "",
          "type": "bool"
        },
        {
          "internalType": "uint256",
          "name": "",
          "type": "uint256"
        },
        {
          "internalType": "uint256",
          "name": "",
          "type": "uint256"
        }
      ],
      "stateMutability": "view",
      "type": "function",
      "constant": true
    },
    {
      "inputs": [
        {
          "internalType": "uint256",
          "name": "_paperId",
          "type": "uint256"
        }
      ],
      "name": "getPaper",
      "outputs": [
        {
          "internalType": "string",
          "name": "fileCID",
          "type": "string"
        },
        {
          "internalType": "string",
          "name": "keyCID",
          "type": "string"
        },
        {
          "internalType": "string",
          "name": "ExamId",
          "type": "string"
        },
        {
          "internalType": "string",
          "name": "ExamName",
          "type": "string"
        },
        {
          "internalType": "string",
          "name": "Subject",
          "type": "string"
        },
        {
          "internalType": "uint8",
          "name": "status",
          "type": "uint8"
        }
      ],
      "stateMutability": "nonpayable",
      "type": "function"
    },
    {
      "inputs": [],
      "name": "getAllPapers",
      "outputs": [
        {
          "components": [
            {
              "internalType": "address",
              "name": "teacher",
              "type": "address"
            },
            {
              "internalType": "string",
              "name": "fileCID",
              "type": "string"
            },
            {
              "internalType": "string",
              "name": "keyCID",
              "type": "string"
            },
            {
              "internalType": "string",
              "name": "ExamId",
              "type": "string"
            },
            {
              "internalType": "string",
              "name": "ExamName",
              "type": "string"
            },
            {
              "internalType": "string",
              "name": "Subject",
              "type": "string"
            },
            {
              "internalType": "enum QuestionPaperSystem.PaperStatus",
              "name": "status",
              "type": "uint8"
            },
            {
              "internalType": "bool",
              "name": "exists",
              "type": "bool"
            }
          ],
          "internalType": "struct QuestionPaperSystem.Paper[]",
          "name": "",
          "type": "tuple[]"
        }
      ],
      "stateMutability": "view",
      "type": "function",
      "constant": true
    },
    {
      "inputs": [],
      "name": "getAllUsers",
      "outputs": [
        {
          "internalType": "address[]",
          "name": "",
          "type": "address[]"
        },
        {
          "components": [
            {
              "internalType": "string",
              "name": "name",
              "type": "string"
            },
            {
              "internalType": "enum QuestionPaperSystem.Role",
              "name": "role",
              "type": "uint8"
            },
            {
              "internalType": "string",
              "name": "email",
              "type": "string"
            },
            {
              "internalType": "string",
              "name": "contactNumber",
              "type": "string"
            },
            {
              "internalType": "bool",
              "name": "exists",
              "type": "bool"
            },
            {
              "internalType": "bool",
              "name": "isActive",
              "type": "bool"
            }
          ],
          "internalType": "struct QuestionPaperSystem.User[]",
          "name": "",
          "type": "tuple[]"
        }
      ],
      "stateMutability": "view",
      "type": "function",
      "constant": true
    }
  ],
  "bytecode": "0x608060405234801561001057600080fd5b50336000806101000a81548173ffffffffffffffffffffffffffffffffffffffff021916908373ffffffffffffffffffffffffffffffffffffffff160217905550614659806100606000396000f3fe608060405234801561001057600080fd5b50600436106100f55760003560e01c8063a56c2cb911610097578063d9a5ec1b11610066578063d9a5ec1b14610297578063dd6821b0146102b3578063e2842d79146102cf578063f13f309d146102ee576100f5565b8063a56c2cb9146101f6578063a87430ba14610214578063ca16221414610249578063ced1419814610265576100f5565b8063381c5c8a116100d3578063381c5c8a146101675780633f1a39a0146101855780634f13a86b146101a35780635e775a27146101bf576100f5565b80630533f021146100fa57806307993f04146101165780631a47767b1461014b575b600080fd5b610114600480360381019061010f9190613005565b610320565b005b610130600480360381019061012b919061306c565b61067e565b6040516101429695949392919061314e565b60405180910390f35b610165600480360381019061016091906131d2565b610d81565b005b61016f610fce565b60405161017c919061320e565b60405180910390f35b61018d610ff2565b60405161019a91906134a2565b60405180910390f35b6101bd60048036038101906101b891906135f9565b611472565b005b6101d960048036038101906101d4919061306c565b611818565b6040516101ed989796959493929190613673565b60405180910390f35b6101fe611b42565b60405161020b9190613723565b60405180910390f35b61022e600480360381019061022991906131d2565b611b48565b60405161024096959493929190613786565b60405180910390f35b610263600480360381019061025e9190613821565b611d43565b005b61027f600480360381019061027a91906138f0565b612174565b60405161028e93929190613930565b60405180910390f35b6102b160048036038101906102ac91906138f0565b612394565b005b6102cd60048036038101906102c89190613967565b612576565b005b6102d7612984565b6040516102e5929190613c69565b60405180910390f35b610308600480360381019061030391906138f0565b612dbb565b60405161031793929190613930565b60405180910390f35b60008054906101000a900473ffffffffffffffffffffffffffffffffffffffff1673ffffffffffffffffffffffffffffffffffffffff163373ffffffffffffffffffffffffffffffffffffffff16146103ae576040517f08c379a00000000000000000000000000000000000000000000000000000000081526004016103a590613d12565b60405180910390fd5b6002600085815260200190815260200160002060060160019054906101000a900460ff16610411576040517f08c379a000000000000000000000000000000000000000000000000000000000815260040161040890613d7e565b60405180910390fd5b600160008473ffffffffffffffffffffffffffffffffffffffff1673ffffffffffffffffffffffffffffffffffffffff16815260200190815260200160002060040160009054906101000a900460ff1680156104b95750600160008473ffffffffffffffffffffffffffffffffffffffff1673ffffffffffffffffffffffffffffffffffffffff16815260200190815260200160002060040160019054906101000a900460ff165b6104f8576040517f08c379a00000000000000000000000000000000000000000000000000000000081526004016104ef90613dea565b60405180910390fd5b6001600281111561050c5761050b6132ae565b5b6002600086815260200190815260200160002060060160009054906101000a900460ff166002811115610542576105416132ae565b5b14610582576040517f08c379a000000000000000000000000000000000000000000000000000000000815260040161057990613e56565b60405180910390fd5b6040518060600160405280600115158152602001838152602001828152506003600086815260200190815260200160002060008573ffffffffffffffffffffffffffffffffffffffff1673ffffffffffffffffffffffffffffffffffffffff16815260200190815260200160002060008201518160000160006101000a81548160ff02191690831515021790555060208201518160010155604082015181600201559050508273ffffffffffffffffffffffffffffffffffffffff16847f239a3566552fea15efcb7f329e00f63b2bef916135e5ca3e6fcb3279d688e37e8484604051610670929190613e76565b60405180910390a350505050565b606080606080606060006002600088815260200190815260200160002060060160019054906101000a900460ff1661073c573373ffffffffffffffffffffffffffffffffffffffff167f3cc27fde9eb0585fd46ef6239b40c18635c9ff3e2d2fefe4d82a5a1f8d66025c8860006040516106f9929190613eeb565b60405180910390a26040517f08c379a000000000000000000000000000000000000000000000000000000000815260040161073390613d7e565b60405180910390fd5b60008054906101000a900473ffffffffffffffffffffffffffffffffffffffff1673ffffffffffffffffffffffffffffffffffffffff163373ffffffffffffffffffffffffffffffffffffffff1614806108b157506003600088815260200190815260200160002060003373ffffffffffffffffffffffffffffffffffffffff1673ffffffffffffffffffffffffffffffffffffffff16815260200190815260200160002060000160009054906101000a900460ff16801561085157506003600088815260200190815260200160002060003373ffffffffffffffffffffffffffffffffffffffff1673ffffffffffffffffffffffffffffffffffffffff168152602001908152602001600020600101544210155b80156108b057506003600088815260200190815260200160002060003373ffffffffffffffffffffffffffffffffffffffff1673ffffffffffffffffffffffffffffffffffffffff168152602001908152602001600020600201544211155b5b610941573373ffffffffffffffffffffffffffffffffffffffff167f3cc27fde9eb0585fd46ef6239b40c18635c9ff3e2d2fefe4d82a5a1f8d66025c8860006040516108fe929190613f73565b60405180910390a26040517f08c379a000000000000000000000000000000000000000000000000000000000815260040161093890613faf565b60405180910390fd5b600060026000898152602001908152602001600020604051806101000160405290816000820160009054906101000a900473ffffffffffffffffffffffffffffffffffffffff1673ffffffffffffffffffffffffffffffffffffffff1673ffffffffffffffffffffffffffffffffffffffff1681526020016001820180546109c890613ffe565b80601f01602080910402602001604051908101604052809291908181526020018280546109f490613ffe565b8015610a415780601f10610a1657610100808354040283529160200191610a41565b820191906000526020600020905b815481529060010190602001808311610a2457829003601f168201915b50505050508152602001600282018054610a5a90613ffe565b80601f0160208091040260200160405190810160405280929190818152602001828054610a8690613ffe565b8015610ad35780601f10610aa857610100808354040283529160200191610ad3565b820191906000526020600020905b815481529060010190602001808311610ab657829003601f168201915b50505050508152602001600382018054610aec90613ffe565b80601f0160208091040260200160405190810160405280929190818152602001828054610b1890613ffe565b8015610b655780601f10610b3a57610100808354040283529160200191610b65565b820191906000526020600020905b815481529060010190602001808311610b4857829003601f168201915b50505050508152602001600482018054610b7e90613ffe565b80601f0160208091040260200160405190810160405280929190818152602001828054610baa90613ffe565b8015610bf75780601f10610bcc57610100808354040283529160200191610bf7565b820191906000526020600020905b815481529060010190602001808311610bda57829003601f168201915b50505050508152602001600582018054610c1090613ffe565b80601f0160208091040260200160405190810160405280929190818152602001828054610c3c90613ffe565b8015610c895780601f10610c5e57610100808354040283529160200191610c89565b820191906000526020600020905b815481529060010190602001808311610c6c57829003601f168201915b505050505081526020016006820160009054906101000a900460ff166002811115610cb757610cb66132ae565b5b6002811115610cc957610cc86132ae565b5b81526020016006820160019054906101000a900460ff16151515158152505090503373ffffffffffffffffffffffffffffffffffffffff167f3cc27fde9eb0585fd46ef6239b40c18635c9ff3e2d2fefe4d82a5a1f8d66025c896001604051610d3392919061407c565b60405180910390a280602001518160400151826060015183608001518460a001518560c001516002811115610d6b57610d6a6132ae565b5b9650965096509650965096505091939550919395565b60008054906101000a900473ffffffffffffffffffffffffffffffffffffffff1673ffffffffffffffffffffffffffffffffffffffff163373ffffffffffffffffffffffffffffffffffffffff1614610e0f576040517f08c379a0000000000000000000000000000000000000000000000000000000008152600401610e0690613d12565b60405180910390fd5b600160008273ffffffffffffffffffffffffffffffffffffffff1673ffffffffffffffffffffffffffffffffffffffff16815260200190815260200160002060040160009054906101000a900460ff16610e9e576040517f08c379a0000000000000000000000000000000000000000000000000000000008152600401610e9590614104565b60405180910390fd5b600160008273ffffffffffffffffffffffffffffffffffffffff1673ffffffffffffffffffffffffffffffffffffffff16815260200190815260200160002060040160019054906101000a900460ff16610f2d576040517f08c379a0000000000000000000000000000000000000000000000000000000008152600401610f2490614170565b60405180910390fd5b6000600160008373ffffffffffffffffffffffffffffffffffffffff1673ffffffffffffffffffffffffffffffffffffffff16815260200190815260200160002060040160016101000a81548160ff0219169083151502179055508073ffffffffffffffffffffffffffffffffffffffff167f5554feec4e87bc4eba14bd62f71df68156f97d26128616fbc27d28e33b35a6b460405160405180910390a250565b60008054906101000a900473ffffffffffffffffffffffffffffffffffffffff1681565b6060600060045467ffffffffffffffff811115611012576110116134ce565b5b60405190808252806020026020018201604052801561104b57816020015b611038612dff565b8152602001906001900390816110305790505b5090506000600190505b600454811161146a576002600082815260200190815260200160002060060160019054906101000a900460ff16156114575760026000828152602001908152602001600020604051806101000160405290816000820160009054906101000a900473ffffffffffffffffffffffffffffffffffffffff1673ffffffffffffffffffffffffffffffffffffffff1673ffffffffffffffffffffffffffffffffffffffff16815260200160018201805461110c90613ffe565b80601f016020809104026020016040519081016040528092919081815260200182805461113890613ffe565b80156111855780601f1061115a57610100808354040283529160200191611185565b820191906000526020600020905b81548152906001019060200180831161116857829003601f168201915b5050505050815260200160028201805461119e90613ffe565b80601f01602080910402602001604051908101604052809291908181526020018280546111ca90613ffe565b80156112175780601f106111ec57610100808354040283529160200191611217565b820191906000526020600020905b8154815290600101906020018083116111fa57829003601f168201915b5050505050815260200160038201805461123090613ffe565b80601f016020809104026020016040519081016040528092919081815260200182805461125c90613ffe565b80156112a95780601f1061127e576101008083540402835291602001916112a9565b820191906000526020600020905b81548152906001019060200180831161128c57829003601f168201915b505050505081526020016004820180546112c290613ffe565b80601f01602080910402602001604051908101604052809291908181526020018280546112ee90613ffe565b801561133b5780601f106113105761010080835404028352916020019161133b565b820191906000526020600020905b81548152906001019060200180831161131e57829003601f168201915b5050505050815260200160058201805461135490613ffe565b80601f016020809104026020016040519081016040528092919081815260200182805461138090613ffe565b80156113cd5780601f106113a2576101008083540402835291602001916113cd565b820191906000526020600020905b8154815290600101906020018083116113b057829003601f168201915b505050505081526020016006820160009054906101000a900460ff1660028111156113fb576113fa6132ae565b5b600281111561140d5761140c6132ae565b5b81526020016006820160019054906101000a900460ff1615151515815250508260018361143a91906141bf565b8151811061144b5761144a6141f3565b5b60200260200101819052505b808061146290614222565b915050611055565b508091505090565b600160003373ffffffffffffffffffffffffffffffffffffffff1673ffffffffffffffffffffffffffffffffffffffff16815260200190815260200160002060040160009054906101000a900460ff1680156115415750600060028111156114dd576114dc6132ae565b5b600160003373ffffffffffffffffffffffffffffffffffffffff1673ffffffffffffffffffffffffffffffffffffffff16815260200190815260200160002060010160009054906101000a900460ff16600281111561153f5761153e6132ae565b5b145b80156115995750600160003373ffffffffffffffffffffffffffffffffffffffff1673ffffffffffffffffffffffffffffffffffffffff16815260200190815260200160002060040160019054906101000a900460ff165b6115d8576040517f08c379a00000000000000000000000000000000000000000000000000000000081526004016115cf906142dd565b60405180910390fd5b6002600083815260200190815260200160002060060160019054906101000a900460ff1661163b576040517f08c379a000000000000000000000000000000000000000000000000000000000815260040161163290613d7e565b60405180910390fd5b3373ffffffffffffffffffffffffffffffffffffffff166002600084815260200190815260200160002060000160009054906101000a900473ffffffffffffffffffffffffffffffffffffffff1673ffffffffffffffffffffffffffffffffffffffff16146116df576040517f08c379a00000000000000000000000000000000000000000000000000000000081526004016116d690614349565b60405180910390fd5b600060026000848152602001908152602001600020600101805461170290613ffe565b905014611744576040517f08c379a000000000000000000000000000000000000000000000000000000000815260040161173b906143b5565b60405180910390fd5b8060026000848152602001908152602001600020600101908051906020019061176e929190612e6e565b5060016002600084815260200190815260200160002060060160006101000a81548160ff021916908360028111156117a9576117a86132ae565b5b02179055503373ffffffffffffffffffffffffffffffffffffffff16827f356d2993db12c6b0585c873fff9e18a6b9821484e9289f092a4609e12f30b3e0836002600087815260200190815260200160002060020160405161180c92919061446a565b60405180910390a35050565b60026020528060005260406000206000915090508060000160009054906101000a900473ffffffffffffffffffffffffffffffffffffffff169080600101805461186190613ffe565b80601f016020809104026020016040519081016040528092919081815260200182805461188d90613ffe565b80156118da5780601f106118af576101008083540402835291602001916118da565b820191906000526020600020905b8154815290600101906020018083116118bd57829003601f168201915b5050505050908060020180546118ef90613ffe565b80601f016020809104026020016040519081016040528092919081815260200182805461191b90613ffe565b80156119685780601f1061193d57610100808354040283529160200191611968565b820191906000526020600020905b81548152906001019060200180831161194b57829003601f168201915b50505050509080600301805461197d90613ffe565b80601f01602080910402602001604051908101604052809291908181526020018280546119a990613ffe565b80156119f65780601f106119cb576101008083540402835291602001916119f6565b820191906000526020600020905b8154815290600101906020018083116119d957829003601f168201915b505050505090806004018054611a0b90613ffe565b80601f0160208091040260200160405190810160405280929190818152602001828054611a3790613ffe565b8015611a845780601f10611a5957610100808354040283529160200191611a84565b820191906000526020600020905b815481529060010190602001808311611a6757829003601f168201915b505050505090806005018054611a9990613ffe565b80601f0160208091040260200160405190810160405280929190818152602001828054611ac590613ffe565b8015611b125780601f10611ae757610100808354040283529160200191611b12565b820191906000526020600020905b815481529060010190602001808311611af557829003601f168201915b5050505050908060060160009054906101000a900460ff16908060060160019054906101000a900460ff16905088565b60045481565b6001602052806000526040600020600091509050806000018054611b6b90613ffe565b80601f0160208091040260200160405190810160405280929190818152602001828054611b9790613ffe565b8015611be45780601f10611bb957610100808354040283529160200191611be4565b820191906000526020600020905b815481529060010190602001808311611bc757829003601f168201915b5050505050908060010160009054906101000a900460ff1690806002018054611c0c90613ffe565b80601f0160208091040260200160405190810160405280929190818152602001828054611c3890613ffe565b8015611c855780601f10611c5a57610100808354040283529160200191611c85565b820191906000526020600020905b815481529060010190602001808311611c6857829003601f168201915b505050505090806003018054611c9a90613ffe565b80601f0160208091040260200160405190810160405280929190818152602001828054611cc690613ffe565b8015611d135780601f10611ce857610100808354040283529160200191611d13565b820191906000526020600020905b815481529060010190602001808311611cf657829003601f168201915b5050505050908060040160009054906101000a900460ff16908060040160019054906101000a900460ff16905086565b60008054906101000a900473ffffffffffffffffffffffffffffffffffffffff1673ffffffffffffffffffffffffffffffffffffffff163373ffffffffffffffffffffffffffffffffffffffff1614611dd1576040517f08c379a0000000000000000000000000000000000000000000000000000000008152600401611dc890613d12565b60405180910390fd5b600160008673ffffffffffffffffffffffffffffffffffffffff1673ffffffffffffffffffffffffffffffffffffffff16815260200190815260200160002060040160009054906101000a900460ff1615611f6857600160008673ffffffffffffffffffffffffffffffffffffffff1673ffffffffffffffffffffffffffffffffffffffff16815260200190815260200160002060040160019054906101000a900460ff1615611eb6576040517f08c379a0000000000000000000000000000000000000000000000000000000008152600401611ead906144ed565b60405180910390fd5b60018060008773ffffffffffffffffffffffffffffffffffffffff1673ffffffffffffffffffffffffffffffffffffffff16815260200190815260200160002060040160016101000a81548160ff0219169083151502179055508473ffffffffffffffffffffffffffffffffffffffff167f72d8d77f9816e8c83bcabddaf5663aec70ae11649d0f4e7f57cf25dc5e2f9a0885856001604051611f5b9392919061450d565b60405180910390a261216d565b6040518060c00160405280858152602001846002811115611f8c57611f8b6132ae565b5b815260200183815260200182815260200160011515815260200160011515815250600160008773ffffffffffffffffffffffffffffffffffffffff1673ffffffffffffffffffffffffffffffffffffffff1681526020019081526020016000206000820151816000019080519060200190612008929190612e6e565b5060208201518160010160006101000a81548160ff02191690836002811115612034576120336132ae565b5b02179055506040820151816002019080519060200190612055929190612e6e565b506060820151816003019080519060200190612072929190612e6e565b5060808201518160040160006101000a81548160ff02191690831515021790555060a08201518160040160016101000a81548160ff0219169083151502179055509050506005859080600181540180825580915050600190039060005260206000200160009091909190916101000a81548173ffffffffffffffffffffffffffffffffffffffff021916908373ffffffffffffffffffffffffffffffffffffffff1602179055508473ffffffffffffffffffffffffffffffffffffffff167f72d8d77f9816e8c83bcabddaf5663aec70ae11649d0f4e7f57cf25dc5e2f9a08858560016040516121649392919061450d565b60405180910390a25b5050505050565b60008060006002600086815260200190815260200160002060060160019054906101000a900460ff166121dc576040517f08c379a00000000000000000000000000000000000000000000000000000000081526004016121d390613d7e565b60405180910390fd5b600160008573ffffffffffffffffffffffffffffffffffffffff1673ffffffffffffffffffffffffffffffffffffffff16815260200190815260200160002060040160009054906101000a900460ff1680156122845750600160008573ffffffffffffffffffffffffffffffffffffffff1673ffffffffffffffffffffffffffffffffffffffff16815260200190815260200160002060040160019054906101000a900460ff165b6122c3576040517f08c379a00000000000000000000000000000000000000000000000000000000081526004016122ba90613dea565b60405180910390fd5b60006003600087815260200190815260200160002060008673ffffffffffffffffffffffffffffffffffffffff1673ffffffffffffffffffffffffffffffffffffffff1681526020019081526020016000206040518060600160405290816000820160009054906101000a900460ff16151515158152602001600182015481526020016002820154815250509050600081600001518015612368575081602001514210155b8015612378575081604001514211155b9050808260200151836040015194509450945050509250925092565b60008054906101000a900473ffffffffffffffffffffffffffffffffffffffff1673ffffffffffffffffffffffffffffffffffffffff163373ffffffffffffffffffffffffffffffffffffffff1614612422576040517f08c379a000000000000000000000000000000000000000000000000000000000815260040161241990613d12565b60405180910390fd5b6003600083815260200190815260200160002060008273ffffffffffffffffffffffffffffffffffffffff1673ffffffffffffffffffffffffffffffffffffffff16815260200190815260200160002060000160009054906101000a900460ff166124c2576040517f08c379a00000000000000000000000000000000000000000000000000000000081526004016124b990614597565b60405180910390fd5b60006003600084815260200190815260200160002060008373ffffffffffffffffffffffffffffffffffffffff1673ffffffffffffffffffffffffffffffffffffffff16815260200190815260200160002060000160006101000a81548160ff0219169083151502179055508073ffffffffffffffffffffffffffffffffffffffff16827f125883b94692baebecad9f111ed97ffa626523bbbadc6b0ef85ee1b56b9e52d560405160405180910390a35050565b60008054906101000a900473ffffffffffffffffffffffffffffffffffffffff1673ffffffffffffffffffffffffffffffffffffffff163373ffffffffffffffffffffffffffffffffffffffff1614612604576040517f08c379a00000000000000000000000000000000000000000000000000000000081526004016125fb90613d12565b60405180910390fd5b600160008673ffffffffffffffffffffffffffffffffffffffff1673ffffffffffffffffffffffffffffffffffffffff16815260200190815260200160002060040160009054906101000a900460ff1680156126d357506000600281111561266f5761266e6132ae565b5b600160008773ffffffffffffffffffffffffffffffffffffffff1673ffffffffffffffffffffffffffffffffffffffff16815260200190815260200160002060010160009054906101000a900460ff1660028111156126d1576126d06132ae565b5b145b801561272b5750600160008673ffffffffffffffffffffffffffffffffffffffff1673ffffffffffffffffffffffffffffffffffffffff16815260200190815260200160002060040160019054906101000a900460ff165b61276a576040517f08c379a000000000000000000000000000000000000000000000000000000000815260040161276190614603565b60405180910390fd5b6004600081548092919061277d90614222565b91905055506040518061010001604052808673ffffffffffffffffffffffffffffffffffffffff168152602001604051806020016040528060008152508152602001858152602001848152602001838152602001828152602001600060028111156127eb576127ea6132ae565b5b81526020016001151581525060026000600454815260200190815260200160002060008201518160000160006101000a81548173ffffffffffffffffffffffffffffffffffffffff021916908373ffffffffffffffffffffffffffffffffffffffff160217905550602082015181600101908051906020019061286f929190612e6e565b50604082015181600201908051906020019061288c929190612e6e565b5060608201518160030190805190602001906128a9929190612e6e565b5060808201518160040190805190602001906128c6929190612e6e565b5060a08201518160050190805190602001906128e3929190612e6e565b5060c08201518160060160006101000a81548160ff0219169083600281111561290f5761290e6132ae565b5b021790555060e08201518160060160016101000a81548160ff0219169083151502179055509050508473ffffffffffffffffffffffffffffffffffffffff166004547f6454790994d9c0b5b58a3d9e16e4a9a6016714c7a639fa461afa0ce43be9591c60405160405180910390a35050505050565b6060806000600580549050905060008167ffffffffffffffff8111156129ad576129ac6134ce565b5b6040519080825280602002602001820160405280156129e657816020015b6129d3612ef4565b8152602001906001900390816129cb5790505b50905060008267ffffffffffffffff811115612a0557612a046134ce565b5b604051908082528060200260200182016040528015612a335781602001602082028036833780820191505090505b50905060005b83811015612dad5760058181548110612a5557612a546141f3565b5b9060005260206000200160009054906101000a900473ffffffffffffffffffffffffffffffffffffffff16828281518110612a9357612a926141f3565b5b602002602001019073ffffffffffffffffffffffffffffffffffffffff16908173ffffffffffffffffffffffffffffffffffffffff16815250506001600060058381548110612ae557612ae46141f3565b5b9060005260206000200160009054906101000a900473ffffffffffffffffffffffffffffffffffffffff1673ffffffffffffffffffffffffffffffffffffffff1673ffffffffffffffffffffffffffffffffffffffff1681526020019081526020016000206040518060c0016040529081600082018054612b6590613ffe565b80601f0160208091040260200160405190810160405280929190818152602001828054612b9190613ffe565b8015612bde5780601f10612bb357610100808354040283529160200191612bde565b820191906000526020600020905b815481529060010190602001808311612bc157829003601f168201915b505050505081526020016001820160009054906101000a900460ff166002811115612c0c57612c0b6132ae565b5b6002811115612c1e57612c1d6132ae565b5b8152602001600282018054612c3290613ffe565b80601f0160208091040260200160405190810160405280929190818152602001828054612c5e90613ffe565b8015612cab5780601f10612c8057610100808354040283529160200191612cab565b820191906000526020600020905b815481529060010190602001808311612c8e57829003601f168201915b50505050508152602001600382018054612cc490613ffe565b80601f0160208091040260200160405190810160405280929190818152602001828054612cf090613ffe565b8015612d3d5780601f10612d1257610100808354040283529160200191612d3d565b820191906000526020600020905b815481529060010190602001808311612d2057829003601f168201915b505050505081526020016004820160009054906101000a900460ff161515151581526020016004820160019054906101000a900460ff161515151581525050838281518110612d8f57612d8e6141f3565b5b60200260200101819052508080612da590614222565b915050612a39565b508082945094505050509091565b6003602052816000526040600020602052806000526040600020600091509150508060000160009054906101000a900460ff16908060010154908060020154905083565b604051806101000160405280600073ffffffffffffffffffffffffffffffffffffffff168152602001606081526020016060815260200160608152602001606081526020016060815260200160006002811115612e5f57612e5e6132ae565b5b81526020016000151581525090565b828054612e7a90613ffe565b90600052602060002090601f016020900481019282612e9c5760008555612ee3565b82601f10612eb557805160ff1916838001178555612ee3565b82800160010185558215612ee3579182015b82811115612ee2578251825591602001919060010190612ec7565b5b509050612ef09190612f40565b5090565b6040518060c001604052806060815260200160006002811115612f1a57612f196132ae565b5b815260200160608152602001606081526020016000151581526020016000151581525090565b5b80821115612f59576000816000905550600101612f41565b5090565b6000604051905090565b600080fd5b600080fd5b6000819050919050565b612f8481612f71565b8114612f8f57600080fd5b50565b600081359050612fa181612f7b565b92915050565b600073ffffffffffffffffffffffffffffffffffffffff82169050919050565b6000612fd282612fa7565b9050919050565b612fe281612fc7565b8114612fed57600080fd5b50565b600081359050612fff81612fd9565b92915050565b6000806000806080858703121561301f5761301e612f67565b5b600061302d87828801612f92565b945050602061303e87828801612ff0565b935050604061304f87828801612f92565b925050606061306087828801612f92565b91505092959194509250565b60006020828403121561308257613081612f67565b5b600061309084828501612f92565b91505092915050565b600081519050919050565b600082825260208201905092915050565b60005b838110156130d35780820151818401526020810190506130b8565b838111156130e2576000848401525b50505050565b6000601f19601f8301169050919050565b600061310482613099565b61310e81856130a4565b935061311e8185602086016130b5565b613127816130e8565b840191505092915050565b600060ff82169050919050565b61314881613132565b82525050565b600060c082019050818103600083015261316881896130f9565b9050818103602083015261317c81886130f9565b9050818103604083015261319081876130f9565b905081810360608301526131a481866130f9565b905081810360808301526131b881856130f9565b90506131c760a083018461313f565b979650505050505050565b6000602082840312156131e8576131e7612f67565b5b60006131f684828501612ff0565b91505092915050565b61320881612fc7565b82525050565b600060208201905061322360008301846131ff565b92915050565b600081519050919050565b600082825260208201905092915050565b6000819050602082019050919050565b61325e81612fc7565b82525050565b600082825260208201905092915050565b600061328082613099565b61328a8185613264565b935061329a8185602086016130b5565b6132a3816130e8565b840191505092915050565b7f4e487b7100000000000000000000000000000000000000000000000000000000600052602160045260246000fd5b600381106132ee576132ed6132ae565b5b50565b60008190506132ff826132dd565b919050565b600061330f826132f1565b9050919050565b61331f81613304565b82525050565b60008115159050919050565b61333a81613325565b82525050565b6000610100830160008301516133596000860182613255565b50602083015184820360208601526133718282613275565b9150506040830151848203604086015261338b8282613275565b915050606083015184820360608601526133a58282613275565b915050608083015184820360808601526133bf8282613275565b91505060a083015184820360a08601526133d98282613275565b91505060c08301516133ee60c0860182613316565b5060e083015161340160e0860182613331565b508091505092915050565b60006134188383613340565b905092915050565b6000602082019050919050565b600061343882613229565b6134428185613234565b93508360208202850161345485613245565b8060005b858110156134905784840389528151613471858261340c565b945061347c83613420565b925060208a01995050600181019050613458565b50829750879550505050505092915050565b600060208201905081810360008301526134bc818461342d565b905092915050565b600080fd5b600080fd5b7f4e487b7100000000000000000000000000000000000000000000000000000000600052604160045260246000fd5b613506826130e8565b810181811067ffffffffffffffff82111715613525576135246134ce565b5b80604052505050565b6000613538612f5d565b905061354482826134fd565b919050565b600067ffffffffffffffff821115613564576135636134ce565b5b61356d826130e8565b9050602081019050919050565b82818337600083830152505050565b600061359c61359784613549565b61352e565b9050828152602081018484840111156135b8576135b76134c9565b5b6135c384828561357a565b509392505050565b600082601f8301126135e0576135df6134c4565b5b81356135f0848260208601613589565b91505092915050565b600080604083850312156136105761360f612f67565b5b600061361e85828601612f92565b925050602083013567ffffffffffffffff81111561363f5761363e612f6c565b5b61364b858286016135cb565b9150509250929050565b61365e81613304565b82525050565b61366d81613325565b82525050565b600061010082019050613689600083018b6131ff565b818103602083015261369b818a6130f9565b905081810360408301526136af81896130f9565b905081810360608301526136c381886130f9565b905081810360808301526136d781876130f9565b905081810360a08301526136eb81866130f9565b90506136fa60c0830185613655565b61370760e0830184613664565b9998505050505050505050565b61371d81612f71565b82525050565b60006020820190506137386000830184613714565b92915050565b6003811061374f5761374e6132ae565b5b50565b60008190506137608261373e565b919050565b600061377082613752565b9050919050565b61378081613765565b82525050565b600060c08201905081810360008301526137a081896130f9565b90506137af6020830188613777565b81810360408301526137c181876130f9565b905081810360608301526137d581866130f9565b90506137e46080830185613664565b6137f160a0830184613664565b979650505050505050565b6003811061380957600080fd5b50565b60008135905061381b816137fc565b92915050565b600080600080600060a0868803121561383d5761383c612f67565b5b600061384b88828901612ff0565b955050602086013567ffffffffffffffff81111561386c5761386b612f6c565b5b613878888289016135cb565b94505060406138898882890161380c565b935050606086013567ffffffffffffffff8111156138aa576138a9612f6c565b5b6138b6888289016135cb565b925050608086013567ffffffffffffffff8111156138d7576138d6612f6c565b5b6138e3888289016135cb565b9150509295509295909350565b6000806040838503121561390757613906612f67565b5b600061391585828601612f92565b925050602061392685828601612ff0565b9150509250929050565b60006060820190506139456000830186613664565b6139526020830185613714565b61395f6040830184613714565b949350505050565b600080600080600060a0868803121561398357613982612f67565b5b600061399188828901612ff0565b955050602086013567ffffffffffffffff8111156139b2576139b1612f6c565b5b6139be888289016135cb565b945050604086013567ffffffffffffffff8111156139df576139de612f6c565b5b6139eb888289016135cb565b935050606086013567ffffffffffffffff811115613a0c57613a0b612f6c565b5b613a18888289016135cb565b925050608086013567ffffffffffffffff811115613a3957613a38612f6c565b5b613a45888289016135cb565b9150509295509295909350565b600081519050919050565b600082825260208201905092915050565b6000819050602082019050919050565b6000613a8a8383613255565b60208301905092915050565b6000602082019050919050565b6000613aae82613a52565b613ab88185613a5d565b9350613ac383613a6e565b8060005b83811015613af4578151613adb8882613a7e565b9750613ae683613a96565b925050600181019050613ac7565b5085935050505092915050565b600081519050919050565b600082825260208201905092915050565b6000819050602082019050919050565b613b3681613765565b82525050565b600060c0830160008301518482036000860152613b598282613275565b9150506020830151613b6e6020860182613b2d565b5060408301518482036040860152613b868282613275565b91505060608301518482036060860152613ba08282613275565b9150506080830151613bb56080860182613331565b5060a0830151613bc860a0860182613331565b508091505092915050565b6000613bdf8383613b3c565b905092915050565b6000602082019050919050565b6000613bff82613b01565b613c098185613b0c565b935083602082028501613c1b85613b1d565b8060005b85811015613c575784840389528151613c388582613bd3565b9450613c4383613be7565b925060208a01995050600181019050613c1f565b50829750879550505050505092915050565b60006040820190508181036000830152613c838185613aa3565b90508181036020830152613c978184613bf4565b90509392505050565b7f4f6e6c7920636f6e7472616374206f776e65722063616e20706572666f726d2060008201527f74686973207468697320616374696f6e00000000000000000000000000000000602082015250565b6000613cfc6030836130a4565b9150613d0782613ca0565b604082019050919050565b60006020820190508181036000830152613d2b81613cef565b9050919050565b7f496e76616c696420706170657200000000000000000000000000000000000000600082015250565b6000613d68600d836130a4565b9150613d7382613d32565b602082019050919050565b60006020820190508181036000830152613d9781613d5b565b9050919050565b7f496e76616c6964206f7220696e61637469766520757365720000000000000000600082015250565b6000613dd46018836130a4565b9150613ddf82613d9e565b602082019050919050565b60006020820190508181036000830152613e0381613dc7565b9050919050565b7f5061706572206e6f742075706c6f616465640000000000000000000000000000600082015250565b6000613e406012836130a4565b9150613e4b82613e0a565b602082019050919050565b60006020820190508181036000830152613e6f81613e33565b9050919050565b6000604082019050613e8b6000830185613714565b613e986020830184613714565b9392505050565b7f496e76616c696420706170657220494400000000000000000000000000000000600082015250565b6000613ed56010836130a4565b9150613ee082613e9f565b602082019050919050565b6000606082019050613f006000830185613714565b613f0d6020830184613664565b8181036040830152613f1e81613ec8565b90509392505050565b7f4163636573732064656e69656400000000000000000000000000000000000000600082015250565b6000613f5d600d836130a4565b9150613f6882613f27565b602082019050919050565b6000606082019050613f886000830185613714565b613f956020830184613664565b8181036040830152613fa681613f50565b90509392505050565b60006020820190508181036000830152613fc881613f50565b9050919050565b7f4e487b7100000000000000000000000000000000000000000000000000000000600052602260045260246000fd5b6000600282049050600182168061401657607f821691505b6020821081141561402a57614029613fcf565b5b50919050565b7f416363657373206772616e746564000000000000000000000000000000000000600082015250565b6000614066600e836130a4565b915061407182614030565b602082019050919050565b60006060820190506140916000830185613714565b61409e6020830184613664565b81810360408301526140af81614059565b90509392505050565b7f55736572206e6f7420666f756e64000000000000000000000000000000000000600082015250565b60006140ee600e836130a4565b91506140f9826140b8565b602082019050919050565b6000602082019050818103600083015261411d816140e1565b9050919050565b7f5573657220616c72656164792064656163746976617465640000000000000000600082015250565b600061415a6018836130a4565b915061416582614124565b602082019050919050565b600060208201905081810360008301526141898161414d565b9050919050565b7f4e487b7100000000000000000000000000000000000000000000000000000000600052601160045260246000fd5b60006141ca82612f71565b91506141d583612f71565b9250828210156141e8576141e7614190565b5b828203905092915050565b7f4e487b7100000000000000000000000000000000000000000000000000000000600052603260045260246000fd5b600061422d82612f71565b91507fffffffffffffffffffffffffffffffffffffffffffffffffffffffffffffffff8214156142605761425f614190565b5b600182019050919050565b7f4f6e6c79206163746976652074656163686572732063616e20706572666f726d60008201527f207468697320616374696f6e0000000000000000000000000000000000000000602082015250565b60006142c7602c836130a4565b91506142d28261426b565b604082019050919050565b600060208201905081810360008301526142f6816142ba565b9050919050565b7f4e6f742061737369676e65642074656163686572000000000000000000000000600082015250565b60006143336014836130a4565b915061433e826142fd565b602082019050919050565b6000602082019050818103600083015261436281614326565b9050919050565b7f506170657220616c72656164792075706c6f6164656400000000000000000000600082015250565b600061439f6016836130a4565b91506143aa82614369565b602082019050919050565b600060208201905081810360008301526143ce81614392565b9050919050565b60008190508160005260206000209050919050565b600081546143f781613ffe565b61440181866130a4565b9450600182166000811461441c576001811461442e57614461565b60ff1983168652602086019350614461565b614437856143d5565b60005b838110156144595781548189015260018201915060208101905061443a565b808801955050505b50505092915050565b6000604082019050818103600083015261448481856130f9565b9050818103602083015261449881846143ea565b90509392505050565b7f5573657220616c72656164792065786973747300000000000000000000000000600082015250565b60006144d76013836130a4565b91506144e2826144a1565b602082019050919050565b60006020820190508181036000830152614506816144ca565b9050919050565b6000606082019050818103600083015261452781866130f9565b90506145366020830185613777565b6145436040830184613664565b949350505050565b7f4e6f206163746976652061636365737300000000000000000000000000000000600082015250565b60006145816010836130a4565b915061458c8261454b565b602082019050919050565b600060208201905081810360008301526145b081614574565b9050919050565b7f496e76616c6964206f7220696e61637469766520746561636865720000000000600082015250565b60006145ed601b836130a4565b91506145f8826145b7565b602082019050919050565b6000602082019050818103600083015261461c816145e0565b905091905056fea264697066735822122003dfadc5f4359c60e35c3648b343a379db002f4f93ca7bcfc7b6e39b9405669864736f6c634300080b0033",
  "immutableReferences": {},
  "source": "// SPDX-License-Identifier: MIT\r\npragma solidity ^0.8.0;\r\n\r\ncontract QuestionPaperSystem {\r\n    enum PaperStatus {\r\n        REQUESTED,\r\n        UPLOADED,\r\n        VERIFIED\r\n    }\r\n    enum Role {\r\n        Teacher,\r\n        Superintendent,\r\n        Center\r\n    }\r\n\r\n    struct User {\r\n        string name;\r\n        Role role;\r\n        string email;\r\n        string contactNumber;\r\n        bool exists;\r\n        bool isActive;\r\n    }\r\n\r\n    struct Paper {\r\n        address teacher;\r\n        string fileCID;\r\n        string keyCID;\r\n        string ExamId;\r\n        string ExamName;\r\n        string Subject;\r\n        PaperStatus status;\r\n        bool exists;\r\n    }\r\n\r\n    struct Access {\r\n        bool granted;\r\n        uint256 startTime;\r\n        uint256 endTime;\r\n    }\r\n\r\n    // State Variables\r\n    address public Coe;\r\n    mapping(address => User) public users;\r\n    mapping(uint256 => Paper) public papers;\r\n    mapping(uint256 => mapping(address => Access)) public accessControl;\r\n\r\n    uint256 public paperCount;\r\n    address[] private userAddresses;\r\n\r\n    // Events\r\n    event UserRegistered(\r\n        address indexed user,\r\n        string name,\r\n        Role role,\r\n        bool success\r\n    );\r\n    event UserDeactivated(address indexed user);\r\n    event PaperRequested(uint256 indexed paperId, address indexed teacher);\r\n    event PaperUploaded(\r\n        uint256 indexed paperId,\r\n        address indexed teacher,\r\n        string fileCID,\r\n        string keyCID\r\n    );\r\n    event AccessGranted(\r\n        uint256 indexed paperId,\r\n        address indexed user,\r\n        uint256 startTime,\r\n        uint256 endTime\r\n    );\r\n    event AccessRevoked(uint256 indexed paperId, address indexed user);\r\n    event PaperAccessAttempt(\r\n        address indexed user,\r\n        uint256 paperId,\r\n        bool success,\r\n        string reason\r\n    );\r\n\r\n    // Modifiers\r\n    modifier onlyOwner() {\r\n        require(\r\n            msg.sender == Coe,\r\n            \"Only contract owner can perform this this action\"\r\n        );\r\n        _;\r\n    }\r\n\r\n    modifier onlyTeacher() {\r\n        require(\r\n            users[msg.sender].exists &&\r\n                users[msg.sender].role == Role.Teacher &&\r\n                users[msg.sender].isActive,\r\n            \"Only active teachers can perform this action\"\r\n        );\r\n        _;\r\n    }\r\n\r\n    modifier onlyAuthorized(uint256 _paperId) {\r\n        require(\r\n            msg.sender == Coe ||\r\n                (accessControl[_paperId][msg.sender].granted &&\r\n                    block.timestamp >=\r\n                    accessControl[_paperId][msg.sender].startTime &&\r\n                    block.timestamp <=\r\n                    accessControl[_paperId][msg.sender].endTime),\r\n            \"Access denied\"\r\n        );\r\n        _;\r\n    }\r\n\r\n    // Constructor\r\n    constructor() {\r\n        Coe = msg.sender;\r\n    }\r\n\r\n    // Functions\r\n    function registerUser(\r\n        address _userAddress,\r\n        string memory _name,\r\n        Role _role,\r\n        string memory _email,\r\n        string memory _contactNumber\r\n    ) external onlyOwner {\r\n    if (users[_userAddress].exists) {\r\n        require(!users[_userAddress].isActive, \"User already exists\");\r\n\r\n        // Reactivate the user\r\n        users[_userAddress].isActive = true;\r\n        emit UserRegistered(_userAddress, _name, _role, true);\r\n        return;\r\n    }\r\n        users[_userAddress] = User(\r\n            _name,\r\n            _role,\r\n            _email,\r\n            _contactNumber,\r\n            true,\r\n            true\r\n        );\r\n        userAddresses.push(_userAddress);\r\n        emit UserRegistered(_userAddress, _name, _role, true);\r\n    }\r\n\r\n    function deactivateUser(address _userAddress) external onlyOwner {\r\n        require(users[_userAddress].exists, \"User not found\");\r\n        require(users[_userAddress].isActive, \"User already deactivated\");\r\n        users[_userAddress].isActive = false;\r\n        emit UserDeactivated(_userAddress);\r\n    }\r\n\r\n    function createPaperRequest(\r\n        address _teacher,\r\n        string memory _keyCID,\r\n        string memory _ExamId,\r\n        string memory _ExamName,\r\n        string memory _Subject\r\n    ) external onlyOwner {\r\n        require(\r\n            users[_teacher].exists &&\r\n                users[_teacher].role == Role.Teacher &&\r\n                users[_teacher].isActive,\r\n            \"Invalid or inactive teacher\"\r\n        );\r\n        paperCount++;\r\n        papers[paperCount] = Paper(\r\n            _teacher,\r\n            \"\",\r\n            _keyCID,\r\n            _ExamId,\r\n            _ExamName,\r\n            _Subject,\r\n            PaperStatus.REQUESTED,\r\n            true\r\n        );\r\n        emit PaperRequested(paperCount, _teacher);\r\n    }\r\n\r\n    function uploadPaper(\r\n        uint256 _paperId,\r\n        string memory _fileCID\r\n    ) external onlyTeacher {\r\n        require(papers[_paperId].exists, \"Invalid paper\");\r\n        require(papers[_paperId].teacher == msg.sender, \"Not assigned teacher\");\r\n        require(\r\n            bytes(papers[_paperId].fileCID).length == 0,\r\n            \"Paper already uploaded\"\r\n        );\r\n\r\n        papers[_paperId].fileCID = _fileCID;\r\n        papers[_paperId].status = PaperStatus.UPLOADED;\r\n\r\n        emit PaperUploaded(\r\n            _paperId,\r\n            msg.sender,\r\n            _fileCID,\r\n            papers[_paperId].keyCID\r\n        );\r\n    }\r\n\r\n    function grantAccess(\r\n        uint256 _paperId,\r\n        address _user,\r\n        uint256 _startTime,\r\n        uint256 _endTime\r\n    ) external onlyOwner {\r\n        require(papers[_paperId].exists, \"Invalid paper\");\r\n        require(\r\n            users[_user].exists && users[_user].isActive,\r\n            \"Invalid or inactive user\"\r\n        );\r\n        require(\r\n            papers[_paperId].status == PaperStatus.UPLOADED,\r\n            \"Paper not uploaded\"\r\n        );\r\n\r\n        accessControl[_paperId][_user] = Access(true, _startTime, _endTime);\r\n        emit AccessGranted(_paperId, _user, _startTime, _endTime);\r\n    }\r\n\r\n    function revokeAccess(uint256 _paperId, address _user) external onlyOwner {\r\n        require(accessControl[_paperId][_user].granted, \"No active access\");\r\n        accessControl[_paperId][_user].granted = false;\r\n        emit AccessRevoked(_paperId, _user);\r\n    }\r\n\r\n    function hasAccess(\r\n        uint256 _paperId,\r\n        address _user\r\n    ) external view returns (bool, uint256, uint256) {\r\n         require(papers[_paperId].exists, \"Invalid paper\");\r\n        require(\r\n            users[_user].exists && users[_user].isActive,\r\n            \"Invalid or inactive user\"\r\n        );\r\n         Access memory access = accessControl[_paperId][_user];\r\n    bool valid = access.granted &&\r\n                 block.timestamp >= access.startTime &&\r\n                 block.timestamp <= access.endTime;\r\n    return (valid, access.startTime, access.endTime);\r\n    }\r\n\r\n    // function getPaper(\r\n    //     uint256 _paperId\r\n    // )\r\n    //     external\r\n    //     view\r\n    //     onlyAuthorized(_paperId)\r\n    //     returns (string memory fileCID, string memory keyCID)\r\n    // {\r\n    //     require(papers[_paperId].exists, \"Invalid paper\");\r\n    //     Paper memory paper = papers[_paperId];\r\n    //     return (paper.fileCID, paper.keyCID);\r\n    // }\r\n\r\n    function getPaper(\r\n        uint256 _paperId\r\n    ) external returns (string memory fileCID, string memory keyCID, string memory ExamId, string memory ExamName,string memory Subject, uint8 status) {\r\n        if (!papers[_paperId].exists) {\r\n            emit PaperAccessAttempt(\r\n                msg.sender,\r\n                _paperId,\r\n                false,\r\n                \"Invalid paper ID\"\r\n            );\r\n            revert(\"Invalid paper\");\r\n        }\r\n\r\n        if (\r\n            !(msg.sender == Coe ||\r\n                (accessControl[_paperId][msg.sender].granted &&\r\n                    block.timestamp >=\r\n                    accessControl[_paperId][msg.sender].startTime &&\r\n                    block.timestamp <=\r\n                    accessControl[_paperId][msg.sender].endTime))\r\n        ) {\r\n            emit PaperAccessAttempt(\r\n                msg.sender,\r\n                _paperId,\r\n                false,\r\n                \"Access denied\"\r\n            );\r\n            revert(\"Access denied\");\r\n        }\r\n\r\n        Paper memory paper = papers[_paperId];\r\n        emit PaperAccessAttempt(msg.sender, _paperId, true, \"Access granted\");\r\n\r\n        return (paper.fileCID, paper.keyCID, paper.ExamId,paper.ExamName, paper.Subject, uint8(paper.status));\r\n    }\r\n\r\n    function getAllPapers() external view returns (Paper[] memory) {\r\n        Paper[] memory result = new Paper[](paperCount);\r\n        for (uint256 i = 1; i <= paperCount; i++) {\r\n            if (papers[i].exists) {\r\n                result[i - 1] = papers[i];\r\n            }\r\n        }\r\n        return result;\r\n    }\r\n\r\n    function getAllUsers()\r\n        external\r\n        view\r\n        returns (address[] memory, User[] memory)\r\n    {\r\n        uint256 count = userAddresses.length;\r\n        User[] memory result = new User[](count);\r\n        address[] memory addresses = new address[](count);\r\n        for (uint256 i = 0; i < count; i++) {\r\n            addresses[i] = userAddresses[i];\r\n            result[i] = users[userAddresses[i]];\r\n        }\r\n        return (addresses, result);\r\n    }\r\n}\r\n",
  "sourcePath": "D:\\truffle\\contracts\\QuestionPaperSystem.sol",
  "compiler": {
    "name": "solc",
    "version": "0.8.11+commit.d7f03943.Emscripten.clang"
  },
  "schemaVersion": "3.4.16",
  "updatedAt": "2025-04-14T14:26:12.299Z",
  "networkType": "ethereum",
  "devdoc": {
    "kind": "dev",
    "methods": {},
    "version": 1
  },
  "userdoc": {
    "kind": "user",
    "methods": {},
    "version": 1
  }
}